:020000040800F2
:100000008836002021020008132D0008F124000882
:10001000112D00085F0600083134000800000000C0
:10002000000000000000000000000000890100083E
:10003000A106000800000000CD010008CD31000835
:100040003B0200083B0200083B0200083B0200089C
:100050003B0200083B020008A3060008A9060008AE
:100060003B0200083B0200083B0200083B0200087C
:100070003B0200083B0200083B0200083B0200086C
:100080003B0200083B0200083B0200083B0200085C
:100090003B0200083B0200083B020008AF060008D4
:1000A0003B0200083B020008753200083B020008D2
:1000B000813200083B020008953200083B0200082C
:1000C0003B0200083B0200083B0200083B0200081C
:1000D000552E00083B0200083B0200083B020008C6
:1000E0003B0200083B0200083B02000800F002F857
:1000F00000F03AF80AA090E8000C82448344AAF188
:100100000107DA4501D100F02FF8AFF2090EBAE885
:100110000F0013F0010F18BFFB1A43F0010318473B
:100120007457000094570000103A24BF78C878C173
:10013000FAD8520724BF30C830C144BF04680C60ED
:10014000704700000023002400250026103A28BF35
:1001500078C1FBD8520728BF30C148BF0B60704739
:100160001FB51FBD10B510BD00F080F91146FFF797
:10017000F7FF03F0B3F900F0B2F903B4FFF7F2FFB1
:1001800003BC00F0B9F90000224B19680868B0E818
:10019000F00F80F30988BFF36F8F4FF0000080F3FA
:1001A00011884EF00D0E70470000000006480068F0
:1001B000006880F3088862B661B6BFF34F8FBFF363
:1001C0006F8F00DF00BF00BF08ED00E0EFF3098094
:1001D000BFF36F8F0F4B1A6820E9F00F106008B55E
:1001E0004FF0500080F31188BFF34F8FBFF36F8F34
:1001F00004F04AFB4FF0000080F31188BDE808408E
:1002000019680868B0E8F00F80F30988BFF36F8FB2
:10021000704700BF3C000020EFF3058070470000EE
:100220000948804709480047FEE7FEE7FEE7FEE78A
:10023000FEE7FEE7FEE7FEE7FEE7FEE704480549C6
:10024000054A064B7047000071320008ED000008B7
:100250008830002088360020883200208832002034
:100260000FB4044910B503AA029800F0AFF810BC0F
:100270005DF814FB28000020032A40F2308010F0C3
:10028000030C00F0158011F8013BBCF1020F624431
:1002900098BF11F801CB00F8013B38BF11F8013BC2
:1002A000A2F1040298BF00F801CB38BF00F8013B6F
:1002B00011F0030300F02580083AC0F0088051F8DF
:1002C000043B083A51F804CBA0E80810F5E7121DEA
:1002D0005CBF51F8043B40F8043BAFF30080D20709
:1002E00024BF11F8013B11F801CB48BF11F8012BD5
:1002F00024BF00F8013B00F801CB48BF00F8012BF8
:10030000704710B5203AC0F00B80B1E81850203A81
:10031000A0E81850B1E81850A0E81850BFF4F5AFA5
:100320005FEA027C24BFB1E81850A0E8185044BF2F
:1003300018C918C0BDE810405FEA827C24BF51F89C
:10034000043B40F8043B08BF7047D20728BF31F890
:10035000023B48BF11F8012B28BF20F8023B48BFE1
:1003600000F8012B704702F0FF0343EA032242EA40
:10037000024200F03FB84FF0000200B51346944629
:100380009646203922BFA0E80C50A0E80C50B1F1ED
:100390002001BFF4F7AF090728BFA0E80C5048BF01
:1003A0000CC05DF804EB890028BF40F8042B08BF9F
:1003B000704748BF20F8022B11F0804F18BF00F89B
:1003C000012B70477047704770470000074B70B5AE
:1003D0000D467B4400F033F80446284600F042F80E
:1003E00010B14FF0FF3070BD204670BDC730000027
:1003F0004FF000020429C0F0128010F0030C3FF40B
:10040000BCAFCCF1040CBCF1020F18BF00F8012BFB
:10041000A8BF20F8022BA1EB0C01FFF7AEBF5FEAEB
:10042000C17C24BF00F8012B00F8012B48BF00F865
:10043000012B704701694A1C02610878704700B5BA
:100440008FB0CDE901310021059105497944CDE90D
:1004500003101146684600F02EF80FB000BD0000F2
:10046000E5FFFFFF007B00F080007047754600F05D
:100470003FF8AE4605006946534620F00700854622
:1004800018B020B5FFF7DAFEBDE820404FF00006B7
:100490004FF000074FF000084FF0000B21F007016C
:1004A000AC46ACE8C009ACE8C009ACE8C009ACE8AF
:1004B000C0098D4670472DE9F04106460024D6E973
:1004C0000170F5688046304603E04146B847641C39
:1004D0003046A8470028F8D12046BDE8F08110B585
:1004E0000446AFF300802046BDE81040FFF745BE4C
:1004F000004870472430002001491820ABBEFEE7B9
:10050000260002007047000070B50446006881684C
:10051000C943C90717D1816821F00101816000F04A
:1005200077FB05460AE000BF00F072FB401B022883
:1005300004D920688068C043C00706D0206880685E
:10054000C043C007F0D0002070BDA06A40F010008A
:10055000A062E06A40F00100E062012070BD00008E
:100560002DE9F0471A4F0024BE1F06F11609F51CAD
:100570004FF00108285D28BB305D0028385D02D0AF
:10058000012805D01EE003281CD106F8048019E0DC
:100590000020305539F8140040F6B831884201D3B4
:1005A000032003E0B0F5FA7F02D30220285501E0D2
:1005B00005F8048006490023C91EC81E6422C068CD
:1005C00004F0C0FA641CE4B2032CD3D3BDE8F08776
:1005D000CE0000202DE9F84F1C4E0024A6F1160590
:1005E0004FF001096F46A2464FF0020B05F10A08D1
:1005F00006EBC400818856F8340000F0FFFA385545
:10060000295D31B1012907D0022907D0032916D16C
:100610000FE0012807D012E068B110E038F814109C
:1006200064290CD110B105F8049008E00320285586
:1006300005E0012803D105F804B028F814A0641CD3
:10064000E4B2032CD4D3BDE8F88F0000E40000200E
:1006500010B5FFF7BFFFBDE81040FFF781BFFEE711
:1006600000221021014800F0CEBA00000010014025
:1006700001221021014800F0C6BA0000001001401C
:1006800000224FF48051014800F0BDBA000C014037
:1006900001221103014800F0B6BA0000000C01402D
:1006A0007047012000F0AEB9022000F0ABB94FF462
:1006B000807000F0A7B90000F8B50024009490F80D
:1006C00024202546012A12D0012280F824204A68DD
:1006D0001F23072A0DD20668776B521E02EB820297
:1006E00093409F430B6893401F43776319E00220B8
:1006F000F8BD06680D2A0AD2376BD21F02EB8202C0
:1007000093409F430B6893401F43376309E0F76AA8
:100710000D3A02EB820293409F430B6893401F43C4
:10072000F7620A68072306680A2A0AD3F7680A3AB2
:1007300002EB420293409F438B6893401F43F76054
:1007400008E0376902EB420293409F438B68934075
:100750001F4337610A68102A01D0112A20D1124B99
:1007600002689A4217D193681B0219D4936843F424
:10077000000393600968102912D10C490C4A0968DA
:10078000B1FBF2F101EB8101490000E0491E00914B
:100790000029FBD104E0816A41F02001816201243B
:1007A00080F824502046F8BD002401403800002085
:1007B00040420F002DE9F0414FF0000704003D4694
:1007C0007ED0A06A002628B9E66284F8246020461C
:1007D00000F07EF82046FFF797FEA16AC90600D414
:1007E00020B1A06A40F01000A06269E0A16A21F483
:1007F000885141F00201A1626268E169237B0A43EA
:1008000047EA43010A43A1684FF48077B94209D00F
:10081000012907D05FF0000194F814C0BCF1010F6A
:1008200002D00AE03946F7E7F3B1A36A43F02003A8
:10083000A362E36A43F00103E3622368D3F804C0D0
:100840002CF4694C4CEA010CC3F804C021688B6895
:10085000DFF870C003EA0C0313438B60A168B94250
:100860000BD0012909D00CE0DFF85CC0A3690CEBC8
:1008700043330B4343F40061DFE7218A0D05A5F5FF
:1008800080152168CB6A23F470032B43CB62216867
:1008900089680E4B1940914208D1E662A16A21F0A5
:1008A000020141F00101A162BDE8F081A06A20F0DF
:1008B000020040F01000A062E06A40F00100E06237
:1008C0000120F1E7FDF7E1FF00E0FFFFFE0E1FFF53
:1008D00000B585B00021009101910291039100685B
:1008E0000E49884218D10E48816941F40071816136
:1008F000816901F400710491816941F00401816111
:100900008069694600F004000490012000900320F3
:100910000190044800F082F805B000BD00240140B9
:10092000001002400008014010B590F8211000248A
:10093000022903D00421816301243DE001680A6893
:1009400022F00E020A6001680A6822F001020A60C1
:100950001A4A0168914201D1012121E0174A14325B
:10096000914201D110211BE0144A2832914201D159
:10097000891515E0114A3C32914201D189140FE0EA
:100980000E4A5032914202D14FF4803108E00B4AB6
:100990006432914202D14FF4801101E04FF0807136
:1009A000064A083A5160012180F82110002180F8A0
:1009B0002010416B01B18847204610BD080002405D
:1009C00070B5044600F024F90546601C02D00448C6
:1009D0000078044400F01CF9401BA042FAD370BD1B
:1009E0002C000020022807D0012807D0B0F5807F16
:1009F00006D1172002F01DBD0720FBE70620F9E70E
:100A000070470000044910B50A68024202D008602D
:100A1000FFF7E8FF10BD0000140401402DE9F84F76
:100A2000DFF8B8910024A9F1040B23460F2709F140
:100A3000040AABF1040EC9E00125A5402A40AA42F0
:100A40007DD1674ED1F804C0ACEB0608B44532D076
:100A500014DCBCF1030F3AD009DCBCF1000F2AD042
:100A6000BCF1010F1CD0BCF1020F31D11DE0BCF173
:100A7000110F17D0BCF1120F2AD119E0B8F5881F59
:100A800019D006DCB8F5803F15D0B8F5801F1FD10E
:100A900011E0B8F5001F0ED0B8F5041F18D10AE018
:100AA000CB6815E0CB681B1D12E0CB6808330FE064
:100AB000CB680C330CE08B682BB1012B4FF0080393
:100AC00003D0456104E0042302E0056100E0002357
:100AD000FF2A01D8064601E000F104064FEA84052A
:100AE00001D9A5F12005D6F8008007FA05FC28EA0F
:100AF0000C0803FA05F548EA0508C6F800804D68B9
:100B0000ED0062D5374DAE6946F00106AE61AD69C4
:100B100024F0030605F001050095334D06EB050CA6
:100B2000DCF80850A607360F07FA06F825EA08058C
:100B3000DFF8B880404503D14FF0000817E044E0EB
:100B4000DFF8AC80404502D14FF001080FE0DFF83C
:100B5000A480404502D14FF0020808E0DFF89880F9
:100B6000404502D14FF0030801E04FF0040808FAB5
:100B700006F848EA0508CCF808804D68D9F8006006
:100B8000ED024D4601D5164300E096432E604D68B8
:100B9000DAF80060AD02554601D5164300E09643F1
:100BA0002E604D68DBF80060AD035D4601D516434D
:100BB00000E096432E604D68DEF80060ED03754658
:100BC00001D5164300E096432E60641C0D682A464A
:100BD000E5407FF431AFBDE8F88F00000804014024
:100BE0000000111000100240000001400008014008
:100BF000000C0140001001400014014080680840D2
:100C000000D0012070470AB1016170470904FBE779
:100C100001488068704700002C00002070B5040077
:100C200025D094F83D00002520B984F83C5020469A
:100C300000F076FA242084F83D002068016821F055
:100C4000010101602068016841F4004101602068F1
:100C5000016821F40041016000F088FC4D4A6168A0
:100C6000914201D84C4900E04C49884201D2012010
:100C700070BD4B492368B0FBF1F15E6826F03F067A
:100C80000E435E606368934206D94FF496735943EE
:100C90004FF47A73B1FBF3F12368491C1E6A26F006
:100CA0003F06314319626168914210D84900401EE5
:100CB000B0FBF1F2521CC2F30B02042A01D2042051
:100CC00022E0B0FBF1F0401CC0F30B001CE0A26876
:100CD000F2B301EBC10303EB0116431EB3FBF6F3C2
:100CE0005B1C43F480431B0549D092B301EBC10266
:100CF00002EB0111401EB0FBF1F0401CC0F30B00F1
:100D000040F4804040F400402168CA694CF6FF730B
:100D10009A431043C861D4E9071001432068026870
:100D200022F0C00211430160D4E9030101432068AD
:100D3000826848F2FF339A4311438160D4E9050188
:100D400008432168CA6822F0FF021043C86001E02E
:100D50000EE016E02068016841F0010101602564A1
:100D6000202084F83D00256384F83E50002070BDAB
:100D700001EB4106431EB3FBF6F35B1CB3E7012016
:100D8000C2E701EB4101401EB0FBF1F0401CC0F393
:100D90000B00B7E7A086010080841E0000093D001B
:100DA00040420F002DE9F84F0025DDF828909846C5
:100DB00017468A4604460095FFF72AFF064694F830
:100DC0003D0020287AD11923012286492046009629
:100DD00001F096FC0028F5D194F83C0001286DD074
:100DE000012084F83C0020680168C90703D101682C
:100DF00041F0010101602068016821F40061016097
:100E0000222084F83D00102084F83E0025646762AB
:100E1000A4F82A80608D20857348E06233464A46F4
:100E20005146204601F07CFB00287CD1208DDFF864
:100E3000BC81202768B1012814D0022820680168ED
:100E40001ED041F480610160206841698069009092
:100E5000BBE02068416981690091016841F400713B
:100E60000160B2E02068016821F48061016072B61F
:100E70002068416981690091016841F400710AE0CC
:100E800041F40061016072B6206841698169009196
:100E9000016821F48061016062B696E0032865D89C
:100EA00001280CD002284B464FF000024146204654
:100EB00000960BD001F024FCA8BB0CE090E0324679
:100EC0004946204601F0C2FC68BB71E001F018FC05
:100ED00048BB72B633E02068016821F4806101608C
:100EE00072B620680069616A0870606A401C6062BE
:100EF000208D401E2085608D401E60853C4846F256
:100F0000A8110068B0FBF1F0C0EBC00000EB80005E
:100F10000090401E009007D020684069C043400701
:100F20000DD50098F5E727E044F8305F6773A573A7
:100F3000206940F02000206162B625731CE0206823
:100F4000016841F40071016020680069616A0870FD
:100F5000606A401C6062218D491E2185618D491E99
:100F6000618562B621680969017025E0324649460B
:100F7000204601F06BFC10B10120BDE8F88F20681D
:100F80000069616A0870606A401C6062208D401EC2
:100F900081B22185608D401E608520684269D24300
:100FA000520712D4032903D1016821F48061016042
:100FB00020680069616A0870606A401C6062208D68
:100FC000401E2085608D401E6085208D00287FF4A6
:100FD00065AF84F83D7084F83E5084F83C50CCE70F
:100FE0000220CAE7020010000000FFFF0400010019
:100FF000380000202DE9F84F1F4690468A460446E7
:10100000DDF82890FFF704FE054694F83D002028FF
:101010007FD11923012240492046009501F070FB41
:10102000002876D194F83C00012872D0012084F881
:101030003C0020680168C90703D1016841F0010143
:1010400001602068016821F400610160212084F8BA
:101050003D00102084F83E0000262664C4F8248059
:101060006785608D20852D48E0622B464A465146B3
:10107000204601F0CBFA90B9206841698069009060
:1010800036E02A464946204601F018FC50B1206C53
:10109000042804D12068016841F400710160012036
:1010A000BDE8F88F606A216800780861606A401CBA
:1010B0006062618D491E6185218D491E89B221853D
:1010C00022685369DB435B070BD451B10078106190
:1010D000606A401C6062608D401E6085208D401EED
:1010E00020852A464946204601F0DEFA0028CED166
:1010F000208D0028C5D154F83D0B016841F40071E2
:101100000160202004F81E09E67766770020C7E713
:10111000FFE70220C4E70000020010000000FFFF0C
:1011200010B586B0002100910191029103910068F1
:10113000104988421BD1104CA06940F00800A06102
:10114000A069694600F0080004904FF440600090E8
:1011500012200190032003900848FFF75FFCE0692C
:1011600040F48000E061E06900F48000049006B083
:1011700010BD00000058004000100240000C01406B
:101180000248816802781144816070472C00002079
:10119000074810B5016841F010010160032000F01C
:1011A000A7F80F2000F006F800F050F8002010BD5E
:1011B0000020024030B505461F4887B0C16941F0A4
:1011C0000401C161C06906A900F00400009001A8F3
:1011D00000F0ACF90498B0B100F0C8F9400017492C
:1011E000174AB0FBF1F11748491E0260416040F216
:1011F000E7320021C0E903218160816100F054FFE2
:10120000040003D015E000F0B1F9E8E70D4800F064
:10121000A9FF04000DD11E2000F03CF8102D07D2CC
:10122000002229461E2000F043F80748056000E030
:10123000012407B0204630BD0010024040420F009C
:101240000008004008030020300000200F4808B5C7
:10125000816941F001018161816901F00101009121
:10126000C16941F08051C161C069002200F0805025
:1012700000900F21901E00F01BF80548416821F0F6
:10128000E06141F00071416008BD000000100240C3
:1012900000000140002809DB00F01F0201219140FD
:1012A0004009800000F1E020C0F800117047000004
:1012B000F0B40E4B1B680C46C3F30223C3F10705C1
:1012C000042D00D90425191D072901D2002300E0AF
:1012D000DB1E012606FA05F1491E214099409E4079
:1012E000761E16403143F0BC02F0B0B80CED00E0C1
:1012F000064900F0070208684FF6FF03184040EA6D
:101300000220034A10430860704700000CED00E023
:101310000000FA052DE9F84305460078354CC00772
:1013200054D0E0690026C00008D4E06940F0805045
:10133000E061E069012600F0805000902E480168CD
:10134000C90512D40168804641F480710160FFF73D
:101350005FFC074605E000BFFFF75AFCC01B64288E
:1013600023D8D8F80000C005F6D5206A10F44070E4
:1013700021D0A98801F4407181421CD0206A1F4904
:10138000012220F440700A6000220A602062C00737
:1013900011D0FFF73DFC074641F2883808E000BF56
:1013A000FFF736FCC11B414502D90320BDE8F88395
:1013B000206A8007F4D5206A696820F440700843E9
:1013C00020621EB1E06920F08050E061287880073B
:1013D00005D56068A96820F440400843606028781B
:1013E000C00605D56068E96820F4800008436060A5
:1013F0000020DBE700100240007000404004424241
:101400002DE9F0470F46050061D0434E306800F0EB
:101410000700B84209D2306820F007003843306036
:10142000306800F00700B84251D128683B4C810772
:1014300012D5400703D5606840F4E060606028780A
:10144000000703D5606840F4605060606068A96878
:1014500020F0F000084360602878C00728D0686852
:10146000012810D02168022810D0890700292EDA1F
:10147000616821F0030101436160FFF7C9FB804609
:1014800041F288390DE021688903EFE78901EDE732
:10149000FFF7BEFBA0EB0801494502D90320BDE8D8
:1014A000F0876068696800F00C00B0EB810FEFD145
:1014B000306800F00700B8420BD9306820F0070010
:1014C00038433060306800F00700B84201D0012096
:1014D000E5E72878400705D56068E96820F4E06012
:1014E000084360602878000706D56068296920F401
:1014F000605040EAC100606000F058F86168084A36
:10150000C1F30311515CC8400649086006480068F1
:10151000FFF750FE0020C2E700200240001002400A
:10152000FE57000838000020300000200F22026023
:101530000C4A536803F003034360536803F0F0035D
:101540008360536803F4E063C36052684FF4E06360
:1015500003EAD20202610448006800F00700086054
:101560007047000000100240002002400448054976
:1015700000684968044AC1F30221515CC8407047C1
:1015800038000020001002400E58000804480549A9
:1015900000684968044AC1F3C221515CC8407047E1
:1015A00038000020001002400E5800080E4A516812
:1015B0000E4801F00C03042B11D0082B0FD10C485E
:1015C000C1F38343C903C05C0AD55168084AC1F31B
:1015D0004041921E515C054A5043B0FBF1F0704708
:1015E00004494843704700000010024000127A008E
:1015F000EE57000800093D002DE9F84F040070D0B7
:101600002078C04DC00749D06868C0F38100012828
:1016100007D06868C0F38100022809D16868C00358
:1016200006D52868800339D560680028E7D035E002
:101630006068B0F5803F0BD010B1B0F5A02F11D08D
:10164000286820F480302860286820F4802002E098
:10165000286840F480302860606890B1FFF7D8FABD
:1016600006460AE0286840F480202860F0E700BFC2
:10167000FFF7CEFA801B642873D828688003F7D55B
:101680000CE0FFF7C5FA064605E000BFFFF7C0FA19
:10169000801B6428F0D828688003F7D420789A4EFD
:1016A00080074FF001094FF0000839D5686810F045
:1016B0000C0F07D06868C0F38100022809D1686860
:1016C000C00306D42868800714D52069012808D1F2
:1016D00010E02069B0B1C6F80090FFF799FA07460C
:1016E00005E00AE1FFF794FAC01B0228C4D8286875
:1016F0008007F7D52868616920F0F80040EAC1004A
:1017000028600DE0C6F80080FFF782FA074604E083
:10171000FFF77EFAC01B022823D828688007F7D479
:10172000207800072CD57948A169D9B1C0F800907C
:10173000FFF76EFA074604E0FFF76AFAC01B0228BB
:101740000FD8686A8007F7D571484FF4FA510068DE
:10175000B0FBF1F0009000BF0098411E0091FAD25A
:101760000EE080E0C0F80080FFF752FA074604E080
:10177000FFF74EFAC01B022875D8686A8007F7D4B5
:101780002078400760D5E8690027C00008D4E869E0
:1017900040F08050E861E869012700F08050009037
:1017A0005C480168C90513D40168834641F480711F
:1017B0000160FFF72DFA824606E000BFFFF728FA26
:1017C000A0EB0A0064284ED8DBF80000C005F5D570
:1017D000E06801280AD008B1052813D0286A20F053
:1017E00001002862286A20F0040002E0286A40F024
:1017F00001002862E06841F2883B98B1FFF708FADF
:1018000082460BE0286A40F004002862EEE700BF41
:10181000FFF7FEF9A0EB0A0159455AD8286A80075C
:10182000F6D50CE0FFF7F4F9824605E0FFF7F0F992
:10183000A0EB0A0159454CD8286A8007F6D41FB19D
:10184000E86920F08050E861E06988B36968C1F315
:101850008101022944D00228C6F8608004D0FFF735
:10186000D7F9044638E034E0FFF7D2F9074604E040
:10187000FFF7CEF9C01B02282BD828688001F7D4C7
:10188000206AB0F5803F05D16868A16820F4003077
:1018900008436860D4E908010843696821F47411B9
:1018A00008436860C6F86090FFF7B2F9044606E0A6
:1018B00025E000BFFFF7ACF9001B022809D8286813
:1018C0008001F7D51BE000BFFFF7A2F9001B02283B
:1018D00002D90320BDE8F88F28688001F4D40EE017
:1018E0000128F7D06868226A00F48031914204D15F
:1018F000616A00F47010884201D00120EAE70020FC
:10190000E8E700000010024000004242800442422A
:101910003800002000700040AFF30080406D704739
:1019200038B50446006842688168C9434B0606D54D
:10193000CB0704D1D3435B0601D4216C05E08B07B0
:1019400008D4D3431B0605D4616C01B02046BDE822
:10195000304008478B0601D54B0646D4D3439B063F
:1019600043D44B060AD494F85130032B3ED0636D18
:1019700043F004036365C36883680093890609D450
:10198000616D41F00101616581680091016821F09C
:1019900040010160606D002827D02068416821F077
:1019A000E0014160012084F85100900722D02068B6
:1019B000416821F003014160104DE06C40B1456386
:1019C000E06CFEF7B1FF18B1606D40F0400060655B
:1019D000A06C002809D04563A06CFEF7A5FF002885
:1019E00003D0606D40F04000606538BDC16880681C
:1019F000009038BD2046FFF78FFF38BD612E0008EC
:101A000070B5040009D0606A002540B125616561A8
:101A1000A56294F8510040B10CE0012070BD6068EF
:101A2000B0F5827FF4D0E561F2E784F850502046AB
:101A300000F040F8022084F851002068016821F08D
:101A400040010160A088218900F4827001F4044102
:101A50000843A18901F400610843217C01F00201DF
:101A60000843217D01F001010843218B01F400713D
:101A70000843217F01F03801084394F8201001F059
:101A800080010843218D01F400510843216808605A
:101A9000A069042101EA1040216848602068C169FA
:101AA00021F40061C1616565012084F851000020C6
:101AB00070BD000030B585B00024009401940294FC
:101AC00003942C4D03682C4802210322AB4222D1FF
:101AD000836943F480538361836903F480530493DF
:101AE000836943F0040383618069244D00F004009E
:101AF0000490B020CDE90001039269462846FEF724
:101B00008DFF4020CDE90004694628460294FEF787
:101B100085FF05B030BD1A4DAB42FAD1C36943F41D
:101B20008043C361C36903F480430493836943F032
:101B3000080383618069134D00F0080004904FF49E
:101B40002040CDE90001039269462846FEF766FF72
:101B50004FF48040CDE90004694628460294FEF720
:101B60005DFF002205212420FFF7A2FB2420FFF7C0
:101B700091FBCEE700300140001002400008014018
:101B800000380040000C01402DE9F84F044690F861
:101B90005100984616460F460025012801D002251F
:101BA00098E060684FF0040BB0F5827F01D1A06827
:101BB000F8B194F85000012826D04FF0010984F8BC
:101BC0005090FFF725F88246002F7FD0002E7DD061
:101BD00084F851B000206065A763A687E68720637C
:101BE000A086E08620646064A068B0F5004F0DD048
:101BF00016E084F851B013460A462046CDF800801E
:101C000000F024F9BDE8F88F0220FBE720680168A6
:101C100021F0400101602068016821F480410160E9
:101C200020680168490603D4016841F04001016061
:101C3000E068D8B13BE020688168C90709D0007B23
:101C4000A16B0870A06B401CA063E08F401EE08772
:101C50000CE0FEF7DDFFA0EB0A01414503D3B8F12C
:101C6000FF3F03D006E0B8F1000F03D0E08F00285B
:101C7000E1D11FE003252BE020688168C90709D066
:101C8000C068A16B0880A06B801CA063E08F401E21
:101C9000E0870CE0FEF7BCFFA0EB0A01414503D34F
:101CA000B8F1FF3F03D0E5E7B8F1000FE2D0E08FD5
:101CB0000028E1D152464146204601F0D9F808B14A
:101CC00020206065606D00E000E008B1012501E0C2
:101CD00084F85190002084F85000284692E72DE9BE
:101CE000F84F044690F850000026984615468A465C
:101CF00001280CD0012784F85070FEF789FF814637
:101D000094F85100B346012804D002269AE002203C
:101D1000BDE8F88FBAF1000F6FD0002D6DD0032011
:101D200084F85100C4F854B0C4F830A0A586E58604
:101D3000C4F838B0A4F83CB0A4F83EB0C4F844B03D
:101D4000C4F840B0A068B0F5004F09D12068016820
:101D500021F0400101602068016841F48041016088
:101D600020680168490603D4016841F04001016020
:101D7000E068B0F5006F606803D058B3012D29D03A
:101D800049E008B1012D1FD1206B21680088C8608F
:101D900006E020688168890709D5216B0988C16040
:101DA000206B801C2063E08E401EE0860CE0FEF776
:101DB0002FFFA0EB0901414503D3B8F1FF3F03D04A
:101DC00006E0B8F1000F03D0E08E0028E1D125E055
:101DD000032635E0206B21680078087306E0206850
:101DE000816889070AD5216B09780173206B401C33
:101DF0002063E08E401EE0860DE01FE0FEF708FF46
:101E0000A0EB0901414503D3B8F1FF3F03D0DFE761
:101E1000B8F1000FDCD0E08E0028E0D14A46414600
:101E2000204601F053F808B120206065A06818B979
:101E30002068C16880680090606D08B1012601E0EB
:101E400084F8517084F850B0304661E72DE9FF4FB7
:101E500081B0044690F8500000260E9F1D46934620
:101E60004FF0010901280FD04FF0010A84F850A06B
:101E7000FEF7CEFE804694F85100616801280DD02F
:101E8000B1F5827F08D103E0022005B0BDE8F08FF4
:101E9000A16809B9042801D00226C9E002980028E7
:101EA00065D0BBF1000FFBD0002DF9D094F85100A4
:101EB000042802D0052084F8510000206065C4F891
:101EC00038B0E587A58702992163E586A586206459
:101ED000606420680168490603D4016841F040014C
:101EE0000160E068B0F5006F606803D0F0B3012DC9
:101EF00047D081E008B1012D3CD1206B21680088DA
:101F0000C860206B801C2063E08E401EE08631E0BC
:101F10002068816889070FD5E18E69B1B9F1010F99
:101F20000AD1216B0988C160206B801C2063E08E80
:101F3000401EE0864FF0000920688168C9070CD078
:101F4000E18F51B1C068A16B0880A06B801CA063B9
:101F5000E08F401EE0874FF00109FEF759FEA0EB2D
:101F60000800B84206D3781C04D001E009E05BE029
:101F700003265BE0E08E0028CAD1E08F0028C7D19D
:101F800040E0206B216800780873206B401C2063C0
:101F9000E08E401EE0862FE02068816889070FD51B
:101FA000E18E69B1B9F1010F0AD1216B0978017392
:101FB000206B401C2063E08E401EE0864FF000093D
:101FC00020688168C9070CD0E18F51B1C068A16B4E
:101FD0000870A06B401CA063E08F401EE0874FF0AC
:101FE0000109FEF715FEA0EB0800B84202D3781CE9
:101FF00002D0BAE7002FB8D0E08E0028CCD1E08F15
:102000000028C9D142463946204600F05FFF18B18A
:102010000126202060650BE0A06818B92068C1681F
:1020200080680090606D08B1012601E084F851A03D
:10203000002084F85000304627E7704770470000C2
:1020400070B590F83C20012A26D0012480F83C404D
:10205000022280F83D2003685A689D6822F07006CD
:102060000A6832435A600D4B02689A4208D0B2F1B6
:10207000804F05D00A4B9A4202D00A4B9A4204D1B3
:10208000496825F080031943916080F83D400021A4
:1020900080F83C10084670BD022070BD002C014045
:1020A000000400400008004010B5040003D094F87C
:1020B0003D0010B107E0012010BD002084F83C0075
:1020C000204600F01FF8022084F83D00211D206802
:1020D00001F0E6F8012084F8460084F83E0084F818
:1020E0003F0084F8400084F8410084F8420084F8FE
:1020F000430084F8440084F8450084F83D00002043
:1021000010BD000008B5154A0168154891420ED16E
:10211000816941F4006181618069002200F40060FE
:10212000009005211A20FFF7C3F81A2010E0B1F142
:10213000804F11D1C16941F00101C161C069002224
:1021400000F00100009005211C20FFF7B1F81C20D1
:10215000BDE80840FFF79EB808BD0000002C014014
:102160000010024090F83D10012901D00120704775
:10217000022180F83D100168CA6842F00102CA607D
:1021800000680B49884208D0B0F1804F05D009495A
:10219000884202D00849884204D1816801F00701D1
:1021A000062903D0016841F0010101600020704759
:1021B000002C0140000400400008004070B50446B7
:1021C00090F83C000025012817D0012684F83C60D7
:1021D000022084F83D002068826822F0770222F411
:1021E0007F4282600868502838D00DDC20284FD00C
:1021F00005DC90B3102811D14AE0022070BD3028D0
:1022000046D040280AD13BE060282FD070280DD05E
:10221000B0F5805F03D0B0F5005F12D0012584F8DF
:102220003D60002084F83C00284670BDCB68D1E9B1
:102230000121206801F06AF82068816841F0770187
:1022400009E0CB68D1E90121206801F05FF820683E
:10225000816841F480418160E1E719E0CA6849681A
:10226000206801F065F85021206806E0CA684968D6
:10227000206801F06EF86021206801F051F8CEE787
:10228000CA684968206801F053F840212068F4E7E3
:10229000226801461046F0E7704770B504460068B2
:1022A00001694FF00005C943890715D4C168C943C6
:1022B000890711D4E91E0161012020772068806917
:1022C0008007204602D0FFF7E7FF04E000F098F80F
:1022D000204600F096F8257720680169C943490730
:1022E00017D4C168C943490713D46FF004010161D1
:1022F000022020772068806910F4407F204602D0B9
:10230000FFF7CAFF04E000F07BF8204600F079F800
:10231000257720680169C943090716D4C168C943F4
:10232000090712D46FF008010161042020772068AA
:10233000C0698007204602D0FFF7AEFF04E000F03E
:102340005FF8204600F05DF8257720680169C943F1
:10235000C90617D4C168C943C90613D46FF0100168
:102360000161082020772068C06910F4407F204672
:1023700002D0FFF791FF04E000F042F8204600F0A1
:1023800040F8257720680169C943C90708D1C168A9
:10239000C943C90704D1891E0161204600F032F803
:1023A00020680169C943090609D4C168C9430906FF
:1023B00005D46FF0800101612046FFF73EFE2068E2
:1023C0000169C943490609D4C168C943490605D40E
:1023D0006FF040010161204600F01EF8206801699D
:1023E000C94389060BD4C168C943890607D46FF075
:1023F000200101612046BDE87040FFF71FBE70BD9F
:102400007047704700680349884201D1FEF7B8BEA3
:102410007047000000080040704770B5040004D009
:1024200094F84100002510B106E0012070BD84F849
:102430004050204600F024F8242084F84100206811
:10244000C16821F40051C160204600F095FF20686A
:10245000016921F4904101612068416921F02A015C
:1024600041612068C16841F40051C1606564202069
:1024700084F8410084F842006563002070BD0000CC
:1024800030B585B000240094019402940394006850
:102490001449884223D11448C16941F40031C16113
:1024A000C16901F400310491816941F00401816145
:1024B00080690E4D00F0040004900420009002207A
:1024C00001900320039069462846FEF7A7FA0820EA
:1024D000CDE90004694628460294FEF79FFA05B04C
:1024E00030BD0000004400400010024000080140E0
:1024F000FEE701684A69D24352050FD46FF4806247
:102500004A61002140F8301F202242738173026922
:1025100042F00402026101730120704700207047FD
:102520002DE9F84F0446C06A1E4693460D462168C1
:102530000A6842F480620A60082807D0012805D0A2
:1025400010F5803F02D0206B112804D1206801686B
:1025500041F4807101604FF001195B460022494649
:102560002046009600F0CCF84FF4007840B1206887
:102570000068C00501D5C4F840800320BDE8F88F8D
:102580002069DFF884A0B0F5804F0FD006202168C5
:1025900000EAD51747F0F000086133465A460AF1C1
:1025A0000601204600F0F4F858BB03E0E8B240F022
:1025B00001001CE02168E8B2086133465A465146E2
:1025C000204600F0E5F8E0B9206841698169009192
:1025D000016841F4807101605B4600224946204653
:1025E000009600F08DF80028C1D147F0F100216875
:1025F000086133465A465146204600F0C9F8002883
:10260000BCD00120BAE7000002000100F8B5044682
:10261000C06A1E460D461746082807D0012805D077
:1026200010F5803F02D0206B122804D12068016889
:1026300041F480710160134600224FF001112046E1
:10264000009600F05DF840B120680068C00502D532
:102650004FF4007020640320F8BD2069B0F5804F6E
:102660000ED00620216800EAD51040F0F000086185
:1026700033463A460B49204600F08AF878B902E022
:1026800005F0FE0000E0E8B2216808610549334624
:102690003A46891F204600F07BF80028DCD0012054
:1026A000F8BD00000800010070B516460D4604464E
:1026B0001EE02046FFF71DFF08B1012070BD681C19
:1026C00016D0FEF7A5FA801BA84200D885B920686D
:1026D0004069C04340070BD5002044F8300F20214B
:1026E0006173A073216941F0200121612073E4E747
:1026F00020684069C0434007DBD4002070BD000063
:102700002DE9F047984617460D460446C1F30746A3
:10271000DDF820902AE000BFB8F1FF3F26D0FEF799
:1027200077FAA0EB0901414502D8B8F1000F1DD19D
:102730002068012E16D0806925EA00000004000CF4
:1027400012D00020B84211D1002044F8300F2021CF
:102750006173A073216941F0200121612073012080
:10276000BDE8F0874069E7E70120EBE72068012E2C
:102770000AD0806925EA00000004000C06D0002081
:10278000B842C9D00020EBE74069F3E70120F7E742
:102790002DE9F047984616460D4604464FF00009CD
:1027A0004FF0200AC1F3074723E020684069C04387
:1027B000400515D42068016841F40071016021686A
:1027C0006FF480604861C4F8309084F83DA084F8CC
:1027D0003E90216C41F00401216484F83C9021E09A
:1027E000701C06D0FEF714FAA0EB0800B04203D824
:1027F00016B1012F1FD021E02068012F15D080696C
:1028000025EA00000004000C18D000BF44F8309FF7
:1028100084F80DA084F80E90216941F02001216117
:1028200084F80C900120BDE8F087406925EA00009B
:102830000004000CEAD12068406901E0206880694A
:1028400025EA00000004000CAFD1ECE72DE9F041CF
:10285000002590460E460446202728E04069C043E4
:10286000C0060CD454F8301B6FF01000486144F8D7
:1028700010596777A577206A2062257714E0FEF764
:10288000C7F9A0EB0800B04200D886B920684069BB
:10289000C04340060BD544F8305F6773A5732069C9
:1028A00040F02000206125730120BDE8F081206800
:1028B0004169C9434906D1D40020F6E770B51646F0
:1028C0000D4604461EE02046FFF713FE08B1012026
:1028D00070BD681C16D0FEF79BF9801BA84200D87B
:1028E00085B920684069C04300060BD5002044F834
:1028F000300F20216173A073216941F02001216113
:102900002073E4E720684069C0430006DBD4002060
:1029100070BD00F001B80000FEB506460CA00A2408
:1029200000680D46CDE90040012301AA3046FEF7BC
:1029300061FB022302AA294630460094FEF732FAD0
:1029400008B1FF20FEBDBDF8080040BAFEBD000082
:102950000200000010B500F009F802F0EBFD0121C3
:1029600002F078FEBDE8104002F0A8BDFEB50646B4
:102970000CA00A2400680D46CDE90040012301AAFD
:102980003046FEF737FB022302AA29463046009460
:10299000FEF708FA08B1FF20FEBDBDF8080040BAF6
:1029A000FEBD00000400000010B500F00BF802F0BE
:1029B000C1FD034902F0C0FCBDE8104002F07EBD3D
:1029C00000004841FEB506460CA00A2400680D46EA
:1029D000CDE90040012301AA3046FEF70BFB02239C
:1029E00002AA294630460094FEF7DCF908B1FF2020
:1029F000FEBDBDF8080040BAFEBD000003000000A7
:102A0000FEB506460CA00A2400680D46CDE900403C
:102A1000012301AA3046FEF7EDFA022302AA294655
:102A200030460094FEF7BEF908B1FF20FEBDBDF8A8
:102A3000080040BAFEBD0000010000001CB50023E4
:102A40008DF80430130A8DF805308DF806200A221F
:102A50000092032301AAFEF7CDFA1CBD3EB5002467
:102A600010480094019402940D498460016004733D
:102A70000475012505614FF460214460C161FDF7D3
:102A800099FE08B172B6FEE7CDE9004569460548F2
:102A90000294FDF711FE002801D072B6FEE73EBD9C
:102AA00000240140FC0000202DE9F04385B0002403
:102AB0003D480094019402940394816941F010010F
:102AC0008161816901F010010491816941F0200167
:102AD0008161816901F020010491816941F0040163
:102AE0008161816901F004010491816941F008016B
:102AF000816180692D4F00F008004FF4604504901B
:102B0000002229463846FEF77EF8DFF8A49041F20D
:102B10001028002241464846FEF775F80126CDE907
:102B20000056022569463846CDE90245FDF776FF95
:102B3000204F0095CDE9017469461F48FDF76EFFEF
:102B400040F20110CDE90007694602944846FDF7BE
:102B500065FF0420CDE90004694648460294FDF76C
:102B60005DFFCDE9008669464846CDE90245FDF79F
:102B700055FF002205210620FEF79AFB0620FEF7EE
:102B800089FB002205210720FEF792FB0720FEF7B4
:102B900081FB002205211720FEF78AFB1720FEF794
:102BA00079FB05B0BDE8F083001002400010014041
:102BB000000C014000003110000801400F4810B522
:102BC0000D4901604FF48271416000218160C16054
:102BD0004FF480220161C0E905120822C0E90721F3
:102BE000416281620A21C162FEF70AFF002801D01A
:102BF00072B6FEE710BD00000030014080010020E9
:102C00000E4810B50C4901604FF4827141600021FB
:102C10008160C1604FF400720161C0E90512C161B9
:102C20000162416281620A21C162FEF7E9FE002869
:102C300001D072B6FEE710BD00380040D801002078
:102C400010B586B0002417480094019402940394B0
:102C5000049413490594016048F69F41C0E90114AA
:102C6000C721C0E9031444618461FFF71DFA08B16C
:102C700072B6FEE74FF48050009069460948FFF7AE
:102C80009DFA08B172B6FEE7049404A905480594BC
:102C9000FFF7D6F9002801D072B6FEE706B010BDE6
:102CA000002C01403002002010B586B000241748E7
:102CB000009401940294039404944FF0804105948D
:102CC00001604FF4E151C0E901144FF47A71C0E999
:102CD00003148461FFF7E8F908B172B6FEE74FF418
:102CE0008050009069460948FFF768FA08B172B64B
:102CF000FEE7049404A905480594FFF7A1F900280C
:102D000001D072B6FEE706B010BD000078020020C8
:102D1000FEE7FEE738B5044600208DF80000FDF719
:102D2000AFFC61208DF800006423012269460A4847
:102D3000FEF7D5FF4FF47A73202221460648FEF7AE
:102D400023FFFDF7A5FC0120FDF73AFEE2208DF8F8
:102D5000000000F03FFD38BDD801002070B50D46E1
:102D60000446FDF77DFC072000F09EFC2946052067
:102D700000F068FC022000F04BFC40F0040102204F
:102D800000F060FC052221460B2000F071FCEE21D2
:102D90000C2000F057FC2021132000F053FC0020F1
:102DA00000F036FC40F00301002000F04BFCBDE8D1
:102DB0007040FDF75DBC000038B5044600208DF87A
:102DC0000000FDF75DFCA0208DF8000064230122C7
:102DD00069461148FEF783FF4FF47A73202221469B
:102DE0000D48FEF77CFFFDF753FC0120FDF7E8FDE1
:102DF000172000F00DFCC1060BD5000709D4E12017
:102E00008DF8000000F0E6FC172000F04DFC0120DA
:102E100038BD002038BD0000D801002070B50D4637
:102E20000446FDF71DFC2946052000F00BFC052299
:102E30002146102000F01CFC002000F0E9FB00F00F
:102E4000F201002000F0FEFBBDE87040FDF710BC71
:102E5000704770470148FEF763BD0000D8010020AD
:102E600010B5406A0021C187C186FEF755FD10BD2F
:102E7000F8B5044640684FF48273984217D1A068B1
:102E80004FF48065B0F5004F01D0A8420FD1206803
:102E9000066826F0400606606068984207D1A06880
:102EA000A84204D100920B460022012103E00092C7
:102EB0000B4600228021204600F018F8002804D09C
:102EC000606D40F0200060650320F8BD38B50B460A
:102ED000009204460022802100F008F8002804D067
:102EE000606D40F020006065032038BD2DE9F84397
:102EF0001E46914688460446089DFDF789FE401B04
:102F0000351AFDF785FE074625480068C0F3CB302B
:102F1000684338E0701C37D0FDF77AFEC01BA8422A
:102F200003D215B1009860B32CE02068416821F00D
:102F3000E00141606068B0F5827F0BD1A068B0F518
:102F4000004F02D0B0F5806F04D12068016821F0F5
:102F500040010160A06AB0F5005F09D120680168F6
:102F600021F4005101602068016841F400510160C2
:102F7000012084F85100002084F850000320BDE8AF
:102F8000F8830025401E00902068816838EA01001F
:102F900004D000214945BDD10020F0E70121F9E727
:102FA000380000204FF6FF71002000BF401C88420F
:102FB000FBD3F9E7642000F01BFCFBE71CB5002005
:102FC0000090019040F6076280211848FFF736FD17
:102FD000174D4FF47A7480211448FFF79AFCADF82E
:102FE000020080211148FFF7B5FCADF800008021F8
:102FF0000E48FFF705FDADF8040080210B48FFF7F0
:10300000D3FCADF80600BDF80200A04206D90023AB
:1030100064226946E86901F095FD02E005A0FDF72C
:103020001FF9204600F0E4FBD5E700002C0100204A
:1030300000000020494E41206973204E6F742063C8
:103040006F6E6E65637465642E200A004FF47A74A7
:10305000204600F0CDFBFBE750A08EB0D0E9001079
:10306000CDE90A104FA1514FD1E90001CDE90C0182
:10307000002000904E4C01900290039004904FF07D
:10308000FF39E84605900A210AA8FFF767FE606944
:1030900001F04DF910F0FF0F20D0022000F00CFAE3
:1030A00001281BD1002502AE7019FFF733FE6D1CFD
:1030B000EDB2022DF8D39DF8000005280ED13D4D4C
:1030C0009DF809204FF480412846FDF79CFD9DF8AE
:1030D0000A204FF400412846FDF795FD0A210CA86F
:1030E000FFF79CFE386801F022F910F0FF0F22D0A4
:1030F000642206A9386801F033FE9DF82400B8B1B7
:1031000001208DF80000089802F0F4F98DF8010014
:10311000464600234A46711CA06901F013FD0025B4
:103120007019FFF749FE6D1CEDB2022DF8D302E0D5
:1031300021A0FDF795F8E06901F0F9F810F0FF0F14
:1031400026D0642204A9E06901F00AFE03208DF86C
:103150000000BDF812008DF80100BDF810008DF8D8
:103160000200BDF814008DF80300BDF816008DF8BC
:103170000400454600234A46291DA06901F0E2FCEF
:103180000026A819FFF718FE761CF6B2052EF8D314
:103190004FF47A7000F02CFB75E7000004D5C6B739
:1031A000A8000000E8D7C6B5A4000000C0000020B9
:1031B00000000020001001404453313842323020DA
:1031C00073656E736F72206C6F73740010B550204E
:1031D00080F31188BFF34F8FBFF36F8F01F002FFB1
:1031E00018B104494FF080500860002080F3118826
:1031F00010BD000004ED00E030B593B02821684612
:10320000FDF7B9F814210AA8FDF7B5F8002501204B
:103210000F9510951195010412958DE823000490E7
:103220004FF4E010CDE90810022407946846FEF739
:10323000E3F908B172B6FEE70AA90F2081E8310070
:103240004FF48060CDE90D0502210AA8FEF7D8F8F9
:1032500008B172B6FEE74FF4004011900F940FA82A
:10326000FEF758F8002801D072B6FEE713B030BD63
:10327000704700000148FFF710B80000300200203E
:1032800010B50348FFF709F8BDE81040FDF7E0B9B5
:10329000780200200148FFF700B800000803002072
:1032A000F0B50268164B174C174D4FF08047984207
:1032B00005D0B84203D0A04201D0A84203D122F0E9
:1032C00070064A683243984205D0B84203D0A04203
:1032D00001D0A84203D122F44074CA6822434C6949
:1032E00022F08002224302608A68C2620A68826217
:1032F000984201D10969016301214161F0BD0000DB
:10330000002C0140000400400008004010B5846813
:1033100042EA032224F47F440A432243826010BD20
:10332000826822F070020A4342F007018160704710
:1033300010B5036A046A24F001040462846924F06D
:10334000F00444EA021423F00A020A438461026290
:1033500010BD10B5036A046A24F010040462846985
:1033600023F0A00324F4704444EA023243EA01113A
:103370008261016210BD000070B5044600680169F9
:10338000E26821F44051114301612169A0680843BA
:10339000616908432168CA6841F20C639A43024399
:1033A000CA6020684169A26921F4407111434161FA
:1033B0001E492068884202D1FEF7E8F801E0FEF7D6
:1033C000D5F800EBC00101EB0012606864218000B9
:1033D000B2FBF0F3B3FBF1F36FF018067343B2FBEB
:1033E000F0F5B2FBF0F605EB8305322303EB051590
:1033F000B5FBF1F5B6FBF1F605F0F00505EB0615AA
:10340000B2FBF0F6B2FBF0F0B0FBF1F06FF0180297
:10341000504306EB800003EB0010B0FBF1F0216895
:1034200000F00F002844886070BD000000380140A3
:10343000FEE7002809DB00F01F020121914040094E
:10344000800000F1E020C0F8801270470907090EE3
:10345000002804DB00F1E02080F80014704700F041
:103460000F0000F1E02080F8141D70470949012089
:10347000096809B10020704707494A6A002AF9D152
:10348000044A283212680969491E8A42F3D102208F
:1034900070470000180800203C000020054909681A
:1034A000C90105D54FF060410A68002AFCD00870B8
:1034B00070470000FCED00E010B50446072000F066
:1034C000A7F8410608D510EA440F05D0402107208F
:1034D00000F0B8F8012010BD002010BDFDF758FE27
:1034E000FFF78AFEFFF7E0FAFFF78AFBFFF7A8FB7A
:1034F000FFF764FB3B483A49002401604FF4E13197
:10350000C0E901140C21C460C0E904418461C461B4
:10351000FEF783FF08B172B6FEE7FFF79FFAFFF7E9
:10352000C3FB3248304901603149C0E901144FF40E
:103530008041C0E9034144618461C4610462FDF7D4
:103540006DFB08B172B6FEE700F06CF9294A002164
:10355000012000F0DDF9284C264A002120621032BB
:10356000012000F0D5F9234A6062483A0221012087
:1035700000F094F91F4A6061303A0221102000F0F7
:103580008DF91C4AA061183A0821012000F086F943
:10359000184AE061FC3A0021184800F011FA154A77
:1035A0002060D83A0021164800F00AFA114A6060FB
:1035B000B43A0021134800F003FA0E4AA060903A92
:1035C0000021114800F0FCF90A4AE0606C3A002141
:1035D0000E4800F0F5F9206100F040F9FEE7000028
:1035E00000440040C0020020005800402C01002090
:1035F000A0860100CC57000800000020A52F00087D
:1036000059300008B52F0008BD2F00084D300008C4
:1036100001B582B000208DF80000FDF731F8642379
:10362000012202A90648FEF75AFB642301226946DB
:103630000348FEF7A9FAFDF72BF89DF800000EBD30
:10364000D801002008B540F020008DF800008DF86A
:103650000110FDF715F84FF47A730222694603480A
:10366000FEF73DFBFDF714F808BD0000D80100206F
:1036700038B540F0200014460D468DF80000FCF7E8
:10368000FFFF6423012269460648FEF728FBA2B229
:103690004FF47A7329460348FEF721FBFCF7F8FF45
:1036A00038BD0000D801002000B587B007287FD0C2
:1036B00017287CD008210020FFF7C4FF3F210120FC
:1036C000FFF7C0FF03210220FFF7BCFF03210846DC
:1036D000FFF7B8FF03210420FFF7B4FF0221052004
:1036E000FFF7B0FF0E210620FFF7ACFF00210720F7
:1036F000FFF7A8FF00210820FFF7A4FF0021092001
:10370000FFF7A0FF2FA00522D0E90010CDE900109F
:1037100069460A20FFF7ACFF2CA00522D0E9001073
:10372000CDE9021002A90B20FFF7A2FFC3210C2054
:10373000FFF788FFC4210D20FFF784FFC5210E206D
:10374000FFF780FFC6210F20FFF77CFF1DA0052299
:10375000D0E90010CDE9041004A91020FFF788FF7C
:1037600000211120FFF76EFF00211220FFF76AFFF2
:1037700000211320FFF766FF00211420FFF762FFEE
:1037800000211520FFF75EFF00211620FFF75AFFEA
:1037900011211720FFF756FF00211C20FFF752FFD1
:1037A00000211D20FFF74EFF07B000BD00E002E042
:1037B0000021072001E01121172007B05DF804EB7C
:1037C000FFF740BFE7E7E7E7E7000000C2C2C2C279
:1037D000C200000001B5FCF753FF642301226946D3
:1037E0000248FEF77CFAFCF753FF08BDD801002021
:1037F00010B5EFF3058149B9EFF3108131B90849EC
:103800000968022905D1EFF3118111B16FF00504A8
:1038100003E0002408B100F06FFF204610BD000057
:103820008C000020EFF3058058B9EFF3108040B909
:1038300009490868022801D030B109E0EFF311808E
:1038400030B16FF00500704701200860002070471C
:103850004FF0FF30704700008C00002010B5EFF3F0
:10386000058060B9EFF3108048B90B490868022859
:1038700002D0012806D00BE0EFF3118040B16FF0C9
:10388000050010BD0220086000F09EFF002010BD62
:103890004FF0FF3010BD00008C000020F8B514463A
:1038A0004FF00005EFF305826ABBEFF3108252BBC5
:1038B000164A1268022A02D1EFF311821ABB10B322
:1038C00009B3ACB1D4E902326BB1502A1BD32269DF
:1038D000CAB1676900FB01F6B74214D30025009511
:1038E00001F0B9F807E072B9226962B9626952B9A8
:1038F000002201F08CF8050005D00CB1216800E031
:10390000002100F097FE2846F8BD00008C00002042
:10391000F8B5144603460E464FF00005EFF3058058
:10392000E8BBEFF31080D0BB24480068022802D126
:10393000EFF3118098BB93B39E423DD84CB1A06881
:103940000028E06803D0502836D3012002E008B1F7
:1039500032E00020012B05D010B31846A26801F018
:1039600036F820E040B103200090002211460120EB
:10397000A36801F070F804E003220021012001F0A7
:1039800046F8050018D086B100231A46194601F002
:10399000D9F8012809D0284600F060FE00250BE088
:1039A000184600F0F7FF050006D00CB1216800E0D2
:1039B0000021284600F03EFE2846F8BD8C0000207D
:1039C000F0B585B04FEA01034FF00004EFF3058135
:1039D0000394A1BBEFF3108189BB21490968022937
:1039E00002D1EFF3118151BB48B3802618218DF825
:1039F000104004AD42B3176807B13D4697691FB147
:103A000039467F1E382F02D21779FF0702D00020D7
:103A100005B0F0BD576907B1BE08D2F808C0BCF1C7
:103A2000000F0DD0D4685C2C18D312693AB137B1AD
:103A30008DE806103246294601F095FA03900DE014
:103A4000D7685FB912694AB903AACDE90012B2B2C8
:103A5000294601F05BFA012800D003940398D7E7C8
:103A60008C0000202DE9F041134C0F460546666995
:103A70002068001D00F048FC681C07D137B12168A0
:103A8000BDE8F0410D48091D00F0A1BC2068354497
:103A9000B5424560216805D2A068BDE8F041091D26
:103AA00000F07DBC6068091D00F079FC206B854248
:103AB00000D22563BDE8F0813C00002040080020D2
:103AC0002DE9F041054600F08FFC2D4C2069401C8B
:103AD000206120682B4F10B1E06930B32BE02560E6
:103AE0002069012827D1002606EB860007EB80001D
:103AF00000F047FC761C382EF6D3234800F041FC3A
:103B00002148143000F03DFC1F48283000F039FCFB
:103B10001D483C3000F035FC1B48503000F031FCB3
:103B2000194860601430A06005E02068E96AC06A46
:103B3000884200D82560E06A401CE0626864E86A58
:103B4000A169884200D9A06100EB800007EB8000EA
:103B5000291D00F03CFC00F067FCE06900280CD057
:103B60002068E96AC06A884207D208494FF080504D
:103B70000860BFF34F8FBFF36F8FBDE8F081000087
:103B80003C00002090030020F007002004ED00E03E
:103B900038B500F029FC104CA068C8B90F4800F0F7
:103BA000F0FB0E48143000F0ECFB0C4820601430A1
:103BB00060600A4B00202833009003F1500210216E
:103BC0000A2000F048FFA06010B105A100F032FD0E
:103BD000BDE8384000F028BC7800002054080020E0
:103BE000546D72510000000030B4026C0B46002A84
:103BF0000BD0C1681144C1604468A14201D301687F
:103C0000C16030BC1846FCF737BB30BC70472DE9AB
:103C1000F041856B174604460026026C82B1C7B19D
:103C2000E068FCF729FBE168206C091AE160226872
:103C3000914202D26168081AE060022F16D017E0A4
:103C40002068A8B9606801F031FA0646002060607B
:103C50000EE0A068FCF710FB216CA0680844A0608F
:103C60006168884204D32068A06001E005B16D1E40
:103C70006D1CA5633046BDE8F08110B5044690F890
:103C8000590058B101280CD002280FD0502080F3E1
:103C90001188BFF34F8FBFF36F8FFEE7206B00F0EB
:103CA000D7FB2046BDE8104000F0D2BB10BD00009D
:103CB00009480021826902B101210268D26A0AB171
:103CC00000207047054A1268012AF9D80029F7D167
:103CD000016B4069081A70473C00002090030020E7
:103CE00010484FF40051420706D0C01D0D4920F086
:103CF0000700411AC1F500510B4A00230144C2E9F3
:103D000000030839103A21F0070111604B600B6085
:103D10000B1AC0E9001393604FF000405360D0606D
:103D20007047000024100020A0000020204C214EED
:103D300012E000BF00F058FBF068C568281D00F0D5
:103D4000E3FA2069401E2061E068401EE06000F058
:103D50006BFB2846FFF791FFE0680028EAD1164880
:103D60000068012807D915494FF080500860BFF35B
:103D70004F8FBFF36F8F00F003FBFFF799FF02280F
:103D8000D5D300F079FD206B6169884207D25020BD
:103D900080F31188BFF34F8FBFF36F8FFEE7FFF7FC
:103DA00087FF022801D300F0A5FB01F0F9F9BEE777
:103DB0003C0000202C0800209003002004ED00E0CF
:103DC00070B51D46049C51B1C4F80020C4E90F0130
:103DD0000121204600F072FE84F84C5070BD246032
:103DE000F4E72DE9F0470E46DDE9098417468246DF
:103DF00091009946089DA522206BFCF7B4FA6FF05C
:103E00000301206B01EB8701084420F007077807C6
:103E100007D0502080F31188BFF34F8FBFF36F8F0F
:103E2000FEE72218315C82F83410315C11B1401C7D
:103E30001028F6D3002684F84360382D00D33725A8
:103E4000E562C4E91356201D00F0A6FA04F118003B
:103E500000F0A2FA2461C5F138006462A0616665D1
:103E600084F858604A465146384600F03BFA2060D4
:103E7000B8F1000F01D0C8F80040BDE8F08700009D
:103E800030B5114900E011460A688242FBD34B6805
:103E90005C18844203D1406818444860084643686F
:103EA0001C18944209D1084C103C2468A24209D045
:103EB00052681A4442600A6812680260814200D067
:103EC000086030BD0460F9E7A000002070B5002450
:103ED00041600B4D0061914206D8D11A826991422E
:103EE00006D2011D686807E09A4203D2994201D3C5
:103EF000012403E0011D286800F051FA204670BD3E
:103F00007800002010B5044600F06EFAA06B28B1CE
:103F10005FF0000400F088FA204610BD0124F9E7A4
:103F200030B589B0304D55E00498002806DADDE957
:103F30000601059A9047049800284BDB069C6069AF
:103F400010B1201D00F0E0F902A800F0B9F8024617
:103F500004980A283ED2DFE800F00505053D263723
:103F600005053D260598A169034601442046FFF753
:103F7000ADFF00B3616A20468847E069012829D176
:103F8000002000900598A169002342181946204698
:103F900001F098F978B9502080F31188BFF34F8F62
:103FA000BFF36F8FFEE70598A06128B18118134613
:103FB0002046FFF78BFF0DE0502080F31188BFF300
:103FC0004F8FBFF36F8FFEE794F82C0010B9204697
:103FD00000F03EFA002204A9A86800F0C1FE002803
:103FE000A2D109B030BD0000780000202DE9FC41CD
:103FF0000F46054600F040FC01A800F061F80446B9
:10400000019818B101F0CCF8BDE8FC81224EAFB1A7
:1040100070680068A8B30027291B3A46B06800F012
:1040200049FB01F0BDF80028EED11C494FF080504B
:104030000860BFF34F8FBFF36F8FE5E7A542EBD862
:1040400001F0AEF830682746C068C468201D00F053
:104050005BF9E069012810D1A0692B4641193A4665
:104060002046FFF733FF40B1002003460146009091
:104070002A46204601F026F920B1616A2046884789
:10408000C2E707E0502080F31188BFF34F8FBFF3E2
:104090006F8FFEE70127BFE77800002004ED00E006
:1040A00006484168096829B14168C968C968496812
:1040B000016370474FF0FF31FAE700003C00002039
:1040C00070B5054600F088FF064E0446306984420C
:1040D00003D200F009F8012000E00020286020460B
:1040E000346170BD78000020F8B5194D1FE0C0683C
:1040F000C4680668201D00F007F9616A20468847F9
:10410000E069012813D1A0693044B04206D9246186
:104110006060211D286800F042F908E00020034695
:10412000014600903246204601F0CCF838B12868AC
:1041300001680029DBD16968C5E90010F8BD50208D
:1041400080F31188BFF34F8FBFF36F8FFEE700003E
:104150007800002008484068401C4FF0500080F371
:10416000118804D0BFF34F8FBFF36F8FFEE7BFF30B
:104170004F8FBFF36F8FFEE7A8000020074C206829
:10418000016841B1C0680021D0F80000FFF72EFFA0
:10419000FFF7C6FEF3E701210020F7E778000020D3
:1041A0002DE9F041044600F01FF994F9455004F15F
:1041B000240609E0606A48B1304600F0B7FF08B154
:1041C00000F0C8FA6D1E6DB2002DF3DC4FF0FF3623
:1041D00084F8456000F028F900F006F994F944509D
:1041E00004F1100709E0206948B1384600F09EFF4D
:1041F00008B100F0AFFA6D1E6DB2002DF3DC84F84B
:104200004460BDE8F04100F00FB900002DE9F04135
:104210000546002700F030FB314E306808B9FFF743
:104220005FFDF06805424BD1C5B3083568070ED075
:1042300005F00700C0F108000544680707D05020CA
:1042400080F31188BFF34F8FBFF36F8FFEE72DB35D
:104250007068854234D82248103001460C6801E06D
:1042600020460C466168A94202D221680029F7D194
:1042700031688C4224D00768216801606068083783
:10428000411B10290FD96019420708D0502080F334
:104290001188BFF34F8FBFF36F8FFEE710E04160CF
:1042A0006560FFF7EDFD61687068401A7060B26884
:1042B000904200D2B060F06801430020C4E90001E0
:1042C00000F06EFF780707D0502080F31188BFF30D
:1042D0004F8FBFF36F8FFEE73846BDE8F0810000D7
:1042E0009000002010B5031F4FF080741C601B1F4E
:1042F00021F001011960191F024B0B60143940387D
:104300000A6010BD55410008D0E9013201699A6088
:10431000D0E901235A604A68824201D182684A602A
:10432000002202610868401E08600868704710B5E6
:10433000040006D000F058F8A46B00F075F8204691
:1043400010BD502080F31188BFF34F8FBFF36F8FE4
:10435000FEE70000034B036003F15C00086080206F
:10436000106070476C090020044B036003F15C008F
:1043700008604FF48070106070470000C80B002088
:10438000704700F108014FF0FF32C0E90112C1602F
:10439000016100210160704700210161704730B563
:1043A0000B685A1C02D000F1080202E0026904E026
:1043B0002246546825689D42FAD953684B6099603B
:1043C0008A60516008610168491C016030BD426823
:1043D0004A6093688B6093685960916008610168D6
:1043E000491C016070470000502080F31188BFF322
:1043F0004F8FBFF36F8F0A494868401C48600128FF
:104400000CD10848006810F0FF0F07D0502080F34F
:104410001188BFF34F8FBFF36F8FFEE77047000027
:10442000A800002004ED00E00849486828B1401EBB
:10443000486001D180F311887047502080F31188C3
:10444000BFF34F8FBFF36F8FFEE70000A80000207F
:1044500070B5002827D0144DA0F108046168E86801
:10446000014207D1502080F31188BFF34F8FBFF373
:104470006F8FFEE722683AB1502080F31188BFF3B6
:104480004F8FBFF36F8FFEE78143616000F0F4F957
:1044900060686968084468602046FFF7F1FCBDE881
:1044A000704000F07DBE70BD900000200F4810B538
:1044B00001684FF47A72B1FBF2F30D486FF07F445C
:1044C0008360B4FBF3F3C360B1FBF1F32D24B4FBC1
:1044D000F3F303614FF0E020002303618361B1FB3C
:1044E000F2F1491E41610721016110BD3800002031
:1044F000A8000020F1B5394D82B00299E8688142E8
:1045000000D902904FF0E024206920F001002061E2
:10451000A1690298AA68401E02FB0016286986421B
:1045200000D9361A72B6BFF34F8FBFF36F8FFEF705
:104530009DFF98B366610027A761206940F00100E4
:104540002061029800906846FEF783FC009820B135
:10455000BFF34F8F30BFBFF36F8F02A8FEF778FC19
:1045600062B6BFF34F8FBFF36F8F72B6BFF34F8F3B
:10457000BFF36F8F062020612069C00316D5A069A4
:104580002A69311AA868411A491E914201D3814211
:1045900000D9411E61610298401E12E0FFE7A06948
:1045A0006061206940F00100206111E00298AA6872
:1045B000A1695043411AB1FBF2F0431C5343591A0D
:1045C0006161A761216941F00101216100F040F9B9
:1045D000A868401E606162B6FEBD0000A800002011
:1045E00010B5FBF719FE114910280ED300F1E02099
:1045F00090F8F0030A78904207D2502080F3118897
:10460000BFF34F8FBFF36F8FFEE70948006849691A
:1046100000F4E060884207D9502080F31188BFF38E
:104620004F8FBFF36F8FFEE710BD0000A800002082
:104630000CED00E010B5084B002200BF53F83240EB
:104640001CB1521C082AF9D310BD43F8321003EBF9
:10465000C201486010BD00005003002010B50400E6
:104660000AD000F013F894F8460000280CD1204638
:10467000BDE81040FFF7ECBE502080F31188BFF377
:104680004F8FBFF36F8FFEE710BD0000084A002177
:1046900002EBC1035B68834206D1002042F831007F
:1046A00002EBC10148607047491C0829F0D37047EC
:1046B0005003002070B515460E460446FFF794FEE1
:1046C00094F944100020491C01D184F8440094F965
:1046D0004510491C01D184F84500FFF7A5FEA06BE9
:1046E00028B92A46314604F1240000F051F820464A
:1046F000BDE87040FFF754BD10B5020014D00F485C
:10470000806B38B1502080F31188BFF34F8FBFF317
:104710006F8FFEE700F0B0F800211046FFF7A2F916
:1047200000F03EFD002807D105494FF08050086099
:10473000BFF34F8FBFF36F8F10BD00003C00002010
:1047400004ED00E002498A6A0260496941607047ED
:104750003C00002001490120486270473C000020D5
:1047600010B50C4650B1094909681831FFF717FE1A
:104770002046BDE810400121FFF774B9502080F3B6
:104780001188BFF34F8FBFF36F8FFEE73C0000200F
:1047900070B514460D4668B10A4909681831FFF72B
:1047A00016FE0CB14FF0FF3521462846BDE870409B
:1047B000FFF758B9502080F31188BFF34F8FBFF334
:1047C0006F8FFEE73C00002030B587B000240394D3
:1047D00005AA04A903A80494FFF7BCFDDDE90301C1
:1047E0000094CDE90110002315A11748059A00F0A7
:1047F000BAFB164D002868631FD000F033FD012876
:1048000009D0401C19D1502080F31188BFF34F8F7D
:10481000BFF36F8FFEE7502080F31188BFF34F8FF7
:10482000BFF36F8F4FF0FF3028630120E8616C61A8
:1048300007B0BDE8304000F059B807B030BD000007
:1048400049444C45000000002D3D00083C0000207C
:1048500008494A690B6B02449A4207D9502080F3F9
:104860001188BFF34F8FBFF36F8FFEE74A69104483
:10487000486170473C0000200248816B491C8163FD
:10488000704700003C000020164810B5816B11B144
:104890000121416210BD002141628169124A01E09B
:1048A000B9B1491E01EB810352F82330002BF7D038
:1048B00001EB810302EB830202F1080453685B6899
:1048C0005360A34201D15B685360DA680260816182
:1048D00010BD502080F31188BFF34F8FBFF36F8F4F
:1048E000FEE700003C000020900300201CB5264994
:1048F00008780190FF20087008788DF800009DF876
:1049000000009DF8002000F0F000904207D05020F9
:1049100080F31188BFF34F8FBFF36F8FFEE79DF8D1
:1049200000001A4C00F0500020700720606105E084
:104930009DF8002052008DF80020401E9DF80020B8
:104940001206F5D46061032807D0502080F3118847
:10495000BFF34F8FBFF36F8FFEE74FF4407060617E
:10496000019808700A48016841F47001016001680B
:1049700041F070410160FFF799FD00206060FBF796
:1049800015FC00201CBD000000E400E0A800002091
:1049900020ED00E010B50C4648B184420FD95020FC
:1049A00080F31188BFF34F8FBFF36F8FFEE7502066
:1049B00080F31188BFF34F8FBFF36F8FFEE70222A2
:1049C000002100F024F8002800D0846310BD38B521
:1049D0000C4648B184420FD9502080F31188BFF3B0
:1049E0004F8FBFF36F8FFEE7502080F31188BFF326
:1049F0004F8FBFF36F8FFEE7022113460022009115
:104A0000114600F028F8002800D0846338BDF8B5BE
:104A100017460E46050014D0DEB105FB06F05030F7
:104A2000FFF7F4FB04000AD0002084F8460004F1EC
:104A300050023B46314628460094FFF7C1F9204614
:104A4000F8BD502080F31188BFF34F8FBFF36F8FF5
:104A5000FEE70020E3E738B5049D18B153B1CAB1B1
:104A600081B120E0502080F31188BFF34F8FBFF356
:104A70006F8FFEE7502080F31188BFF34F8FBFF395
:104A80006F8FFEE7502080F31188BFF34F8FBFF385
:104A90006F8FFEE739B1502080F31188BFF34F8F3D
:104AA000BFF36F8FFEE750241C46012384F8463085
:104AB0002B460094FFF784F9204638BD70B50D46AB
:104AC000040025D0FFF790FCD4E90F20216802FBF9
:104AD000001161600021A1632168A1600A46D4E948
:104AE0000F01401E00FB0121E16021464FF0FF3025
:104AF00001F8440F487004F110008DB1FFF741FC3C
:104B000004F12400FFF73DFCFFF78EFC012070BD8F
:104B1000502080F31188BFF34F8FBFF36F8FFEE7F4
:104B200021690029F0D000F001FB0028ECD00449F5
:104B30004FF080500860BFF34F8FBFF36F8FE3E7F4
:104B400004ED00E02DE9FF4782B01D468A464FF094
:104B50000008040003D0BAF1000F08D011E0502083
:104B600080F31188BFF34F8FBFF36F8FFEE7206C88
:104B700038B1502080F31188BFF34F8FBFF36F8F90
:104B8000FEE7022D0AD1E06B012807D0502080F308
:104B90001188BFF34F8FBFF36F8FFEE700F00EFA5F
:104BA0003F4F4FF000094FF0805648B9049838B194
:104BB000502080F31188BFF34F8FBFF36F8FFEE754
:104BC000FFF712FCA06BE16B884207D3022D05D0E2
:104BD0000498D0B1B8F1000F1AD01EE02A46514611
:104BE0002046FFF714F8616A19B104F1240000F0BF
:104BF0009DFA20B13E60BFF34F8FBFF36F8FFFF779
:104C000013FC012006B0BDE8F087FFF70DFC22E0A1
:104C10006846FFF797FD4FF00108FFF705FCFFF727
:104C20002BFEFFF7E1FB94F94400401C01D184F80E
:104C3000449094F94500401C01D184F84590FFF759
:104C4000F3FB04A9684600F027F930B12046FFF7CE
:104C5000A7FA00F0A5FA0020D4E7FFF7C5FBA06B88
:104C6000E16B884213D1FFF7DFFB04F110000499D8
:104C7000FFF776FD2046FFF793FA00F091FA00283F
:104C80009ED13E60BFF34F8FBFF36F8F98E7FFF762
:104C9000CBFB2046FFF784FA00F082FA90E7000091
:104CA00004ED00E02DE9F0471F46904689460400D8
:104CB00003D0B9F1000F08D011E0502080F3118823
:104CC000BFF34F8FBFF36F8FFEE7206C38B15020DA
:104CD00080F31188BFF34F8FBFF36F8FFEE7022F72
:104CE0000AD1E06B012807D0502080F31188BFF370
:104CF0004F8FBFF36F8FFEE7FFF772FC5020EFF38B
:104D0000118680F31188BFF34F8FBFF36F8FA06BB5
:104D1000E16B884206D3022F04D0002086F311886D
:104D2000BDE8F08794F945503A4649462046FEF7DB
:104D30006EFF681C04D06D1C84F845500120EDE71F
:104D4000606A0028FAD004F1240000F0EFF900288E
:104D5000F4D0B8F1000FF1D00121C8F80010EDE750
:104D60002DE9F747002683B08A46040003D0BAF144
:104D7000000F08D011E0502080F31188BFF34F8F4F
:104D8000BFF36F8FFEE7206C38B1502080F311889D
:104D9000BFF34F8FBFF36F8FFEE700F00FF9DFF81F
:104DA000F4804FF000094FF0805748B9059838B1AA
:104DB000502080F31188BFF34F8FBFF36F8FFEE752
:104DC000FFF712FBA56BC5B151462046FEF70CFF5D
:104DD0006D1EA563206950B104F1100000F0A6F922
:104DE00028B1C8F80070BFF34F8FBFF36F8FFFF784
:104DF0001BFB012006B0BDE8F087059808B11EB185
:104E000006E0FFF711FB27E06846FFF79BFC012651
:104E1000FFF70AFBFFF730FDFFF7E6FA94F94400CD
:104E2000401C01D184F8449094F94500401C01D104
:104E300084F84590FFF7F8FA05A9684600F02CF8C9
:104E4000002820460AD0FFF7ABF900F0A9F9204668
:104E5000FFF758F80028B3D00020CBE7FFF752F84F
:104E600090B104F124000599FFF77AFC2046FFF782
:104E700097F900F095F90028A2D1C8F80070BFF3A7
:104E80004F8FBFF36F8F9BE72046FFF789F900F044
:104E900087F995E704ED00E02DE9F0410C460500A7
:104EA00011D0C4B1FFF7A0FA174B5A696E68206899
:104EB000911B471C17D02F689B6A9F4219D09642BE
:104EC00017D8012410E0502080F31188BFF34F8FD2
:104ED000BFF36F8FFEE7502080F31188BFF34F8F31
:104EE000BFF36F8FFEE70024FFF79EFA2046BDE870
:104EF000F081884205D9401A20602846FFF722FC3D
:104F0000F1E700202060DCE73C0000202DE9FF5F96
:104F10008346DDE90E87994616468A469000FFF7DC
:104F200075F905001CD05C20FFF770F9040014D05F
:104F30000020256384F85900CDE90240CDE90087BF
:104F40004B46324651465846FEF74BFF2046FEF789
:104F5000B7FD012004B0BDE8F09F2846FFF778FABE
:104F60004FF0FF30F6E7F0B585B0DDE90B640A9D40
:104F7000A6B1DCB15C2700972663022684F859604D
:104F8000002604AFCDE90246CDE90057FEF729FF20
:104F90002046FEF795FD049805B0F0BD502080F343
:104FA0001188BFF34F8FBFF36F8FFEE7502080F360
:104FB0001188BFF34F8FBFF36F8FFEE70548C169BC
:104FC00019B1806B18B10020704701207047022092
:104FD000704700003C000020014840697047000015
:104FE0003C0000202DE9F0412E4C0027A06B40B181
:104FF000206A401C2062606A00B101273846BDE883
:10500000F0816669761C666113D16068006838B10A
:10501000502080F31188BFF34F8FBFF36F8FFEE7EF
:105020006068A1686160A060A06A401CA062FFF790
:1050300037F8206BDFF87080864209D3606800681B
:1050400080B16068C068C568686886420DD2206318
:105050002068C06A00EB800158F821000128CAD9F5
:105060000127C8E74FF0FF30F1E7281DFFF74CF9A3
:10507000A86A18B105F11800FFF746F9E86AA169B6
:10508000884200D9A06100EB800108EB8100291D56
:10509000FFF79DF9E86A2168C96A8842CED30127E3
:1050A000CCE700003C0000209003002070B5040015
:1050B0004FF0000133D01B4D2868844207D05020A8
:1050C00080F31188BFF34F8FBFF36F8FFEE7206D22
:1050D00038B1401E2065E36CE26A9A421FD040B1AD
:1050E0001DE0502080F31188BFF34F8FBFF36F8F07
:1050F000FEE7201DFFF708F9E06CE062C0F1380020
:10510000A061E06AA969884200D9A861064900EB5C
:10511000800001EB8000211DFFF759F901210846AD
:1051200070BD00003C0000209003002070B5C068F6
:10513000C46854B104F118000646FFF7E5F8154DB0
:10514000A86B50B13146144815E0502080F3118807
:10515000BFF34F8FBFF36F8FFEE7201DFFF7D4F82B
:10516000E06AA969884200D9A8610C4900EB800077
:1051700001EB8000211DFFF72AF9E06A2968C96A5E
:10518000884202D901246C6200E00024FEF788FF07
:10519000204670BD3C00002018080020900300202D
:1051A0002DE9F0472C4D00242746A86B38B1FFF7B6
:1051B0001BF9A86B401EA863A86B40B146E05020C5
:1051C00080F31188BFF34F8FBFF36F8FFEE729691C
:1051D000224E0120D1B3A6F5916980463068E0B136
:1051E000F068C46804F11800FFF78EF8201DFFF77F
:1051F0008BF8E06AA969884200D9A86100EB8001B8
:1052000009EB8100211DFFF7E2F8E06A2968C96A0D
:105210008842E3D3C5F82480E0E70CB1FEF740FFF5
:105220002C6A4CB14FEA0806FFF7DCFE00B16E6253
:10523000641EF9D100202862686A38B10849012744
:1052400038070860BFF34F8FBFF36F8FFFF7ECF89D
:105250003846BDE8F08700003C0000201808002018
:1052600004ED00E010B586B0FEF792FC114CA0688A
:10527000B8B100200390049005AA04A903A8FFF781
:1052800073F8DDE9032102208DE8070000230AA15D
:105290000B48059AFFF767FEE06010B106B00120E9
:1052A00010BD502080F31188BFF34F8FBFF36F8F75
:1052B000FEE7000078000020546D722053766300F2
:1052C0007D4100082DE9FF411E46134602000A9D5C
:1052D0004FF0000016D0144CA768002F0FD0CDE976
:1052E00000130292062917DAFFF768FE02284FF032
:1052F00000030FD000226946A068FFF723FC04B02A
:10530000BDE8F081502080F31188BFF34F8FBFF3C9
:105310006F8FFEE72A46EEE700233246694638469D
:10532000FFF7C0FCEBE7000078000020014800F028
:105330005FB900BF0000C07F4FF47F0C1CEAD012A1
:105340001EBF1CEAD11392EA0C0F93EA0C0F00F077
:10535000858090EA010F48BF42F4807240F4000C4F
:1053600041F400002CF07F4120F07F4000B58142E5
:10537000A2EB03020FF2081CACEB504EC0F1000090
:105380009EF800E04FEA4E0E00FB0EFC38BF4900CD
:105390004FEA2C1C02F5FA020CFB0EF34FEACE1E6C
:1053A0004FEA112C4FEAC1210EEB635E42EB224221
:1053B0000EFB0CFC4FEA1C5300FB03114FEA112CAF
:1053C0004FEA01310EFB0CFC4FEADC4C00FB0C11E8
:1053D000C14228BF09184CEB03335DF804EB10EB16
:1053E000410143EBC250B2F57C0F38BF704729D55D
:1053F00012F0F00F1CBF00F1C04000F000407047F9
:10540000008182838485868788898B8C8D8E8F919D
:105410009293959697999A9C9D9FA0A2A3A5A7A8C1
:10542000AAACAEB0B2B3B5B7B9BCBEC0C2C5C7C9ED
:10543000CCCED1D4D7D9DCDFE2E6E9ECF0F3F7FA51
:10544000FE0000004FEA400C0CF1807CBCF17E4F66
:1054500028BF7047B0F1C04000F0C5B890EA010F16
:105460000CEAD11348BF42F48072624538BF6345ED
:1054700007D213F47F0F16D080EA010000F000403D
:10548000704710B500F069F8097EFC3E00F005B8E1
:1054900080EA010000F00040704780EA010000F05F
:1054A000004000F0A0B812F47F0F04BF024870471C
:1054B00080EA010000F097B80000C07F41000B0EA9
:1054C000D3F19E0208D950F400034FEA032323FAD4
:1054D00002F048BF4042704710B500F03EF800BFF0
:1054E00049922480002070476FF0004282EA200039
:1054F00070470000C10DD1F19E0206DB4FEA002388
:1055000043F0004323FA02F07047004207D54FEA08
:105510004001B1F1FE4F02D24FF00000704710B5CC
:1055200000F01BF849922480002070476FEA2000A9
:1055300070470000B0FA80F310FA03F2C3F19D0344
:105540000AD0D90501EB1220530638BF704700F18D
:10555000010008BF20F0010070470EF1020E2EF08E
:10556000030E5EF8044B244204D44FEA4102B2F128
:105570007F4F11D84FEA4003B3F17F4F0CD80ED1C3
:105580004FEAD07CB2F17F4F0CEB4C0C0CF1020CCB
:1055900008BF4CEBD17C04E04FF0080C01E04FEA6F
:1055A000D17C0CEB4C0324FA03F404F00704B4F1AF
:1055B000040C06D20EEB840CBDE810404CF0010C3C
:1055C0006047DFE80CF0070802024FF00040A0F54A
:1055D000800010BD0846420018BFD2F1807288BF1B
:1055E00000F0004010BDFF2141EAD050C0057047D7
:1055F0000CF00F03092B08BF082000F051800A2B84
:105600000BD0082B18BF704708BF1CF0400F0AD002
:105610004FF000004FF0000170471CF0400F18BF22
:105620004FF0004070471CF0100F08D020F070437E
:1056300000F07F4242EAD3014FEA4370704700F026
:10564000604021F07F4242EA000201F07F4040EAE0
:10565000727070474FF0FF0212EAD0521CBF92F0F6
:10566000FF038B42C2BFD14200EBC1507047002AFA
:105670000AD0002B0BD0002900F00040A4BF40F05E
:10568000FE4040F40000704700F0004070474302C5
:105690004FF00B0C18BF4CF0806C7FF447AE704796
:1056A0001CF4801F11D01CF4E02F03D06FEACC3122
:1056B000490070474FF04050EFF3008222F07042F3
:1056C00042EA000282F3008870474FF00000704702
:1056D0005C5800080000000000000000000000000E
:1056E00000000000000200000800000000000000B0
:1056F0000000000018580008000000000000000032
:105700000000000000000000000200001000000087
:1057100000000000000000003C58000800000000ED
:105720000000000000000000000000000002000077
:1057300010000000000000000000000024580008D5
:105740000000000000000000000000000000000059
:10575000000200000800000000000000000000003F
:105760005458000800000000000000000000000085
:10577000000000000002000008000000000000001F
:105780000000000030580008000000000000000089
:105790000000000000000000000000004858000861
:1057A00000000000000000000000000000000000F9
:1057B0000000000088580008000000000000000001
:1057C0000000000000000000000000006858000811
:1057D00000000000000000000000000078580008F1
:1057E00000000000000000000000000001020203B1
:1057F0000405060708090A0B0C0D0E0F1010000017
:105800000000000000000102030406070809000070
:1058100000000102030400005461736B4E524632D3
:10582000340000005461736B494E4132323600003F
:1058300051756575654750494F5243005461736B0C
:10584000436F72650000000051756575654C6F67A8
:10585000000000005461736B4C6F67006465666103
:10586000756C745461736B0053706931547842697C
:105870006E61727953656D00537069325478426974
:105880006E61727953656D005175657565496E611C
:1058900054780000B458000800000020FC0000000C
:1058A00028010008B0590008FC0000208C350000D9
:1058B000440100080000000000000000000000009B
:1058C00000000000000000000000000000000000D8
:1058D00000000000000000000000000000000000C8
:1058E0000100000010000000000000000024F4008F
:1058F00000000000000000000000000000000000A8
:105900000000000000000000000000000000000097
:105910000000000000000000000000000000000087
:105920000000000000000000000000000000000077
:105930000000000000000000000000000000000067
:105940000000000000000000000000000000000057
:105950000000000000000000000000000000000047
:10596000AAAAAAAA0000000000000000000000008F
:105970000000000000000000000000000000000027
:105980000000000000000000000000000000000017
:1059900000000000000000000008014002000000BC
:1059A000000C014000010000000C0140010000005B
:04000005080000ED02
:00000001FF
