:020000040800F2
:10000000E8240020410200080F2A0008F328000815
:100010000D2A0008FF1400085538000800000000F1
:10002000000000000000000000000000A90100081E
:100030008D17000800000000ED010008A53500083C
:100040005B0200085B0200085B0200085B0200081C
:100050005B0200085B0200085B0200085B0200080C
:100060005B0200085B0200085B0200085B020008FC
:100070005B0200085B0200085B0200085B020008EC
:100080005B0200085B0200085B0200085B020008DC
:100090005B0200085B0200085B0200085B020008CC
:1000A0005B0200085B0200085B0200085B020008BC
:1000B0005B0200085B020008313600085B020008A2
:1000C0005B0200085B0200085B0200085B0200089C
:1000D000313100085B0200085B0200085B02000887
:1000E0005B0200085B0200085B02000800F002F8F7
:1000F00000F04AF80AA090E8000C82448344AAF178
:100100000107DA4501D100F03FF8AFF2090EBAE875
:100110000F0013F0010F18BFFB1A43F0010318473B
:10012000085E0000285E0000103A24BF78C878C13D
:10013000FAD8520724BF30C830C144BF04680C60ED
:10014000704700000023002400250026103A28BF35
:1001500078C1FBD8520728BF30C148BF0B60704739
:10016000662905F01285732900F037840020704756
:100170001FB500F06BFC04000020002105F06AFBB5
:10018000E0601FBD10B510BD00F07CFD1146FFF70B
:10019000EFFF03F0B1FB00F09AFD03B4FFF7F2FFAD
:1001A00003BC00F0DDFD0000224B19680868B0E8D0
:1001B000F00F80F30988BFF36F8F4FF0000080F3DA
:1001C00011884EF00D0E70470000000006480068D0
:1001D000006880F3088862B661B6BFF34F8FBFF343
:1001E0006F8F00DF00BF00BF08ED00E0EFF3098074
:1001F000BFF36F8F0F4B1A6820E9F00F106008B53E
:100200004FF0500080F31188BFF34F8FBFF36F8F13
:1002100004F084FD4FF0000080F31188BDE8084031
:1002200019680868B0E8F00F80F30988BFF36F8F92
:10023000704700BF44000020EFF3058070470000C6
:100240000948804709480047FEE7FEE7FEE7FEE76A
:10025000FEE7FEE7FEE7FEE7FEE7FEE704480549A6
:10026000054A064B704700002F360008ED000008D5
:10027000E81E0020E8240020E8200020E8200020DC
:100280000FB4044910B503AA029800F0ABFB10BCF0
:100290005DF814FB3000002070B5044685690068E5
:1002A000C10601D5302600E02026C00707D070BD6A
:1002B000D4E9012130469047206A401C20626D1E1F
:1002C000F6D570BD70B5044685690078C00707D1C2
:1002D00070BDD4E9012120209047206A401C206293
:1002E0006D1EF6D570BD70B50C460546012A05D0C9
:1002F0002878800600D5EA69002302E0012305E0A2
:100300005B1C934202D2E05C0028F9D1A869E61890
:10031000C01AA861286A184428622846FFF7BCFF63
:1003200004E0D5E9012114F8010B9047B442F8D359
:100330002846FFF7C7FF70BD2DE9F0474FF0000AD0
:1003400089460446C0F820A02046E1688847002876
:1003500076D0252806D0D4E901219047206A401C98
:100360002062F1E7E168204600258847C4F81CA018
:1003700006460027C4F818A02A2E09D0304603F0FC
:100380008EFA38B304EB8708303EC8F8186019E0DD
:1003900059F8041B204604EB87029161E168884705
:1003A000012F064618D1E069002820DA25F0200543
:1003B0001DE0D8F8180000EB800006EB4000303854
:1003C000C8F818002046E1688847064603F067FA37
:1003D0000028EED1012F0AD02E2E08D12046E16848
:1003E00088477F1C0646022F45F02005C4DBA06924
:1003F000002803DA404245F00105A061E80701D07A
:1004000025F01005B6B1A6F14100192802D8203612
:1004100045F400654A463146204625604D46FFF7C3
:100420009FFE58B1012806D0ED1D25F0070000F110
:10043000080989E704E005F1040985E730468AE701
:10044000206ABDE8F087032A40F2308010F0030CE8
:1004500000F0158011F8013BBCF1020F624498BF17
:1004600011F801CB00F8013B38BF11F8013BA2F1B4
:10047000040298BF00F801CB38BF00F8013B11F02F
:10048000030300F02580083AC0F0088051F8043BCF
:10049000083A51F804CBA0E80810F5E7121D5CBF3C
:1004A00051F8043B40F8043BAFF30080D20724BF6F
:1004B00011F8013B11F801CB48BF11F8012B24BF03
:1004C00000F8013B00F801CB48BF00F8012B704752
:1004D00010B5203AC0F00B80B1E81850203AA0E8DF
:1004E0001850B1E81850A0E81850BFF4F5AF5FEA13
:1004F000027C24BFB1E81850A0E8185044BF18C9C6
:1005000018C0BDE810405FEA827C24BF51F8043B6C
:1005100040F8043B08BF7047D20728BF31F8023BC0
:1005200048BF11F8012B28BF20F8023B48BF00F854
:10053000012B704702F0FF0343EA032242EA024222
:1005400000F064BA4FF0000200B513469446964698
:10055000203922BFA0E80C50A0E80C50B1F12001D6
:10056000BFF4F7AF090728BFA0E80C5048BF0CC084
:100570005DF804EB890028BF40F8042B08BF7047E2
:1005800048BF20F8022B11F0804F18BF00F8012B54
:10059000704770477047704770472DE9FF4F0C4612
:1005A0001E464FF0FF378BB0D2E90001DDF86080C6
:1005B0000A908A46C1F30A5505B93D46002108460E
:1005C0004FF00000BAF1000F00F4400005DA00EB34
:1005D00080004FF4400101EA50004FEA9059B9F110
:1005E000010F00DDB9460A9850EA4A000ED044F6E1
:1005F0001050A5F2FF3545432F14B8F1000F1ED05F
:100600007542291E1EDDC9F100021CE0B8F1010F80
:100610004FF0000001D0302103E0F24305E0215407
:10062000401CB042FBDB30460022002121540B99D4
:10063000C1F80880C1E900200FB0BDE8F08FBD1BF4
:100640006D1CDEE74A4600DA694206A800F0A0FA0F
:1006500006AB93E8070003AB83E8070050460A990E
:1006600000F085FB8DE80700A0F500501F380090D2
:100670000398002D0ADD42F21F014A460844002378
:1006800003A90390684600F0EEFD09E0A0F50050D4
:100690004A461F38002303A90390684600F0F8FD7E
:1006A0008DE807000004000C03D04FF0FF30410834
:1006B00000E01046B8F1000F03D00022009215466A
:1006C0001EE0751E05D400F0C5F9303262556D1E6E
:1006D000F9D5B3460122084302D000227F1C04E072
:1006E0002078302801D100227F1E002A099784D06B
:1006F0001DE0112D07DA00F0ADF9303262556D1CA6
:1007000050EA0102F5D1084302D00098C8B10EE0CA
:100710000021681E05E0235C625C63542254401E85
:10072000491C8142F7DBAB46A81B401E0990002004
:1007300004F80B000B98099AC0F80880C0E9002B58
:100740007AE711264FF0000857E72DE9F04F884669
:100750000446D21D22F0070191B0D1E90001CDE994
:100760000A0103F078F802460B98C00F01D02D2043
:1007700007E02068810701D52B2002E0202101EA53
:10078000C000032A099001D0072A05DB0346414631
:10079000204600F0BDF90BE12078800601D5E06924
:1007A00000E00620B8F1650F814606D0B8F1660F6B
:1007B00018D0B8F1670F70D131E00020B9F1110FF6
:1007C000009001DB112301E009F101030AAA01A94C
:1007D0000CA8FFF7E2FEDDE90C70002609F1010527
:1007E000834647E001204B4600904FF000470AAA9D
:1007F00001A90CA8FFF7D1FEDDE90DB00C995D460B
:10080000002610B909F101000D18B9EB050003D459
:10081000C0F1FF3609F10105A5EB09002BE0B9F1A4
:10082000010F01DA4FF001090020B9F1110F00901A
:10083000484601DD112300E003460AAA01A90CA8DD
:10084000FFF7ABFEDDE90C704D46002683462078AD
:1008500000070AD4AB4500DA5D4601A8012D04DD8E
:10086000411911F8011C302907D04F4502DA17F160
:10087000040F04DA012082460FE06D1EEEE7002F20
:1008800002DCED1B3E4403E0781CA84200DD7D1C29
:10089000B81B00F1010A4FF000472078000703D48D
:1008A000AA4501DB4FF0FF3A0021B7F1004F0DF1EF
:1008B00043088DF8431024D002202B23002F01DAA7
:1008C0007F422D230A21021EA0F1010000DC5FB14E
:1008D00097FBF1FC97FBF1F201FB1C7C17460CF136
:1008E000300C08F801CDEEE7A8F101000370218873
:1008F000090501D5452100E06521A0F1010800F8B6
:10090000011C09980FA9A1EB0807FF1D00B10120E8
:10091000411901EBEA70A1693844081A401EA06130
:100920002078C00602D42046FFF7B6FC099828B10B
:10093000D4E901219047206A401C20622078C0063B
:1009400022D52046FFF7A8FC1EE0002E04DBB345AD
:1009500002DD01A8805D00E03020D4E9012190474C
:10096000206A401C2062761CAAF101005FEA000A9E
:100970000AD100F06BF8C0680168405CD4E901213D
:100980009047206A401C2062281EA5F10105DCDC8E
:1009900007E0D4E9012118F8010B9047206A401CB8
:1009A0002062381EA7F10107F3DC2046FFF78AFC1E
:1009B000032011B041E610B5436913B1AFF30080D5
:1009C00001E0FFF790FC012010BD127800F1240136
:1009D0000A7000224A700122EDE711684FF0FF32E1
:1009E000E9E70000074B70B50D467B4400F07DF849
:1009F0000446284600F03EF910B14FF0FF3070BDBC
:100A0000204670BDEF2E00004FF000020429C0F018
:100A1000128010F0030C3FF497ADCCF1040CBCF144
:100A2000020F18BF00F8012BA8BF20F8022BA1EB82
:100A30000C01FFF789BD5FEAC17C24BF00F8012BE0
:100A400000F8012B48BF00F8012B704700487047A1
:100A5000A81E002030B5B0F10A024FEA900E71F1E5
:100A600000034EEA817EB0EB0E0061EB91014FEA8C
:100A7000101E4EEA017E10EB0E0041EB11114FEA01
:100A8000102E4EEA016E10EB0E0041EB11214FEAE1
:100A9000104E4EEA014E10EB0E0041EB1141401892
:100AA00041F100014FEAD00040EA41704FEAD10124
:100AB00010EB80054FEA810444EA907444EB010492
:100AC0006D1944EB0404521BA3414FF0000348BFCF
:100AD0000A3200D530BD401C41F1000130BD00009C
:100AE00001694A1C02610878704700B58FB0CDE9F2
:100AF00001310021059105497944CDE903101146E2
:100B00006846FFF719FC0FB000BD0000E5FFFFFFCE
:100B10002DE9F0411F46044603260168072A01F427
:100B2000006004DB08B116A505E016A503E008B1D6
:100B300015A500E015A521F010002060A069C01ED9
:100B4000A0610FB1401EA0612046FFF7A5FB4FB189
:100B5000D4E9012138469047206A401C2062C01C1D
:100B6000206206E0206AFAE7D4E9012115F8010BBA
:100B70009047761EF8D22046FFF7A4FBBDE8F0812F
:100B80004E414E006E616E00494E4600696E660031
:100B90002DE9F047814616468AB0354878440DC89D
:100BA0008DE80D0032487844801C03AC0DC884E801
:100BB0000D0041F69B300844372190FBF1F290FB89
:100BC000F1F5A5F1800501FB12041B3C02D564423E
:100BD000012000E00020DFF898A080460027FA44BA
:100BE000AAF1BE0A0EE0E0070AD03246684607EBDB
:100BF000470101230AEB810100F04AFB8DE8070061
:100C000064107F1C002CEED1194F7F44AE3F19E0D9
:100C1000E80715D007EB04100DF1180A90E80E0054
:100C20008AE80E00C068F04201D198190890324657
:100C3000012306A903A800F02BFB03AB83E8070000
:100C40006D10641C002DE3D14FF00103324669465C
:100C5000B8F1000F03A802D000F005FB01E000F09E
:100C600017FBC9E90001C9F808200AB0BDE8F08700
:100C7000BC520000007B00F08000704700487047C5
:100C8000881E00207546FFF7F9FFAE46050069464D
:100C9000534620F00700854618B020B5FFF7DEFA6E
:100CA000BDE820404FF000064FF000074FF000086D
:100CB0004FF0000B21F00701AC46ACE8C009ACE8EE
:100CC000C009ACE8C009ACE8C0098D46704710B552
:100CD0000446AFF300802046BDE81040FFF75DBA40
:100CE0004FF0013C50F8042B51F8043B9A4221D1BB
:100CF000A2EB0C03934313EACC1317D150F8042B47
:100D000051F8043B9A4215D1A2EB0C03934313EA2A
:100D1000CC130BD150F8042B51F8043B9A4209D163
:100D2000A2EB0C03934313EACC13DBD04FF000008B
:100D3000704700BFD01A01BAB1FA81F101F0180171
:100D400022FA01F0CB40C1F12001DBB2C0B2C01ADF
:100D50002CFA01F3D11A914311EAC311E6D170477D
:100D600001491820ABBEFEE72600020070475FEA8B
:100D7000400C08BF91F0000F4FEA8C234FEAC122CC
:100D800043EA51514FEA1C5018BF00F5F0404FEABA
:100D9000300018BF41F000415FEA6C5C00F0298030
:100DA000BCF1FF3F08BF40F080407047130C06BF06
:100DB00012044FF0100C4FF0000C130E04BF12027F
:100DC0000CF1080C130F04BF12010CF1040C930F6B
:100DD00004BF92000CF1020CD30F04BF52000CF1BF
:100DE000010C11464FF00002A0F11F00A0EB0C0017
:100DF000704711F0004F08BF704731F000413FF4D9
:100E0000D5AF0B0C06BF09044FF0100C4FF0000CCF
:100E10000B0E04BF09020CF1080C0B0F04BF0901F3
:100E20000CF1040C8B0F04BF89000CF1020CCB0FEA
:100E300004BF49000CF1010CCCF12003A0EB0C0025
:100E400022FA03F302FA0CF241EA030100F1010075
:100E5000704720F07F4C80EA030023F07F47ACEB23
:100E6000070303F57C5300F0004003F1FF032DE975
:100E700080494FEA154B09B44FEA144325EA0B4E5B
:100E800024EA03480FF2042606EB132749083E78AC
:100E90005FEA320203FB0667C7F5000707FB06F6A9
:100EA0004FEA54374FEAD64606F1020607FB066CB6
:100EB000CCF1005C4FEA1C472CEA074C07FB06F418
:100EC0000CFB06F504EB15464FEA961634BF0020DE
:100ED0004FF000404FEAD13706FB07FC4FEA1C4CAD
:100EE0000CFB0BF7D21B03FB0CF761EB07010CFBB0
:100EF0000EF7B0EB074072EB17420CFB08F734BF5C
:100F0000A2EB0742B2EB074261EB17414FEA0C44F8
:100F10004FEA910706FB07FC4FEA1C4C0CFB0BF752
:100F2000B0EBC74072EB573203FB0CF734BFA2EBB8
:100F3000C742B2EBC74261EB57310CFB0EF7B0EB87
:100F4000C70072EB57720CFB08F734BFA2EBC70265
:100F5000B2EBC70261EB5771039F4FEA816141EA2F
:100F6000921104EBCC044FEAD1374FEA826206FBC0
:100F700007FC42EA90124FEA80604FEA1C4C0CFBDF
:100F80000BF7D21B03FB0CF761EB07010CFB0EF711
:100F9000B0EB074072EB17420CFB08F734BFA2EB33
:100FA0000742B2EB074261EB17414FEA8C554FEA1B
:100FB000910704EB9C2406FB07FC4FEA1C4C0CFB3E
:100FC0000BF7B0EBC74072EB573203FB0CF734BFA3
:100FD000A2EBC742B2EBC74261EB57310CFB0EF7F5
:100FE000B0EBC70072EB57720CFB08F734BFA2EBF3
:100FF000C702B2EBC70261EB577115EB4C254FEA04
:10100000816141EA92114FEA82624FEAD13742EAA6
:10101000901206FB07FC44F100044FEA80604FEA9F
:101020001C4C0CFB0BF7D21B03FB0CF761EB07010D
:101030000CFB0EF7B0EB074072EB17420CFB08F706
:1010400034BFA2EB0742B2EB074261EB174115EB4D
:101050001C154FEA813141EA92414FEA823242EA5D
:1010600090424FEA80304FEA0C7644F1000448EA9F
:1010700003434EEA0B484FF0000EB2EB080C71EB45
:10108000030724BF624639464EEB0E0E4FF0000BAD
:101090000018524149414BEB0B0BB2EB080C71EBC2
:1010A00003077BF1000B24BF624639464EEB0E0E60
:1010B0004FF0000B0018524149414BEB0B0BB2EBC8
:1010C000080C71EB03077BF1000B24BF6246394625
:1010D0004EEB0E0E51EA020718BF46F0010616EB62
:1010E0000E7655F1000254F1000103D5BDE88901E7
:1010F000BDE80088BDE88901BDE80048B619524145
:1011000041EB0101A3F10103704780807F7E7D7C6C
:101110007B7A7978777676757473727171706F6E89
:101120006E6D6C6C6B6A6A69686867666665646434
:10113000636362616160605F5F5E5E5D5D5C5C5BBE
:101140005B5A5A595958585757565655555554542D
:10115000535352525251515050504F4F4F4E4E4D8B
:101160004D4D4C4C4C4B4B4B4A4A4A4949494848D7
:101170004847474747464646454545444444444317
:1011800043434342424242414141002B9C4630D4BA
:1011900077002BD01CB54FEA370703B44FF010008F
:1011A0004FF01001BAF1000F06D0BCF1000FDCBF08
:1011B00040F0080040F008014FF000000FBCBDE80F
:1011C00010400BF1010BBBF1010F08BF5FEA1707DD
:1011D00022BF12F1010211F101014FF0004143F170
:1011E000000300F0004043EA00007047F9D35708BD
:1011F000D0E746EA064613F1400F4FEA16461FDDD8
:1012000013F1200FDFBF16430A46002120335B4253
:10121000BED0C3F1200746EA064602FA07F74FEAB6
:10122000164646EA0706C3F1200722FA03F201FA3E
:1012300007F721FA03F14FF0000342EA0702A7E79C
:1012400046EA020646EA06464FEA164646EA01061E
:10125000BCBF46EA0646360C4FF000034FF00002D2
:101260004FF0000194E72DE9804C9A46934670B404
:1012700091E8380007C831EA400C48BF34EA430C13
:1012800003D5FFF7E6FDFFF780FFF0BCBDE8008C5B
:101290002DE9804C9A46934670B491E8380007C80F
:1012A00010F0804F08BF13F0804F03D100F005F815
:1012B000FFF76BFFF0BCBDE8008C20F07F4780EAB1
:1012C000030023F07F4C07EB0C03A3F57C5300F0E5
:1012D0000040A3F1FE0392F0000F00F0B38095F000
:1012E000000F00F077802DE901494FEA11404FEAE5
:1012F000144621EA004800FB06FC24EA064708FBE6
:1013000006F607FB08F800FB07F718EB06484CEB5E
:10131000164C4FEA124B18EB07484FEA15464CEBB8
:10132000174022EA0B4E0BFB06FC25EA06470EFB94
:1013300006F607FB0EFE0BFB07F71EEB064E4CEB0B
:10134000164C4FF000061EEB074E4CEB174B18EBFC
:101350000B0840F1000018EB0E0B58EB000840F1B1
:1013600000008F1A4FF000013CBFC943661B14BF39
:10137000B5EB040C00213CBFC943F61B4FEA1744F0
:101380004EEA8E0E27EA04454FEA1C4704FB07622B
:101390002CEA074C05FB07F70CFB05F604FB0CFCDD
:1013A00016EB074642EB174216EB0C4642EB1C428B
:1013B0001BEB060658EB0202414146EA9E0601D5A8
:1013C000BDE80189B619524141EB0101A3F10103C6
:1013D000BDE801894FEA14454FEA114724EA054662
:1013E00021EA074C05FB07F406FB07F70CFB06F1A7
:1013F00005FB0CFC11EB074144EB17444FEA124785
:1014000011EB0C4144EB1C4422EA074C05FB07F2AC
:1014100006FB07F70CFB06F605FB0CFC16EB074674
:1014200042EB174216EB0C4642EB1C456A1854F18E
:10143000000148BF7047B619524141EB0101A3F1C9
:101440000103704795F0000F37D04FEA11424FEA81
:10145000144721EA024624EA074C02FB07F106FB87
:1014600007F70CFB06F402FB0CFC14EB074441EB02
:1014700017414FEA154714EB0C4441EB1C4125EA98
:10148000074C02FB07F506FB07F70CFB06F602FB11
:101490000CFC16EB074645EB174516EB0C4645EBE7
:1014A0001C42121951F1000148BF7047B619524150
:1014B00041EB0101A3F1010370474FEA14454FEAE4
:1014C000114724EA054621EA074C05FB07F106FB14
:1014D00007F70CFB06F24FF0000605FB0CFC12EBC5
:1014E000074241EB174112EB0C4251EB1C4148BF44
:1014F0007047921841EB0101A3F101037047FEE729
:10150000704701F016BD2DE9F04180460F460846B0
:1015100000F044F800283FD0404601F038FD39463D
:10152000404601F0C1FDBE21404601F0EFFD4046BE
:1015300001F01DFD404601F01AFD404601F017FD87
:10154000404601F014FD404601F011FD04467D26A1
:10155000C925404601F01BFD3946404601F0A4FD77
:101560004E21404601F0D2FD3146404601F0CEFD0D
:101570002946404601F0CAFD2146404601F0C6FD1D
:10158000404601F004FD3946404601F08DFD4821FA
:10159000404601F0BBFD0120BDE8F081007828281D
:1015A00001D0002070470120704700002DE9FE4364
:1015B0008046002517460E462C460846FFF7EEFFEC
:1015C000002821D0404601F0B4FC00281CD0404641
:1015D00001F0DDFC3146404601F066FDBE2140468B
:1015E00001F094FD6E46404601F0C1FC3055641C8C
:1015F000E4B2092CF7D30821684601F043FC9DF8BA
:101600000810814202D00020BDE8FE83BDF80040F2
:10161000404601F0BCFC200403D5E043401C84B2EA
:1016200001259DF8040044F30711C0F34110C4F3F1
:101630000222093041EA0216092813D00A2818D0DC
:101640000B2820D00C2825D0164C0026304604F05C
:10165000B1F9214604F046F90DB180F00040386040
:101660000120D1E7C4F3C00004F0BCF94FF0FF3112
:1016700005E0C4F3810004F0B5F96FF0010104F056
:10168000B8FA0446E2E7C4F3420004F0ABF96FF0A5
:101690000201F4E704F00F0004F0A4F96FF0030175
:1016A000EDE7000000007F432DE9F04707461546AF
:1016B0000E460846FFF772FF002857D0384601F063
:1016C00066FC3146384601F0EFFCBE21384601F099
:1016D0001DFD384601F04BFC384601F048FC384609
:1016E00001F045FC8146384601F041FC8046384611
:1016F00001F03DFC0446092D06D00A2D07D00B2D24
:1017000008D00C2D0BD00EE020F0400004E020F0BB
:10171000400006E040F0400020F0200403E040F0EC
:10172000400040F02004384601F031FC3146384694
:1017300001F0BAFC4E21384601F0E8FC4946384633
:1017400001F0E4FC4146384601F0E0FC2146384611
:1017500001F0DCFC384601F01AFC3146384601F055
:10176000A3FC4821384601F0D1FC0120BDE8F087F8
:1017700010B5044601F00BFCCC21204601F0C6FC5C
:101780002046BDE81040442101F0C0BC7047000075
:1017900010B58AB00446242206496846FEF798FE32
:1017A0006A4600210448069402F058FA034908608A
:1017B0000AB010BDBC5D000815370008C800002045
:1017C00010B590F821100024022903D00421816370
:1017D00001243DE001680A6822F00E020A600168F7
:1017E0000A6822F001020A601A4A0168914201D196
:1017F000012121E0174A1432914201D110211BE04E
:10180000144A2832914201D1891515E0114A3C321F
:10181000914201D189140FE00E4A5032914202D117
:101820004FF4803108E00B4A6432914202D14FF408
:10183000801101E04FF08071064A083A51600121A1
:1018400080F82110002180F82010416B01B18847F9
:10185000204610BD0800024070B5044600F008F9AB
:101860000546601C02D004480078044400F000F9EA
:10187000401BA042FAD370BD340000202DE9F84F80
:10188000DFF8B8910024A9F1040B23460F2709F1D2
:10189000040AABF1040EC9E00125A5402A40AA4282
:1018A0007DD1674ED1F804C0ACEB0608B44532D008
:1018B00014DCBCF1030F3AD009DCBCF1000F2AD0D4
:1018C000BCF1010F1CD0BCF1020F31D11DE0BCF105
:1018D000110F17D0BCF1120F2AD119E0B8F5881FEB
:1018E00019D006DCB8F5803F15D0B8F5801F1FD1A0
:1018F00011E0B8F5001F0ED0B8F5041F18D10AE0AA
:10190000CB6815E0CB681B1D12E0CB6808330FE0F5
:10191000CB680C330CE08B682BB1012B4FF0080324
:1019200003D0456104E0042302E0056100E00023E8
:10193000FF2A01D8064601E000F104064FEA8405BB
:1019400001D9A5F12005D6F8008007FA05FC28EAA0
:101950000C0803FA05F548EA0508C6F800804D684A
:10196000ED0062D5374DAE6946F00106AE61AD6956
:1019700024F0030605F001050095334D06EB050C38
:10198000DCF80850A607360F07FA06F825EA08051E
:10199000DFF8B880404503D14FF0000817E044E07D
:1019A000DFF8AC80404502D14FF001080FE0DFF8CE
:1019B000A480404502D14FF0020808E0DFF898808B
:1019C000404502D14FF0030801E04FF0040808FA47
:1019D00006F848EA0508CCF808804D68D9F8006098
:1019E000ED024D4601D5164300E096432E604D684A
:1019F000DAF80060AD02554601D5164300E0964383
:101A00002E604D68DBF80060AD035D4601D51643DE
:101A100000E096432E604D68DEF80060ED037546E9
:101A200001D5164300E096432E60641C0D682A46DB
:101A3000E5407FF431AFBDE8F88F000008040140B5
:101A40000000111000100240000001400008014099
:101A5000000C014000100140001401408068084063
:101A600000D0012070470AB1016170470904FBE70B
:101A700001488068704700003400002002488168F7
:101A8000027811448160704734000020074810B587
:101A9000016841F010010160032000F0A7F80F2059
:101AA00000F006F800F050F8002010BD00200240C1
:101AB00030B505461F4887B0C16941F00401C161D6
:101AC000C06906A900F00400009001A800F036F9F2
:101AD0000498B0B100F052F940001749174AB0FB22
:101AE000F1F11748491E0260416040F2E7320021DF
:101AF000C0E903218160816100F036FD040003D05C
:101B000015E000F03BF9E8E70D4800F097FD040010
:101B10000DD11E2000F03CF8102D07D200222946DE
:101B20001E2000F043F80748056000E0012407B0DC
:101B3000204630BD0010024040420F000008004027
:101B40006C010020380000200F4808B5816941F081
:101B500001018161816901F001010091C16941F0D8
:101B60008051C161C069002200F0805000900F21B7
:101B7000901E00F01BF80548416821F0E06141F03B
:101B80000071416008BD00000010024000000140EB
:101B9000002809DB00F01F0201219140400980006C
:101BA00000F1E020C0F8001170470000F0B40E4BC7
:101BB0001B680C46C3F30223C3F10705042D00D9AB
:101BC0000425191D072901D2002300E0DB1E012690
:101BD00006FA05F1491E214099409E40761E1640A6
:101BE0003143F0BC01F04BBE0CED00E0064900F0C3
:101BF000070208684FF6FF03184040EA0220034A34
:101C000010430860704700000CED00E00000FA058A
:101C10002DE9F0470F46050061D0434E306800F0D3
:101C20000700B84209D2306820F00700384330601E
:101C3000306800F00700B84251D128683B4C81075A
:101C400012D5400703D5606840F4E06060602878F2
:101C5000000703D5606840F4605060606068A96860
:101C600020F0F000084360602878C00728D068683A
:101C7000012810D02168022810D0890700292EDA07
:101C8000616821F0030101436160FFF7F1FE8046C6
:101C900041F288390DE021688903EFE78901EDE71A
:101CA000FFF7E6FEA0EB0801494502D90320BDE895
:101CB000F0876068696800F00C00B0EB810FEFD12D
:101CC000306800F00700B8420BD9306820F00700F8
:101CD00038433060306800F00700B84201D001207E
:101CE000E5E72878400705D56068E96820F4E060FA
:101CF000084360602878000706D56068296920F4E9
:101D0000605040EAC100606000F048F86168084A2D
:101D1000C1F30311515CC8400649086006480068D9
:101D2000FFF7C6FE0020C2E700200240001002407C
:101D3000A25D000840000020380000200F22026051
:101D40000C4A536803F003034360536803F0F00345
:101D50008360536803F4E063C36052684FF4E06348
:101D600003EAD20202610448006800F0070008603C
:101D7000704700000010024000200240044805495E
:101D800000684968044AC1F30221515CC8407047A9
:101D90004000002000100240B25D00080E4A516869
:101DA0000E4801F00C03042B11D0082B0FD10C4866
:101DB000C1F38343C903C05C0AD55168084AC1F323
:101DC0004041921E515C054A5043B0FBF1F0704710
:101DD00004494843704700000010024000127A0096
:101DE000925D000800093D002DE9F84F040070D015
:101DF0002078C04DC00749D06868C0F38100012831
:101E000007D06868C0F38100022809D16868C00360
:101E100006D52868800339D560680028E7D035E00A
:101E20006068B0F5803F0BD010B1B0F5A02F11D095
:101E3000286820F480302860286820F4802002E0A0
:101E4000286840F480302860606890B1FFF710FE89
:101E500006460AE0286840F480202860F0E700BFCA
:101E6000FFF706FE801B642873D828688003F7D527
:101E70000CE0FFF7FDFD064605E000BFFFF7F8FDAB
:101E8000801B6428F0D828688003F7D420789A4E05
:101E900080074FF001094FF0000839D5686810F04D
:101EA0000C0F07D06868C0F38100022809D1686868
:101EB000C00306D42868800714D52069012808D1FA
:101EC00010E02069B0B1C6F80090FFF7D1FD0746D9
:101ED00005E00AE1FFF7CCFDC01B0228C4D8286842
:101EE0008007F7D52868616920F0F80040EAC10052
:101EF00028600DE0C6F80080FFF7BAFD074604E051
:101F0000FFF7B6FDC01B022823D828688007F7D446
:101F1000207800072CD57948A169D9B1C0F8009084
:101F2000FFF7A6FD074604E0FFF7A2FDC01B02284D
:101F30000FD8686A8007F7D571484FF4FA510068E6
:101F4000B0FBF1F0009000BF0098411E0091FAD262
:101F50000EE080E0C0F80080FFF78AFD074604E04D
:101F6000FFF786FDC01B022875D8686A8007F7D482
:101F70002078400760D5E8690027C00008D4E869E8
:101F800040F08050E861E869012700F0805000903F
:101F90005C480168C90513D40168834641F4807127
:101FA0000160FFF765FD824606E000BFFFF760FDB8
:101FB000A0EB0A0064284ED8DBF80000C005F5D578
:101FC000E06801280AD008B1052813D0286A20F05B
:101FD00001002862286A20F0040002E0286A40F02C
:101FE00001002862E06841F2883B98B1FFF740FDAC
:101FF00082460BE0286A40F004002862EEE700BF4A
:10200000FFF736FDA0EB0A0159455AD8286A800728
:10201000F6D50CE0FFF72CFD824605E0FFF728FD22
:10202000A0EB0A0159454CD8286A8007F6D41FB1A5
:10203000E86920F08050E861E06988B36968C1F31D
:102040008101022944D00228C6F8608004D0FFF73D
:102050000FFD044638E034E0FFF70AFD074604E0D0
:10206000FFF706FDC01B02282BD828688001F7D493
:10207000206AB0F5803F05D16868A16820F400307F
:1020800008436860D4E908010843696821F47411C1
:1020900008436860C6F86090FFF7EAFC044606E073
:1020A00025E000BFFFF7E4FC001B022809D82868E0
:1020B0008001F7D51BE000BFFFF7DAFC001B022808
:1020C00002D90320BDE8F88F28688001F4D40EE01F
:1020D0000128F7D06868226A00F48031914204D167
:1020E000616A00F47010884201D00120EAE7002004
:1020F000E8E7000000100240000042428004424233
:102100004000002000700040AFF30080406D704739
:1021100038B50446006842688168C9434B0606D555
:10212000CB0704D1D3435B0601D4216C05E08B07B8
:1021300008D4D3431B0605D4616C01B02046BDE82A
:10214000304008478B0601D54B0646D4D3439B0647
:1021500043D44B060AD494F85130032B3ED0636D20
:1021600043F004036365C36883680093890609D458
:10217000616D41F00101616581680091016821F0A4
:1021800040010160606D002827D02068416821F07F
:10219000E0014160012084F85100900722D02068BE
:1021A000416821F003014160104DE06C40B145638E
:1021B000E06CFFF705FB18B1606D40F04000606512
:1021C000A06C002809D04563A06CFFF7F9FA00283D
:1021D00003D0606D40F04000606538BDC168806824
:1021E000009038BD2046FFF78FFF38BD0933000847
:1021F00070B5040009D0606A002540B125616561B1
:10220000A56294F8510040B10CE0012070BD6068F7
:10221000B0F5827FF4D0E561F2E784F850502046B3
:1022200000F040F8022084F851002068016821F095
:1022300040010160A088218900F4827001F404410A
:102240000843A18901F400610843217C01F00201E7
:102250000843217D01F001010843218B01F4007145
:102260000843217F01F03801084394F8201001F061
:1022700080010843218D01F4005108432168086062
:10228000A069042101EA1040216848602068C16902
:1022900021F40061C1616565012084F851000020CE
:1022A00070BD000030B585B0002400940194029404
:1022B00003940068194988422DD11948C16941F435
:1022C0008041C161C16901F480410491816941F09B
:1022D000080181618069134D00F0080004904FF4FB
:1022E0002040009002200190032003906946284678
:1022F000FFF7C4FA4FF48040CDE900046946284650
:102300000294FFF7BBFA002205212420FFF74EFCC0
:102310002420FFF73DFC05B030BD00000038004030
:1023200000100240000C014070470000F0B590F82A
:1023300050500024012D0CD0012580F8505090F809
:10234000515000264768012D0BD0B7F5827F06D18A
:1023500001E00220F0BD87680FB9042D01D00224EE
:1023600029E0A9B1A2B19BB190F85150042D02D03F
:10237000052580F85150466501638386C3868263D4
:102380008387C387C16829B10D4901640D4904E001
:10239000012410E00C4901640C49416401684A6859
:1023A00042F0E0024A6001680A68520603D40A68F3
:1023B00042F040020A6080F850602046F0BD000004
:1023C0003D3100089D3100086D310008CD31000815
:1023D00030B590F850300024012B0BD0012380F849
:1023E0005030002341B13AB190F85150012D05D041
:1023F00002242FE0022030BD01242BE0032580F8C9
:102400005150436501638286C28683638387C38795
:102410000364C16809B1114900E011494164816850
:10242000B1F5004F09D101680A6822F040020A6044
:1024300001680A6842F480420A6001684A6842F012
:10244000A0024A6001680A68520603D40A6842F092
:1024500040020A6080F85030204630BD3933000811
:102460005933000838B50446012000902046FFF794
:102470004DFE002814D10B48844211D10020009059
:1024800009486946406802F05DFB0098002807D0C3
:1024900006494FF080500860BFF34F8FBFF36F8F36
:1024A00038BD0000CC0000200000002004ED00E05A
:1024B00038B50446012000902046FFF727FE00288B
:1024C00014D10B48844211D100200090094869467C
:1024D000406802F037FB0098002807D006494FF00B
:1024E00080500860BFF34F8FBFF36F8F38BD00007F
:1024F000CC0000200000002004ED00E07047704791
:1025000070B590F83C20012A26D0012480F83C4088
:10251000022280F83D2003685A689D6822F0700608
:102520000A6832435A600D4B02689A4208D0B2F1F1
:10253000804F05D00A4B9A4202D00A4B9A4204D1EE
:10254000496825F080031943916080F83D400021DF
:1025500080F83C10084670BD022070BD002C014080
:10256000000400400008004010B5040003D094F8B7
:102570003D0010B107E0012010BD002084F83C00B0
:10258000204600F01FF8022084F83D00211D20683D
:1025900001F054F8012084F8460084F83E0084F8E5
:1025A0003F0084F8400084F8410084F8420084F839
:1025B000430084F8440084F8450084F83D0000207E
:1025C00010BD000008B500680649884208D10648D9
:1025D000816941F400618161806900F400600090CC
:1025E00008BD0000002C01400010024090F83D1092
:1025F000012901D001207047022180F83D100068B8
:102600000B49884208D0B0F1804F05D00949884273
:1026100002D00949884204D1816801F007010629E6
:1026200003D0016841F00101016000207047000003
:10263000002C0140000400400008004090F83D10CC
:10264000012901D001207047022180F83D10016866
:10265000CA6842F00102CA6000680B49884208D08B
:10266000B0F1804F05D00949884202D0084988421C
:1026700004D1816801F00701062903D0016841F007
:102680000101016000207047002C0140000400405F
:102690000008004070B5044690F83C000025012871
:1026A00017D0012684F83C60022084F83D002068A1
:1026B000826822F0770222F47F4282600868502804
:1026C00038D00DDC20284FD005DC90B3102811D174
:1026D0004AE0022070BD302846D040280AD13BE0B5
:1026E00060282FD070280DD0B0F5805F03D0B0F5F2
:1026F000005F12D0012584F83D60002084F83C0082
:10270000284670BDCB68D1E90121206800F0CCFFDC
:102710002068816841F0770109E0CB68D1E90121A7
:10272000206800F0C1FF2068816841F48041816029
:10273000E1E719E0CA684968206800F0C7FF502146
:10274000206806E0CA684968206800F0D0FF602170
:10275000206800F0B3FFCEE7CA684968206800F03F
:10276000B5FF40212068F4E7226801461046F0E7F3
:10277000704770B50446006801694FF00005C94311
:10278000890715D4C168C943890711D4E91E0161BD
:1027900001202077206880698007204602D0FFF75B
:1027A000E7FF04E000F098F8204600F096F825775F
:1027B00020680169C943490717D4C168C94349075B
:1027C00013D46FF004010161022020772068806932
:1027D00010F4407F204602D0FFF7CAFF04E000F06B
:1027E0007BF8204600F079F8257720680169C94315
:1027F000090716D4C168C943090712D46FF008014C
:102800000161042020772068C0698007204602D03B
:10281000FFF7AEFF04E000F05FF8204600F05DF83F
:10282000257720680169C943C90617D4C168C9431F
:10283000C90613D46FF010010161082020772068C9
:10284000C06910F4407F204602D0FFF791FF04E0FA
:1028500000F042F8204600F040F825772068016932
:10286000C943C90708D1C168C943C90704D1891E32
:102870000161204600F032F820680169C943090669
:1028800009D4C168C943090605D46FF0800101610C
:102890002046FFF733FE20680169C943490609D481
:1028A000C168C943490605D46FF040010161204663
:1028B00000F01EF820680169C94389060BD4C1687D
:1028C000C943890607D46FF0200101612046BDE8A5
:1028D0007040FFF714BE70BD704770470068034931
:1028E000884201D1FFF7CAB87047000000080040D5
:1028F0007047FEE770B586B0002418480094019434
:1029000002940394816941F020018161816901F0A1
:1029100020010491816941F008018161816901F020
:1029200008010491816941F00401816180690C4EC4
:1029300000F0040041F210250490002229463046A0
:10294000FFF791F801200095CDE9010402200390E2
:1029500069463046FEF792FF06B070BD0010024097
:10296000000C01400E4810B50C4901604FF4827113
:10297000416000218160C1604FF400720161C0E9D3
:102980000512C1610162416281620A21C162FFF7E1
:102990002FFC002801D072B6FEE710BD00380040C1
:1029A000CC00002010B586B0002417480094019494
:1029B0000294039404941349059401604721C0E9EB
:1029C00001144FF6FF71C0E9031444618461FFF7FD
:1029D000CBFD08B172B6FEE74FF480500090694617
:1029E0000948FFF757FE08B172B6FEE7049404A940
:1029F00005480594FFF784FD002801D072B6FEE774
:102A000006B010BD002C014024010020FEE7FEE7C7
:102A100031B582B000200E4D8DF8000002464FF413
:102A2000805421462846FFF71EF801236A4602A972
:102A30000848FFF77BFC4FF0FF31012001F034FE26
:102A4000012221462846FFF70EF89DF800003EBD02
:102A5000000C0140CC00002010B504461D2000F001
:102A60008DF840F004011D2000F0AEF91C2000F0AC
:102A700085F840F006011C2000F0A6F90120A070A6
:102A800010BD000070B5254C0546002210212046DF
:102A9000FEF7E9FF012211032046FEF7E4FF0520BF
:102AA000FEF7DAFE0C21002000F08EF95F210420F1
:102AB00000F08AF9032000F0E7F8062000F05EF845
:102AC0000446002000F090F800F0F4F800211D20EA
:102AD00000F07AF900211C2000F076F90020A8709F
:102AE0007021072000F070F94C2000F0B5F8E220CA
:102AF000FFF78EFFE120FFF78BFF00F02DF800209D
:102B000000F03CF820F00101002000F05DF91CB15C
:102B1000FF2C01D0012070BD002070BD000C0140D1
:102B200010B5032000F02AF8401E022801D8012029
:102B300010BD002010BD1FB50446027A02A90A206C
:102B400000F006F9227A02A9102000F001F961785C
:102B5000112000F039F91FBD10B5002000F00EF86B
:102B6000810709D440F00201002000F02DF9BDE8F2
:102B700010400520FEF770BE10BD000071B581B099
:102B8000174D9DF804004FF4805400F01F008DF89D
:102B9000040000208DF80000024621462846FEF77A
:102BA00062FF01236A4601A90E48FFF7BFFB4FF001
:102BB000FF363146012001F077FD01236A46FF21EF
:102BC0000848FFF7B3FB3146012001F06DFD0122FB
:102BD00021462846FEF747FF9DF800007CBD000017
:102BE000000C0140CC00002070B506460620FFF71F
:102BF000C5FF552520F02804022E02D0012E04D056
:102C000006E044F020049B2502E044F0080441253E
:102C10002146062000F0D8F80620FFF7AFFFA042BB
:102C200000D1284670BD70B50D46064602290CD964
:102C3000AC1EE01704EB907020F00300201AC1B224
:102C4000032000F0C1F8357270BD0021032000F0B0
:102C5000BBF80220307270BD0146052000F0B4B808
:102C600070B5064614460D460020FFF787FF290180
:102C700041EA461141EA8411BDE8704020F070003D
:102C80000143002000F0A0B810B504460620FFF76D
:102C900075FF00F0F801032C01D9072003E00120A3
:102CA00000EB4400C0B20143BDE81040062000F034
:102CB0008BB80000F8B55020114D8DF800004FF48E
:102CC0008054002221462846FEF7CDFE01226946A7
:102CD0000C48FFF77DFB4FF0FF363146012001F035
:102CE000E3FC012273210748FFF772FB3146012004
:102CF00001F0DAFC012221462846FEF7B4FEF8BDB9
:102D0000000C0140CC00002070B5104D0E4604466A
:102D1000002210212846FEF7A6FE3146052000F0CD
:102D200053F805222146102000F012F80020FFF78A
:102D300025FF00F0F201002000F046F82846BDE82B
:102D4000704001221021FEF78EBE0000000C0140F1
:102D50002DE9F74181B000208DF800009DF80400B6
:102D6000174D00F01F0040F02000174688468DF8F0
:102D700004004FF48054002221462846FEF773FEDB
:102D800001236A4601A90F48FFF7D0FA4FF0FF363A
:102D90003146012001F088FC3A4641460948FFF7D8
:102DA00017FB3146012001F07FFC01222146284615
:102DB000FEF759FE9DF8000004B0BDE8F081000068
:102DC000000C0140CC00002073B582B000208DF8CB
:102DD00000009DF80800012200F01F0040F02000D4
:102DE000124D8DF80800140321462846FEF73BFEDD
:102DF00001236A4602A90E48FFF798FA4FF0FF3602
:102E00003146012001F050FC012203A90848FFF7D8
:102E1000DFFA3146012001F047FC00222146284616
:102E2000FEF721FE9DF8000004B070BD000C0140CB
:102E3000CC000020044900220B685A6209684A6AE3
:102E40008242FCD970470000240100201FB50021F8
:102E500001910291032103918188009100686946E4
:102E6000FEF70CFD1FBD1FB511210191002102913C
:102E7000032103918188009100686946FEF7FEFCFA
:102E80001FBD000030B50446002011E014F8013BDE
:102E90005FF0080280EA030515F0010F4FEA5000C9
:102EA00001D080F08C005B08521E12F0FF02F1D1BD
:102EB000491EC9B2EAD230BD10B5024600F088F80A
:102EC000BDE81040F021104600F087B800228318BA
:102ED0005B7A8B54521CD2B2082AF8D37047000098
:102EE00070B5044615460E460F48FFF77FFB266077
:102EF000A5802046FFF7B7FF2168A08808614FF43E
:102F00007A752846FEF7A8FCA088216800040861AD
:102F10002846FEF7A1FC2168A08808616800BDE88A
:102F20007040FEF799BC000024010020F02100F061
:102F300054B870B5044680882168002500040861F3
:102F40002046FFF790FF0220FFF774FF2046FFF7AF
:102F50007DFF0A20FFF76EFFA1882068FEF77EFD47
:102F600000B101253220FFF765FF284670BD70B51E
:102F700005460824002006E046082846FFF7D9FF4A
:102F800046EAC010C0B2641EE4B2F5D270BD10B5FE
:102F9000044680882168000408612046FFF763FF2B
:102FA0004FF4F070FFF746FF1420FFF743FF204671
:102FB000FFF74CFF4620FFF73DFFA1882068FEF792
:102FC0004DFD04464FF4CD70FFF734FF204610BD91
:102FD000002181710172C17170472DE9F0470446EB
:102FE0004FF000090125007A88464F462E46CA4612
:102FF000E0BB2046FFF7CBFFC0BB4146204600F0B8
:1030000085F82046FFF795FF80462046FFF791FFA1
:103010004146B8F1010F01D1012830D0804502D0DE
:1030200001290AD017E0A079A8420CD904EB0700C7
:10303000407A304208D04FF0010104EB0700427A99
:1030400042EA06020AE0F6D04FF00001A946092D37
:1030500001D284F80790E019427AB24342722046C6
:1030600000F032F86D1CEDB2700000E013E010F0DB
:10307000FF0602D17F1CFFB20126082FC1D3412DCC
:1030800009D35FEA0900A07101D101202072617AA1
:103090000120002906D184F806A084F808A084F84D
:1030A00007A00020BDE8F08770B50D460646552103
:1030B00000F02CF800243046295D00F027F8641C4D
:1030C000E4B2082CF7D370BD10B504468088020422
:1030D00020680261204649B1FFF7C5FE0A20FFF7CC
:1030E000A9FE2046FFF7B2FE372008E0FFF7BBFE3F
:1030F0004120FFF79FFE2046FFF7A8FE0520FFF7BF
:1031000099FE2046BDE81040FFF7A0BE70B50C4602
:103110000646082506E000BF04F001013046FFF72F
:10312000D3FF64086D1EEDB2F6D270BD70477047D4
:103130000148FEF7EDBF0000CC0000200168C9681F
:10314000826B1180816B891C8163C18F491EC1878D
:10315000C18F002909D101684A6822F040024A6003
:10316000C18E002901D100F049B870470168097B80
:10317000826B1170816B491C8163C18F491EC187AD
:10318000C18F002909D101684A6822F060024A60B3
:10319000C18E002901D100F031B87047016B02687F
:1031A0000988D160016B891C0163C18E491EC186EB
:1031B000C18E002909D101684A6822F080024A6064
:1031C000C18F002901D100F019B87047016B026866
:1031D00009781173016B491C0163C18E491EC186B8
:1031E000C18E002909D101684A6822F080024A6034
:1031F000C18F002901D100F001B8704738B50446ED
:10320000214845F6C0510068B0FBF1F06421484305
:103210000090FEF72DFC02462068416821F0200155
:103220004160009888B1401E009020688068800747
:10323000F7D56421204600F06FF818B1606D40F0BA
:1032400020006065A06828B108E0606D40F02000B3
:103250006065EEE72068C16880680090616D0120BC
:1032600029B184F851002046FEF74EFF38BD94F88E
:10327000511084F851000429204602D0FFF718F9B4
:1032800038BDFFF751F838BD4000002038B504467E
:103290001C4845F6C0510068B0FBF1F0642148437A
:1032A0000090FEF7E5FB024620680099A1B1491E97
:1032B000009181688907F8D5416821F0A00141603B
:1032C0006421204600F028F818B1606D40F020001D
:1032D0006065A06828B108E0616D41F0200161657A
:1032E000EAE72068C16880680090012084F85100F6
:1032F000606D0028204602D0FEF706FF38BDFFF7BC
:10330000B1F838BD4000002010B5406A0021C187E7
:10331000C186FEF7F9FE10BD38B50B460092044693
:103320000022802100F028F8002804D0606D40F0D1
:1033300020006065032038BD016B02680988D160F8
:10334000016B891C0163C18E491EC186C18E002993
:1033500001D1FFF79BBF7047016B026809781173B9
:10336000016B491C0163C18E491EC186C18E0029B3
:1033700001D1FFF78BBF70472DE9F8431E469146F8
:1033800088460446089DFEF773FB401B351AFEF77E
:103390006FFB074625480068C0F3CB30684338E030
:1033A000701C37D0FEF764FBC01BA84203D215B1D6
:1033B000009860B32CE02068416821F0E001416092
:1033C0006068B0F5827F0BD1A068B0F5004F02D0E5
:1033D000B0F5806F04D12068016821F040010160E0
:1033E000A06AB0F5005F09D12068016821F400519E
:1033F00001602068016841F400510160012084F8F7
:103400005100002084F850000320BDE8F883002517
:10341000401E00902068816838EA010004D0002135
:103420004945BDD10020F0E70121F9E74000002027
:103430004FF6FF71002000BF401C8842FBD3F9E724
:103440001FB5084C4FF0FF352A466946E06A01F087
:10345000E9FE029802F01AFA02460B4602A0FCF7B7
:103460000FFFF1E70000002054656D706572617414
:103470007572653A2025352E326620430A00000019
:103480009AB033480023314DE8261A461946406A5F
:1034900001F0BAFD00F0BCFA2EA0FCF7F1FE4FF4EB
:1034A0007A7702E0384600F099FAFFF739FB0028F6
:1034B000F8D029A0FCF7E4FE402107A8FDF742F868
:1034C00001208DF8000020208DF8010000248DF8E7
:1034D000024020466B46191800F10A02CC7088722F
:1034E0008A75D21D401CC0B20A740628F3D3052188
:1034F0001846FFF798FB8DF809406846FFF7C2FAB7
:10350000401EFE2801D21AA100E01AA11BA0FCF760
:10351000B7FE6846FFF7A0FA1320FFF79DFB2A4687
:1035200033466846FFF707FB012211461046FFF7B6
:1035300097FB17A1D1E90001CDE917010A2117A8CE
:10354000FFF7E2FB384600F049FAFBE7E2F0F0E86B
:10355000000000200A0000004E524620436F6E6EAD
:10356000656374206973202D204F4B0A0000000012
:103570004F4B00004E4F54204F4B00004E52462000
:10358000496E6974206973202D2025730A0000009C
:10359000EEDDCCBBAA0000004FF47A74204600F0A8
:1035A0001DFAFBE710B5502080F31188BFF34F8F51
:1035B000BFF36F8F01F078FF18B104494FF08050CE
:1035C0000860002080F3118810BD000004ED00E0C9
:1035D00030B58FB028216846FCF7B4FF14210AA843
:1035E000FCF7B0FF01210804CDE90010002402948B
:1035F00002250491CDE907504FF4E0100990684688
:10360000FEF7F2FB08B172B6FEE70F20CDE90A051E
:103610004FF48060CDE90C4002210AA80E94FEF719
:10362000F7FA002801D072B6FEE70FB030BD704740
:103630000148FFF79EB800006C010020F0B5026859
:10364000164B174C174D4FF08047984205D0B842A3
:1036500003D0A04201D0A84203D122F070064A68EC
:103660003243984205D0B84203D0A04201D0A842CC
:1036700003D122F44074CA6822434C6922F08002CC
:10368000224302608A68C2620A688262984201D15B
:103690000969016301214161F0BD0000002C014076
:1036A000000400400008004010B5846842EA03228C
:1036B00024F47F440A432243826010BD826822F0D2
:1036C00070020A4342F007018160704710B5036A37
:1036D000046A24F001040462846924F0F00444EADA
:1036E000021423F00A020A438461026210BD10B57D
:1036F000036A046A24F010040462846923F0A003BE
:1037000024F4704444EA023243EA01118261016206
:1037100010BD000090B0DFF81C9105264FF4007832
:1037200040F6B83701AD4246494606A8FFF7D8FB38
:10373000002402E0642000F051F9FEF799F9B84244
:10374000F8D306A8FFF7B8FB0DE0642000F046F9B7
:10375000641CE4B205EB041106A81039FFF7B6FBB0
:1037600006A8FFF7E3FB0028EFD10CB1002617E015
:10377000761E16F0FF06D6D114E0322000F02EF9A6
:1037800005EB06170C22394606A8FDF78DFF3220FF
:1037900000F024F9394606A8FDF7B5FE761CF6B20E
:1037A000A642EAD34FF4FA784FF47A79464606A84F
:1037B000FDF7DEFF642000F011F906E00A2000F0BA
:1037C0000DF9761E3604360C24D006A8FDF799FEB6
:1037D0000028F3D0F6B100274FF0FF3BDFF858A0E8
:1037E00015E0484600F0FAF805EB071606F1080266
:1037F000314606A8FDF7DAFE307330B131460023BA
:103800005A46DAF8000001F0FFFB7F1CFFB2A74226
:10381000E7D30AE00020014605E000BF05EB0012F7
:10382000401C1173C0B2A042F8D3484600F0D6F84D
:10383000BCE70000000C01402C00002010B500F097
:103840000FFF002805D0D0E90021BDE81040084650
:10385000104710BDFEE7490050EAC12018BF042000
:103860004A0D18BF40F0010040F2FF72B2EB515F09
:1038700008BF40F00200012808BF05207047090773
:10388000090E002804DB00F1E02080F800147047E6
:1038900000F00F0000F1E02080F8141D7047303870
:1038A0000A2801D2012070470020704709490120F1
:1038B000096809B10020704707494A6A002AF9D10E
:1038C000044A283212680969491E8A42F3D102204B
:1038D000704700007C06002044000020054909686C
:1038E000C90105D54FF060410A68002AFCD0087074
:1038F00070470000FCED00E01020FDF749FFFEF7E7
:10390000C5F8FFF765FEFEF7F5FFFFF72BF8FFF7A9
:1039100049F800F095F82A4800F008F9294CA06110
:103920002748103000F002F9254AE06120320021DA
:10393000012000F03BF9224A2062303200210120B0
:1039400000F034F91E4A022160624032084600F05D
:103950002DF91B4BA062103B002201211A4800F0F8
:10396000CFF9174A6061283A0221102000F0A4F82C
:10397000134A206150321021012000F09DF8104AB6
:10398000E062B83A0021114800F068F90C4A206062
:10399000943A00210E4800F061F9094A6060703ADB
:1039A00000210C4800F05AF9054AA0604C3A002169
:1039B000094800F053F9E06000F05EF8FEE700000F
:1039C000285D0008000000200115000831340008BF
:1039D00081340008993500084134000810B5EFF330
:1039E000058149B9EFF3108131B908490968022905
:1039F00005D1EFF3118111B16FF0050403E000244C
:103A000008B101F06BF8204610BD000094000020C2
:103A100010B5502080F31188BFF34F8FBFF36F8F25
:103A200001F03CFD014605484FF47A720068B0FB96
:103A3000F2F04843002181F3118810BD40000020BE
:103A4000EFF3058058B9EFF3108040B909490868D1
:103A5000022801D030B109E0EFF3118030B16FF0EE
:103A60000500704701200860002070474FF0FF30CC
:103A7000704700009400002010B5EFF3058060B996
:103A8000EFF3108048B90B490868022802D00128DA
:103A900006D00BE0EFF3118040B16FF0050010BDD0
:103AA0000220086001F0DAF8002010BD4FF0FF306E
:103AB00010BD000094000020F8B514464FF000053A
:103AC000EFF305826ABBEFF3108252BB164A12680D
:103AD000022A02D1EFF311821ABB10B309B3ACB1C1
:103AE000D4E902326BB1502A1BD32269CAB167698B
:103AF00000FB01F6B74214D30025009501F00DFA42
:103B000007E072B9226962B9626952B9002201F014
:103B1000E0F9050005D00CB1216800E0002100F0BB
:103B20007BFF2846F8BD00009400002070B50546D4
:103B30004FF00004EFF30580A0BBEFF3108088BBCB
:103B400019480068022802D1EFF3118050BB0DB173
:103B5000686800E00020C10701D0012600E00026CF
:103B600000071FD46DB1D5E9021021B1502819D337
:103B70001EB1042002E020B114E0012001F09CF904
:103B800005E00EB1042000E0012001F08AF90400F4
:103B900008D00DB1296800E0002100F03DFF0EB112
:103BA00044F00104204670BD94000020F8B514468E
:103BB00003460E464FF00005EFF30580E8BBEFF338
:103BC0001080D0BB24480068022802D1EFF3118096
:103BD00098BB93B39E423DD84CB1A0680028E068E2
:103BE00003D0502836D3012002E008B132E0002093
:103BF000012B05D010B31846A26801F032F920E07D
:103C000040B103200090002211460120A36801F07A
:103C100084F904E003220021012001F05AF9050093
:103C200018D086B100231A46194601F0EDF9012893
:103C300009D0284600F004FF00250BE0184601F0EB
:103C4000F3F8050006D00CB1216800E000212846F9
:103C500000F0E2FE2846F8BD94000020F0B585B0E3
:103C60004FEA01034FF00004EFF305810394A1BB79
:103C7000EFF3108189BB21490968022902D1EFF3D2
:103C8000118151BB48B3802618218DF8104004AD36
:103C900042B3176807B13D4697691FB139467F1E89
:103CA000382F02D21779FF0702D0002005B0F0BDEF
:103CB000576907B1BE08D2F808C0BCF1000F0DD09B
:103CC000D4685C2C18D312693AB137B18DE806106C
:103CD0003246294601F0A9FB03900DE0D7685FB991
:103CE00012694AB903AACDE90012B2B2294601F01D
:103CF0006FFB012800D003940398D7E794000020BD
:103D00002DE9FC411C461746884606464FF0000543
:103D1000EFF3058078BBEFF3108060BB17480068B5
:103D2000022802D1EFF3118028BB26B3082000F04F
:103D30002BFC03001FD0B8F1000FC3E9006711D0BE
:103D400001220F4E00208CB1216801B10846A16804
:103D500051B1E468302C0ED3CDE90061012101F0AE
:103D6000FDFC07E00022ECE7E16821B901210096A3
:103D700001F0DAFC05462846BDE8FC8194000020ED
:103D80003D3800082DE9F041134C0F4605466669A1
:103D90002068001D00F0BCFC681C07D137B1216809
:103DA000BDE8F0410D48091D00F003BD2068354411
:103DB000B5424560216805D2A068BDE8F041091D03
:103DC00000F0DFBC6068091D00F0DBFC206B854261
:103DD00000D22563BDE8F08144000020A406002045
:103DE0002DE9F041054600F0F1FC2D4C2069401C06
:103DF000206120682B4F10B1E06930B32BE02560C3
:103E00002069012827D1002606EB860007EB8000F9
:103E100000F0A9FC761C382EF6D3234800F0A3FC52
:103E20002148143000F09FFC1F48283000F09BFC14
:103E30001D483C3000F097FC1B48503000F093FCCC
:103E4000194860601430A06005E02068E96AC06A23
:103E5000884200D82560E06A401CE0626864E86A35
:103E6000A169884200D9A06100EB800007EB8000C7
:103E7000291D00F09EFC00F0C9FCE06900280CD070
:103E80002068E96AC06A884207D208494FF080502A
:103E90000860BFF34F8FBFF36F8FBDE8F081000064
:103EA00044000020F40100205406002004ED00E04E
:103EB00038B500F08BFC104CA068C8B90F4800F072
:103EC00052FC0E48143000F04EFC0C4820601430B8
:103ED00060600A4B00202833009003F1500210214B
:103EE0000A2001F01AF8A06010B105A100F094FDBD
:103EF000BDE8384000F08ABC80000020B8060020F1
:103F0000546D72510000000030B4026C0B46002A60
:103F10000BD0C1681144C1604468A14201D301685B
:103F2000C16030BC1846FCF78EBA30BC70472DE932
:103F3000F041856B174604460026026C82B1C7B17A
:103F4000E068FCF780FAE168206C091AE1602268F9
:103F5000914202D26168081AE060022F16D017E081
:103F60002068A8B9606801F003FB06460020606085
:103F70000EE0A068FCF767FA216CA0680844A06016
:103F80006168884204D32068A06001E005B16D1E1D
:103F90006D1CA5633046BDE8F08110B5044690F86D
:103FA000590058B101280CD002280FD0502080F3BE
:103FB0001188BFF34F8FBFF36F8FFEE7206B00F0C8
:103FC00039FC2046BDE8104000F034BC10BD0000B4
:103FD00009480021826902B101210268D26A0AB14E
:103FE00000207047054A1268012AF9D80029F7D144
:103FF000016B4069081A704744000020F40100205A
:1040000010484FF48051420706D0C01D0D4920F0E2
:104010000700411AC1F580510B4A00230144C2E94F
:1040200000030839103A21F0070111604B600B6062
:104030000B1AC0E9001393604FF000405360D0604A
:1040400070470000880E0020A8000020204C214E60
:1040500012E000BF00F0BAFBF068C568281D00F050
:1040600057FB2069401E2061E068401EE06000F0C0
:10407000CDFB2846FFF791FFE0680028EAD11648FB
:104080000068012807D915494FF080500860BFF338
:104090004F8FBFF36F8F00F065FBFFF799FF02288A
:1040A000D5D300F033FE206B6169884207D25020DF
:1040B00080F31188BFF34F8FBFF36F8FFEE7FFF7D9
:1040C00087FF022801D300F007FC01F0CBFABEE71E
:1040D0004400002090060020F401002004ED00E0E0
:1040E000002807D00021416001600B460A46C160EC
:1040F00000F08ABF7047000070B51D46049C51B1A6
:10410000C4F80020C4E90F010121204600F038FF67
:1041100084F84C5070BD2460F4E72DE9F0470E465A
:10412000DDE909841746824691009946089DA5223B
:10413000206BFCF7FFF96FF00301206B01EB8701A7
:10414000084420F00707780707D0502080F3118833
:10415000BFF34F8FBFF36F8FFEE72218315C82F8F9
:104160003410315C11B1401C1028F6D3002684F8BD
:104170004360382D00D33725E562C4E91356201D6E
:1041800000F0FCFA04F1180000F0F8FA2461C5F11F
:1041900038006462A061666584F858604A465146FA
:1041A000384600F06FFA2060B8F1000F01D0C8F86F
:1041B0000040BDE8F0872DE9F0471E46DDE9089490
:1041C00017460D0080460ED0002C14D0FFF770FE6D
:1041D000C4F80080C4E90657C4E90869201DBDE899
:1041E000F04700F0CBBA502080F31188BFF34F8F17
:1041F000BFF36F8FFEE7BDE8F087000030B51149CF
:1042000000E011460A688242FBD34B685C18844286
:1042100003D1406818444860084643681C1894421B
:1042200009D1084C103C2468A24209D052681A44B3
:1042300042600A6812680260814200D0086030BDA6
:104240000460F9E7A800002070B5002441600B4D20
:104250000061914206D8D11A8269914206D2011DAD
:10426000686807E09A4203D2994201D3012403E02F
:10427000011D286800F085FA204670BD80000020EE
:1042800010B5044600F0A2FAA06B28B15FF000045C
:1042900000F0BCFA204610BD0124F9E730B589B022
:1042A000304D55E00498002806DADDE90601059A4C
:1042B0009047049800284BDB069C606910B1201DD4
:1042C00000F026FA02A800F0B9F8024604980A287D
:1042D0003ED2DFE800F00505053D263705053D2601
:1042E0000598A169034601442046FFF7ADFF00B3DE
:1042F000616A20468847E069012829D100200090A2
:104300000598A169002342181946204601F06EFA6B
:1043100078B9502080F31188BFF34F8FBFF36F8FB0
:10432000FEE70598A06128B1811813462046FFF7E3
:104330008BFF0DE0502080F31188BFF34F8FBFF348
:104340006F8FFEE794F82C0010B9204600F072FA47
:10435000002204A9A86800F065FF0028A2D109B0D6
:1043600030BD0000800000202DE9FC410F460546CD
:1043700000F0CCFC01A800F061F80446019818B1E7
:1043800001F070F9BDE8FC81224EAFB170680068A1
:10439000A8B30027291B3A46B06800F07DFB01F066
:1043A00061F90028EED11C494FF080500860BFF33E
:1043B0004F8FBFF36F8FE5E7A542EBD801F052F9BD
:1043C00030682746C068C468201D00F0A1F9E06984
:1043D000012810D1A0692B4641193A462046FFF723
:1043E00033FF40B100200346014600902A46204694
:1043F00001F0FCF920B1616A20468847C2E707E076
:10440000502080F31188BFF34F8FBFF36F8FFEE70B
:104410000127BFE78000002004ED00E00648416866
:10442000096829B14168C968C9684968016370476A
:104430004FF0FF31FAE700004400002070B5054658
:1044400001F02CF8064E04463069844203D200F095
:1044500009F8012000E0002028602046346170BD8A
:1044600080000020F8B5194D1FE0C068C4680668D8
:10447000201D00F04DF9616A20468847E069012857
:1044800013D1A0693044B04206D924616060211D77
:10449000286800F076F908E0002003460146009005
:1044A0003246204601F0A2F938B128680168002997
:1044B000DBD16968C5E90010F8BD502080F3118890
:1044C000BFF34F8FBFF36F8FFEE700008000002027
:1044D00008484068401C4FF0500080F3118804D019
:1044E000BFF34F8FBFF36F8FFEE7BFF34F8FBFF365
:1044F0006F8FFEE7B0000020074C2068016841B1D3
:10450000C0680021D0F80000FFF72EFFFFF7C6FEBD
:10451000F3E701210020F7E7800000202DE9F041BA
:10452000044600F053F994F9455004F1240609E0DB
:10453000606A48B1304601F05BF808B100F0FCFA5F
:104540006D1E6DB2002DF3DC4FF0FF3684F8456030
:1045500000F05CF900F03AF994F9445004F11007C6
:1045600009E0206948B1384601F042F808B100F08E
:10457000E3FA6D1E6DB2002DF3DC84F84460BDE8F3
:10458000F04100F043B900002DE9F0410546002755
:1045900000F0BCFB314E306808B9FFF731FDF06820
:1045A00005424BD1C5B3083568070ED005F00700AA
:1045B000C0F108000544680707D0502080F3118837
:1045C000BFF34F8FBFF36F8FFEE72DB37068854247
:1045D00034D82248103001460C6801E020460C46D1
:1045E0006168A94202D221680029F7D131688C4262
:1045F00024D007682168016060680837411B1029D2
:104600000FD96019420708D0502080F31188BFF3FA
:104610004F8FBFF36F8FFEE710E041606560FFF7DB
:10462000EDFD61687068401A7060B268904200D217
:10463000B060F06801430020C4E9000101F012F805
:10464000780707D0502080F31188BFF34F8FBFF356
:104650006F8FFEE73846BDE8F0810000980000202B
:1046600010B5040006D000F0B1F8246A00F0CEF8CE
:10467000204610BD502080F31188BFF34F8FBFF349
:104680006F8FFEE710B5031F4FF080741C601B1F77
:1046900021F001011960191F024B0B6014394038D9
:1046A0000A6010BDD144000870B50C46064600F003
:1046B0008DF8154D2868406D80B92968012081F872
:1046C00058005CB101212046FFF75CFB0F494FF019
:1046D00080500860BFF34F8FBFF36F8F00F096F8E4
:1046E00000F074F82868446D002034B116B12968D0
:1046F000486502E02A68611E5165296881F8580002
:1047000000F084F8204670BD4400002004ED00E075
:10471000D0E9013201699A60D0E901235A604A6800
:10472000824201D182684A60002202610868401E0C
:104730000860086870470000034B036003F15C00E9
:104740000860802010607047D0070020044B036091
:1047500003F15C0008604FF4807010607047000047
:104760002C0A0020704700F108014FF0FF32C0E929
:104770000112C160016100210160704700210161E7
:10478000704730B50B685A1C02D000F1080202E0F5
:10479000026904E02246546825689D42FAD95368AC
:1047A0004B6099608A60516008610168491C016032
:1047B00030BD42684A6093688B609368596091602D
:1047C00008610168491C016070470000502080F3B7
:1047D0001188BFF34F8FBFF36F8F0A494868401CA1
:1047E000486001280CD10848006810F0FF0F07D07E
:1047F000502080F31188BFF34F8FBFF36F8FFEE718
:1048000070470000B000002004ED00E0084948684F
:1048100028B1401E486001D180F3118870475020B4
:1048200080F31188BFF34F8FBFF36F8FFEE7000057
:10483000B000002070B5002827D0144DA0F1080466
:104840006168E868014207D1502080F31188BFF306
:104850004F8FBFF36F8FFEE722683AB1502080F38D
:104860001188BFF34F8FBFF36F8FFEE78143616005
:1048700000F04CFA60686968084468602046FFF7F9
:10488000BDFCBDE8704000F0EDBE70BD980000209A
:104890000F4810B501684FF47A72B1FBF2F30D487E
:1048A0006FF07F448360B4FBF3F3C360B1FBF1F3BB
:1048B0002D24B4FBF3F303614FF0E02000230361E8
:1048C0008361B1FBF2F1491E41610721016110BD15
:1048D00040000020B0000020F1B5394D82B00299AF
:1048E000E868814200D902904FF0E024206920F06E
:1048F00001002061A1690298AA68401E02FB00160F
:104900002869864200D9361A72B6BFF34F8FBFF3BB
:104910006F8FFEF7CBFF98B366610027A761206910
:1049200040F001002061029800906846FEF7FFFB0E
:10493000009820B1BFF34F8F30BFBFF36F8F02A835
:10494000FEF7F4FB62B6BFF34F8FBFF36F8F72B603
:10495000BFF34F8FBFF36F8F062020612069C00324
:1049600016D5A0692A69311AA868411A491E9142D0
:1049700001D3814200D9411E61610298401E12E0BC
:10498000FFE7A0696061206940F00100206111E04B
:104990000298AA68A1695043411AB1FBF2F0431C86
:1049A0005343591A6161A761216941F001012161F5
:1049B00000F098F9A868401E606162B6FEBD000074
:1049C000B000002010B5FBF737FC114910280ED3BA
:1049D00000F1E02090F8F0030A78904207D25020CE
:1049E00080F31188BFF34F8FBFF36F8FFEE7094845
:1049F0000068496900F4E060884207D9502080F3DC
:104A00001188BFF34F8FBFF36F8FFEE710BD00001B
:104A1000B00000200CED00E010B5084B002200BFF4
:104A200053F832401CB1521C082AF9D310BD43F888
:104A3000321003EBC201486010BD0000B401002039
:104A400010B504000AD000F013F894F846000028CE
:104A50000CD12046BDE81040FFF7ECBE502080F39B
:104A60001188BFF34F8FBFF36F8FFEE710BD0000BB
:104A7000084A002102EBC1035B68834206D1002093
:104A800042F8310002EBC10148607047491C082917
:104A9000F0D37047B401002070B515460E460446A9
:104AA000FFF794FE94F944100020491C01D184F8CA
:104AB000440094F94510491C01D184F84500FFF7E2
:104AC000A5FEA06B28B92A46314604F1240000F067
:104AD000A9F82046BDE87040FFF720BD10B50200E0
:104AE00014D00F48806B38B1502080F31188BFF389
:104AF0004F8FBFF36F8FFEE700F008F900211046DB
:104B0000FFF740F900F0AEFD002807D105494FF04E
:104B100080500860BFF34F8FBFF36F8F10BD000050
:104B20004400002004ED00E002498A6A02604969FD
:104B300041607047440000200149012048627047ED
:104B4000440000202DE9F0410E46040015D0FFF787
:104B500039FF5020EFF3118580F31188BFF34F8F99
:104B6000BFF36F8F94F85800022184F85810616DDC
:104B7000491C6165012808D032E0502080F311887B
:104B8000BFF34F8FBFF36F8FFEE7A06A38B150209D
:104B900080F31188BFF34F8FBFF36F8FFEE7124F83
:104BA000B86B18B104F1180110480DE0201DFFF793
:104BB000AFFDE06AB969884200D9B8610C4900EBE1
:104BC000800001EB8000211DFFF7F3FDE06A3968EA
:104BD000C96A884204D901200EB1306000E07862D1
:104BE00085F31188BDE8F081440000207C06002098
:104BF000F401002010B50C4650B10949096818317C
:104C0000FFF7BFFD2046BDE810400121FFF7BAB80D
:104C1000502080F31188BFF34F8FBFF36F8FFEE7F3
:104C20004400002070B514460D4668B10A49096871
:104C30001831FFF7BEFD0CB14FF0FF352146284675
:104C4000BDE87040FFF79EB8502080F31188BFF395
:104C50004F8FBFF36F8FFEE74400002030B587B061
:104C60000024039405AA04A903A80494FFF764FD93
:104C7000DDE903010094CDE90110002315A11748D7
:104C8000059A00F0D2FB164D002868631FD000F093
:104C90007DFD012809D0401C19D1502080F31188D6
:104CA000BFF34F8FBFF36F8FFEE7502080F3118863
:104CB000BFF34F8FBFF36F8F4FF0FF30286301209A
:104CC000E8616C6107B0BDE8304000F059B807B04A
:104CD00030BD000049444C45000000004D40000834
:104CE0004400002008494A690B6B02449A4207D9E4
:104CF000502080F31188BFF34F8FBFF36F8FFEE713
:104D00004A69104448617047440000200248816BA2
:104D1000491C81637047000044000020164810B50C
:104D2000816B11B10121416210BD00214162816995
:104D3000124A01E0B9B1491E01EB810352F8233058
:104D4000002BF7D001EB810302EB830202F1080490
:104D500053685B685360A34201D15B685360DA68B3
:104D60000260816110BD502080F31188BFF34F8F26
:104D7000BFF36F8FFEE7000044000020F401002025
:104D80001CB5264908780190FF20087008788DF836
:104D900000009DF800009DF8002000F0F000904217
:104DA00007D0502080F31188BFF34F8FBFF36F8F70
:104DB000FEE79DF800001A4C00F05000207007201C
:104DC000606105E09DF8002052008DF80020401E33
:104DD0009DF800201206F5D46061032807D050200A
:104DE00080F31188BFF34F8FBFF36F8FFEE74FF44F
:104DF00040706061019808700A48016841F47001D0
:104E00000160016841F070410160FFF741FD002041
:104E10006060FBF7DBF900201CBD000000E400E04F
:104E2000B000002020ED00E010B50C4648B18442EF
:104E30000FD9502080F31188BFF34F8FBFF36F8FCE
:104E4000FEE7502080F31188BFF34F8FBFF36F8FC1
:104E5000FEE70222002100F03CF8002800D0846325
:104E600010BD38B50C4648B184420FD9502080F3AC
:104E70001188BFF34F8FBFF36F8FFEE7502080F391
:104E80001188BFF34F8FBFF36F8FFEE702211346E8
:104E900000220091114600F040F8002800D0846301
:104EA00038BD10B502460021012000F012F804467A
:104EB000FFF716F9204610BD38B50B4600220090CA
:104EC0001146012000F029F80446FFF709F92046B1
:104ED00038BDF8B517460E46050014D0DEB105FB07
:104EE00006F05030FFF750FB04000AD0002084F891
:104EF000460004F150023B46314628460094FFF735
:104F0000FBF82046F8BD502080F31188BFF34F8F87
:104F1000BFF36F8FFEE70020E3E738B5049D18B1BB
:104F200053B1CAB181B120E0502080F31188BFF3A2
:104F30004F8FBFF36F8FFEE7502080F31188BFF3D0
:104F40004F8FBFF36F8FFEE7502080F31188BFF3C0
:104F50004F8FBFF36F8FFEE739B1502080F3118878
:104F6000BFF34F8FBFF36F8FFEE750241C46012322
:104F700084F846302B460094FFF7BEF8204638BD33
:104F800070B50D46040025D0FFF720FCD4E90F20B2
:104F9000216802FB001161600021A1632168A1600A
:104FA0000A46D4E90F01401E00FB0121E1602146C1
:104FB0004FF0FF3001F8440F487004F110008DB13C
:104FC000FFF7D1FB04F12400FFF7CDFBFFF71EFC38
:104FD000012070BD502080F31188BFF34F8FBFF3C5
:104FE0006F8FFEE721690029F0D000F001FB002857
:104FF000ECD004494FF080500860BFF34F8FBFF3EF
:105000006F8FE3E704ED00E02DE9FF4782B01D4616
:105010008A464FF00008040003D0BAF1000F08D010
:1050200011E0502080F31188BFF34F8FBFF36F8FD3
:10503000FEE7206C38B1502080F31188BFF34F8F0A
:10504000BFF36F8FFEE7022D0AD1E06B012807D076
:10505000502080F31188BFF34F8FBFF36F8FFEE7AF
:1050600000F00EFA3F4F4FF000094FF0805648B95C
:10507000049838B1502080F31188BFF34F8FBFF3ED
:105080006F8FFEE7FFF7A2FBA06BE16B884207D3AF
:10509000022D05D00498D0B1B8F1000F1AD01EE04F
:1050A0002A4651462046FEF742FF616A19B104F1D3
:1050B000240000F09DFA20B13E60BFF34F8FBFF394
:1050C0006F8FFFF7A3FB012006B0BDE8F087FFF765
:1050D0009DFB22E06846FFF727FD4FF00108FFF730
:1050E00095FBFFF713FEFFF771FB94F94400401C9A
:1050F00001D184F8449094F94500401C01D184F812
:105100004590FFF783FB04A9684600F027F930B10A
:105110002046FFF703FA00F0A5FA0020D4E7FFF7D6
:1051200055FBA06BE16B884213D1FFF76FFB04F1D5
:1051300010000499FFF75EFD2046FFF7EFF900F03D
:1051400091FA00289ED13E60BFF34F8FBFF36F8F5F
:1051500098E7FFF75BFB2046FFF7E0F900F082FAE3
:1051600090E7000004ED00E02DE9F0471F4690466F
:105170008946040003D0B9F1000F08D011E0502097
:1051800080F31188BFF34F8FBFF36F8FFEE7206C62
:1051900038B1502080F31188BFF34F8FBFF36F8F6A
:1051A000FEE7022F0AD1E06B012807D0502080F3E0
:1051B0001188BFF34F8FBFF36F8FFEE7FFF702FC3D
:1051C0005020EFF3118680F31188BFF34F8FBFF3A8
:1051D0006F8FA06BE16B884206D3022F04D00020B2
:1051E00086F31188BDE8F08794F945503A46494660
:1051F0002046FEF79CFE681C04D06D1C84F84550C8
:105200000120EDE7606A0028FAD004F1240000F0E4
:10521000EFF90028F4D0B8F1000FF1D00121C8F85F
:105220000010EDE72DE9F747002683B08A46040019
:1052300003D0BAF1000F08D011E0502080F311889C
:10524000BFF34F8FBFF36F8FFEE7206C38B1502054
:1052500080F31188BFF34F8FBFF36F8FFEE700F02D
:105260000FF9DFF8F4804FF000094FF0805748B98C
:10527000059838B1502080F31188BFF34F8FBFF3EA
:105280006F8FFEE7FFF7A2FAA56BC5B15146204626
:10529000FEF73AFE6D1EA563206950B104F11000BF
:1052A00000F0A6F928B1C8F80070BFF34F8FBFF324
:1052B0006F8FFFF7ABFA012006B0BDE8F0870598C5
:1052C00008B11EB106E0FFF7A1FA27E06846FFF734
:1052D0002BFC0126FFF79AFAFFF718FDFFF776FA85
:1052E00094F94400401C01D184F8449094F945009D
:1052F000401C01D184F84590FFF788FA05A968465B
:1053000000F02CF8002820460AD0FFF707F900F03B
:10531000A9F92046FEF7B4FF0028B3D00020CBE760
:10532000FEF7AEFF90B104F124000599FFF762FC8F
:105330002046FFF7F3F800F095F90028A2D1C8F84D
:105340000070BFF34F8FBFF36F8F9BE72046FFF7CF
:10535000E5F800F087F995E704ED00E02DE9F0416C
:105360000C46050011D0C4B1FFF730FA174B5A694B
:105370006E682068911B471C17D02F689B6A9F425C
:1053800019D0964217D8012410E0502080F31188DC
:10539000BFF34F8FBFF36F8FFEE7502080F311886C
:1053A000BFF34F8FBFF36F8FFEE70024FFF72EFA96
:1053B0002046BDE8F081884205D9401A2060284681
:1053C000FFF7B2FBF1E700202060DCE7440000209B
:1053D0002DE9FF5F8346DDE90E87994616468A462A
:1053E0009000FFF7D1F805001CD05C20FFF7CCF847
:1053F000040014D00020256384F85900CDE9024050
:10540000CDE900874B46324651465846FEF785FEA9
:105410002046FEF7E5FC012004B0BDE8F09F2846D9
:10542000FFF708FA4FF0FF30F6E7F0B585B0DDE999
:105430000B640A9DA6B1DCB15C27009726630226A7
:1054400084F85960002604AFCDE90246CDE9005743
:10545000FEF763FE2046FEF7C3FC049805B0F0BDDE
:10546000502080F31188BFF34F8FBFF36F8FFEE79B
:10547000502080F31188BFF34F8FBFF36F8FFEE78B
:105480000548C16919B1806B18B10020704701202F
:105490007047022070470000440000200148406926
:1054A00070470000440000202DE9F0412E4C0027F9
:1054B000A06B40B1206A401C2062606A00B10127E5
:1054C0003846BDE8F0816669761C666113D1606874
:1054D000006838B1502080F31188BFF34F8FBFF3BD
:1054E0006F8FFEE76068A1686160A060A06A401CE1
:1054F000A062FEF793FF206BDFF87080864209D32D
:105500006068006880B16068C068C5686868864285
:105510000DD220632068C06A00EB800158F821009A
:105520000128CAD90127C8E74FF0FF30F1E7281D4D
:10553000FFF7EEF8A86A18B105F11800FFF7E8F8D0
:10554000E86AA169884200D9A06100EB800108EBFC
:105550008100291DFFF72DF9E86A2168C96A884290
:10556000CED30127CCE7000044000020F401002046
:1055700070B504004FF0000133D01B4D2868844201
:1055800007D0502080F31188BFF34F8FBFF36F8F88
:10559000FEE7206D38B1401E2065E36CE26A9A4256
:1055A0001FD040B11DE0502080F31188BFF34F8F12
:1055B000BFF36F8FFEE7201DFFF7AAF8E06CE062F3
:1055C000C0F13800A061E06AA969884200D9A861E9
:1055D000064900EB800001EB8000211DFFF7E9F890
:1055E0000121084670BD000044000020F4010020A5
:1055F00070B5C068C46854B104F118000646FFF7DE
:1056000087F8154DA86B50B13146144815E050206D
:1056100080F31188BFF34F8FBFF36F8FFEE7201D1C
:10562000FFF776F8E06AA969884200D9A8610C49B9
:1056300000EB800001EB8000211DFFF7BAF8E06A63
:105640002968C96A884202D901246C6200E00024FA
:10565000FEF7E4FE204670BD440000207C060020DA
:10566000F40100202DE9F0472C4D00242746A86BBB
:1056700038B1FFF7ABF8A86B401EA863A86B40B128
:1056800046E0502080F31188BFF34F8FBFF36F8F38
:10569000FEE72969224E0120D1B3A6F59169804623
:1056A0003068E0B1F068C46804F11800FFF730F822
:1056B000201DFFF72DF8E06AA969884200D9A8618A
:1056C00000EB800109EB8100211DFFF772F8E06A11
:1056D0002968C96A8842E3D3C5F82480E0E70CB1A1
:1056E000FEF79CFE2C6A4CB14FEA0806FFF7DCFE81
:1056F00000B16E62641EF9D100202862686A38B178
:105700000849012738070860BFF34F8FBFF36F8F39
:10571000FFF77CF83846BDE8F08700004400002021
:105720007C06002004ED00E02DE9FC4781461E4682
:105730001746884630200A9DFEF726FF04000AD04F
:10574000CDE9005433463A4641464846FEF733FD1C
:10575000002084F82C002046BDE8FC877CB530266C
:10576000DDE90654009644B1CDE90054FEF723FD6F
:10577000012084F82C0020467CBD502080F3118845
:10578000BFF34F8FBFF36F8FFEE7000010B586B0F9
:10579000FEF78EFB114CA068B8B100200390049076
:1057A00005AA04A903A8FEF7D1FFDDE90321022021
:1057B0008DE8070000230AA10B48059AFFF735FE84
:1057C000E06010B106B0012010BD502080F31188B8
:1057D000BFF34F8FBFF36F8FFEE700008000002004
:1057E000546D722053766300F94400082DE9FF419F
:1057F0001E46134602000A9D4FF0000016D0144CBE
:10580000A768002F0FD0CDE900130292062917DAFE
:10581000FFF736FE02284FF000030FD00022694642
:10582000A068FFF7F1FB04B0BDE8F081502080F3E1
:105830001188BFF34F8FBFF36F8FFEE72A46EEE765
:105840000023324669463846FFF78EFCEBE700003E
:105850008000002010B500290AD00878002807D061
:1058600005487844FBF73CFA002801D0002010BD21
:105870000248784410BD0000E6060000DE06000085
:105880000808A0F500114FEA3101704743004FEAC4
:10589000D30C4FEA3C0C43401FBF40070CF1605152
:1058A00013F0FE4F70471CF0006F03D100200CF086
:1058B000004170470CF0004343EA507010B540EAD5
:1058C000CC0000F0A2F800BF000000924FEA0001F7
:1058D000FFF7D6BF4FF000414FF00000A1F50021C7
:1058E0007047000090EA010F48BF81F0004100F1CD
:1058F000DE80421A3CBF801A89184FEAD0524FF01E
:105900007F4C1CEA410FA2EBD15318BF9CEA026FF7
:1059100000F03B804FF0004C4CEA00204CEA0121A3
:1059200021FA03FC10EB0C0C1ED202F1FF325FEAED
:105930001C2040EBC25038BF70471CF07F0F4FEA6D
:10594000400C18BFBCF17F4F38BF7047C3F1200334
:10595000994008BF20F00100BCF17F4F38BF70476D
:10596000A0F1C04000F097B84FEA3C00000A40EBBD
:10597000C25028BF1CF0FF0F4FEA400CE6D018BF02
:10598000BCF17F4F38BF7047EAE79CEA026F05D051
:1059900010EA5C0F08BF00F00040704710B500F03F
:1059A00034F800BF64FBBE3E014800F0F0B800BF11
:1059B0000000C07F10F0004148BF4042B0FA80F3C1
:1059C00010FA03F2C3F19D030BD051EAC35101EB6E
:1059D0001220530638BF704700F1010008BF20F0C5
:1059E00001007047B0FA80F310FA03F2C3F19D038F
:1059F0000AD0D90501EB1220530638BF704700F1D9
:105A0000010008BF20F0010070470EF1020E2EF0D9
:105A1000030E5EF8044B244204D44FEA4102B2F173
:105A20007F4F11D84FEA4003B3F17F4F0CD80ED10E
:105A30004FEAD07CB2F17F4F0CEB4C0C0CF1020C16
:105A400008BF4CEBD17C04E04FF0080C01E04FEABA
:105A5000D17C0CEB4C0324FA03F404F00704B4F1FA
:105A6000040C06D20EEB840CBDE810404CF0010C87
:105A70006047DFE80CF0070802024FF00040A0F595
:105A8000800010BD0846420018BFD2F1807288BF66
:105A900000F0004010BDFF2141EAD050C005704722
:105AA00090EA010F48BF81F000413FF522AF421A52
:105AB00004D882F00042A0EB020011444FEAD05219
:105AC0004FF07F4C1CEA410FA2EBD15318BF9CEA68
:105AD000026F4AD04FF0004C4CEA00204CEA012102
