:020000040800F2
:10000000E82400204D0200089B2C00087F2B0008EC
:10001000992C0008CB160008453E0008000000009F
:10002000000000000000000000000000B501000812
:100030005919000800000000F9010008753B00088C
:1000400067020008670200086702000867020008EC
:1000500067020008670200086702000867020008DC
:1000600067020008670200086702000867020008CC
:1000700067020008670200086702000867020008BC
:1000800067020008670200086702000867020008AC
:10009000670200086702000867020008670200089C
:1000A000670200086702000867020008670200088C
:1000B0006702000867020008013C000867020008A8
:1000C000670200086702000867020008670200086C
:1000D000713500086702000867020008670200081F
:1000E00067020008670200086702000800F002F8D3
:1000F00000F050F80AA090E8000C82448344AAF172
:100100000107DA4501D100F045F8AFF2090EBAE86F
:100110000F0013F0010F18BFFB1A43F0010318473B
:100120003464000054640000103A24BF78C878C1D9
:10013000FAD8520724BF30C830C144BF04680C60ED
:10014000704700000023002400250026103A28BF35
:1001500078C1FBD8520728BF30C148BF0B60704739
:10016000662906F01480642900F0EC80782900F0FC
:100170002581732900F01785002070471FB500F016
:100180004BFD04000020002105F066FEE0601FBD6D
:1001900010B510BD00F05CFE1146FFF7EFFF03F055
:1001A000A3FE00F07AFE03B4FFF7F2FF03BC00F0F9
:1001B000BDFE0000224B19680868B0E8F00F80F31C
:1001C0000988BFF36F8F4FF0000080F311884EF065
:1001D0000D0E70470000000006480068006880F3BC
:1001E000088862B661B6BFF34F8FBFF36F8F00DF31
:1001F00000BF00BF08ED00E0EFF30980BFF36F8F91
:100200000F4B1A6820E9F00F106008B54FF050004E
:1002100080F31188BFF34F8FBFF36F8F05F080F825
:100220004FF0000080F31188BDE8084019680868A5
:10023000B0E8F00F80F30988BFF36F8F704700BFFD
:1002400040000020EFF30580704700000948804718
:1002500009480047FEE7FEE7FEE7FEE7FEE7FEE7A8
:10026000FEE7FEE7FEE7FEE704480549054A064BC0
:1002700070470000FF3B0008ED000008E81E00206A
:10028000E8240020E8200020E82000200FB40449E2
:1002900010B503AA029800F08BFC10BC5DF814FBAB
:1002A0002C00002070B5044685690068C10601D5A0
:1002B000302600E02026C00707D070BDD4E9012118
:1002C00030469047206A401C20626D1EF6D570BDF6
:1002D00070B5044685690078C00707D170BDD4E9C0
:1002E000012120209047206A401C20626D1EF6D517
:1002F00070BD70B50C460546012A05D028788006E9
:1003000000D5EA69002302E0012305E05B1C93426B
:1003100002D2E05C0028F9D1A869E618C01AA861E9
:10032000286A184428622846FFF7BCFF04E0D5E994
:10033000012114F8010B9047B442F8D32846FFF787
:10034000C7FF70BD2DE9F0410646002410687529ED
:10035000314616A510D0AFF30080002802DA4042E3
:1003600013A507E031688A0701D512A502E0490705
:1003700004D511A5012401E0AFF3008000210A2279
:1003800006F1240709E0B0FBF2FCB0FBF2F302FB3C
:100390001C00303078541846491C0028F3D12346FD
:1003A0002A463046BDE8F04100F083B90000000065
:1003B0002D0000002B0000002000000070B5044656
:1003C0000D4621461068AFF300802188090502D54B
:1003D0000F4A7A4402E00E4A7A440E32002104F1B8
:1003E000240305E000F00F060009965D5E54491CE9
:1003F0000028F7D120780023000704D5702D02D003
:1004000009B1022311322046BDE8704000F051B915
:100410000E6000002DE9F0474FF0000A89460446BF
:10042000C0F820A02046E1688847002876D025281B
:1004300006D0D4E901219047206A401C2062F1E7F0
:10044000E168204600258847C4F81CA0064600271E
:10045000C4F818A02A2E09D0304603F018FD38B38E
:1004600004EB8708303EC8F8186019E059F8041BFF
:10047000204604EB87029161E1688847012F064618
:1004800018D1E069002820DA25F020051DE0D8F811
:10049000180000EB800006EB40003038C8F8180068
:1004A0002046E1688847064603F0F1FC0028EED1BB
:1004B000012F0AD02E2E08D12046E16888477F1CE4
:1004C0000646022F45F02005C4DBA069002803DAA8
:1004D000404245F00105A061E80701D025F0100574
:1004E000B6B1A6F14100192802D8203645F40065BE
:1004F0004A463146204625604D46FFF731FE58B149
:10050000012806D0ED1D25F0070000F1080989E754
:1005100004E005F1040985E730468AE7206ABDE872
:10052000F08710B5431C02E010F8011B71B1810780
:10053000FAD14FF0013202C88C1A8C4314EAC2116E
:10054000F9D0C01A0A0603D0C01E10BDC01A10BDD3
:100550000A0401D0801E10BD0902FCD0401E10BD4F
:10056000032A40F2308010F0030C00F0158011F8DF
:10057000013BBCF1020F624498BF11F801CB00F8B7
:10058000013B38BF11F8013BA2F1040298BF00F80B
:1005900001CB38BF00F8013B11F0030300F02580C8
:1005A000083AC0F0088051F8043B083A51F804CBEF
:1005B000A0E80810F5E7121D5CBF51F8043B40F8B5
:1005C000043BAFF30080D20724BF11F8013B11F8C0
:1005D00001CB48BF11F8012B24BF00F8013B00F804
:1005E00001CB48BF00F8012B704710B5203AC0F08E
:1005F0000B80B1E81850203AA0E81850B1E8185024
:10060000A0E81850BFF4F5AF5FEA027C24BFB1E860
:100610001850A0E8185044BF18C918C0BDE81040D1
:100620005FEA827C24BF51F8043B40F8043B08BFDA
:100630007047D20728BF31F8023B48BF11F8012BA1
:1006400028BF20F8023B48BF00F8012B704702F09A
:10065000FF0343EA032242EA024200F0BDBA4FF030
:10066000000200B5134694469646203922BFA0E802
:100670000C50A0E80C50B1F12001BFF4F7AF09070E
:1006800028BFA0E80C5048BF0CC05DF804EB8900FF
:1006900028BF40F8042B08BF704748BF20F8022B42
:1006A00011F0804F18BF00F8012B7047704770475A
:1006B00070472DE9F0470D4699469246044600F1F1
:1006C00024080168880604D5E06921F01001216042
:1006D00000E00120A84201DD471B00E00027A169DE
:1006E0007A1902EB0900081AA0612078C00602D42A
:1006F0002046FFF7D7FD002608E0D4E901211AF8CB
:1007000006009047206A401C761C20624E45F4DBB0
:100710002078C0060AD52046FFF7C4FD06E0D4E9DC
:10072000012130209047206A401C2062381EA7F12A
:100730000107F4DC07E0D4E9012118F8050090472F
:10074000206A401C2062281EA5F10105F3DC20462A
:10075000FFF7BEFD2078000602D50220BDE8F08735
:100760000120FBE770472DE9FF4F0C461E464FF076
:10077000FF378BB0D2E90001DDF860800A908A462D
:10078000C1F30A5505B93D46002108464FF0000067
:10079000BAF1000F00F4400005DA00EB80004FF4DE
:1007A000400101EA50004FEA9059B9F1010F00DD14
:1007B000B9460A9850EA4A000ED044F61050A5F205
:1007C000FF3545432F14B8F1000F1ED07542291E86
:1007D0001EDDC9F100021CE0B8F1010F4FF000006E
:1007E00001D0302103E0F24305E02154401CB04227
:1007F000FBDB30460022002121540B99C1F8088010
:10080000C1E900200FB0BDE8F08FBD1B6D1CDEE715
:100810004A4600DA694206A800F0A0FA06AB93E85F
:10082000070003AB83E8070050460A9900F085FBF8
:100830008DE80700A0F500501F3800900398002DA8
:100840000ADD42F21F014A460844002303A903902F
:10085000684600F0EEFD09E0A0F500504A461F385A
:10086000002303A90390684600F0F8FD8DE8070017
:100870000004000C03D04FF0FF30410800E01046A8
:10088000B8F1000F03D00022009215461EE0751E3D
:1008900005D400F0C5F9303262556D1EF9D5B34666
:1008A0000122084302D000227F1C04E02078302877
:1008B00001D100227F1E002A099784D01DE0112D4E
:1008C00007DA00F0ADF9303262556D1C50EA0102D2
:1008D000F5D1084302D00098C8B10EE00021681E8F
:1008E00005E0235C625C63542254401E491C814233
:1008F000F7DBAB46A81B401E0990002004F80B0054
:100900000B98099AC0F80880C0E9002B7AE71126F5
:100910004FF0000857E72DE9F04F88460446D21DF6
:1009200022F0070191B0D1E90001CDE90A0103F0FD
:100930008AFA02460B98C00F01D02D2007E02068EC
:10094000810701D52B2002E0202101EAC000032A03
:10095000099001D0072A05DB03464146204600F0F6
:10096000BDF90BE12078800601D5E06900E00620A2
:10097000B8F1650F814606D0B8F1660F18D0B8F10E
:10098000670F70D131E00020B9F1110F009001DB49
:10099000112301E009F101030AAA01A90CA8FFF73C
:1009A000E2FEDDE90C70002609F10105834647E00F
:1009B00001204B4600904FF000470AAA01A90CA85D
:1009C000FFF7D1FEDDE90DB00C995D46002610B9A8
:1009D00009F101000D18B9EB050003D4C0F1FF3691
:1009E00009F10105A5EB09002BE0B9F1010F01DACE
:1009F0004FF001090020B9F1110F0090484601DDC8
:100A0000112300E003460AAA01A90CA8FFF7ABFED8
:100A1000DDE90C704D4600268346207800070AD495
:100A2000AB4500DA5D4601A8012D04DD411911F83E
:100A3000011C302907D04F4502DA17F1040F04DA00
:100A4000012082460FE06D1EEEE7002F02DCED1B59
:100A50003E4403E0781CA84200DD7D1CB81B00F179
:100A6000010A4FF000472078000703D4AA4501DBB4
:100A70004FF0FF3A0021B7F1004F0DF143088DF818
:100A8000431024D002202B23002F01DA7F422D2394
:100A90000A21021EA0F1010000DC5FB197FBF1FC0E
:100AA00097FBF1F201FB1C7C17460CF1300C08F8A7
:100AB00001CDEEE7A8F1010003702188090501D5F9
:100AC000452100E06521A0F1010800F8011C09980A
:100AD0000FA9A1EB0807FF1D00B10120411901EB8F
:100AE000EA70A1693844081A401EA0612078C00647
:100AF00002D42046FFF7D6FB099828B1D4E901219A
:100B00009047206A401C20622078C00622D52046EB
:100B1000FFF7C8FB1EE0002E04DBB34502DD01A891
:100B2000805D00E03020D4E901219047206A401C1C
:100B30002062761CAAF101005FEA000A0AD100F0E7
:100B40006BF8C0680168405CD4E901219047206AD5
:100B5000401C2062281EA5F10105DCDC07E0D4E979
:100B6000012118F8010B9047206A401C2062381EB2
:100B7000A7F10107F3DC2046FFF7AAFB032011B021
:100B800041E610B5436913B1AFF3008001E0FFF710
:100B9000B0FB012010BD127800F124010A70002280
:100BA0004A700122EDE711684FF0FF32E9E70000DB
:100BB000074B70B50D467B4400F07DF8044628468F
:100BC00000F03EF910B14FF0FF3070BD204670BD0F
:100BD000133300004FF000020429C0F0128010F01F
:100BE000030C3FF43EADCCF1040CBCF1020F18BF76
:100BF00000F8012BA8BF20F8022BA1EB0C01FFF796
:100C000030BD5FEAC17C24BF00F8012B00F8012B46
:100C100048BF00F8012B704700487047A81E00200D
:100C200030B5B0F10A024FEA900E71F100034EEABE
:100C3000817EB0EB0E0061EB91014FEA101E4EEA8F
:100C4000017E10EB0E0041EB11114FEA102E4EEA1F
:100C5000016E10EB0E0041EB11214FEA104E4EEAEF
:100C6000014E10EB0E0041EB1141401841F1000123
:100C70004FEAD00040EA41704FEAD10110EB800505
:100C80004FEA810444EA907444EB01046D1944EB8B
:100C90000404521BA3414FF0000348BF0A3200D5A1
:100CA00030BD401C41F1000130BD000001694A1C0B
:100CB00002610878704700B58FB0CDE9013100219D
:100CC000059105497944CDE9031011466846FFF7BF
:100CD000A1FB0FB000BD0000E5FFFFFF2DE9F041D3
:100CE0001F46044603260168072A01F4006004DB5E
:100CF00008B116A505E016A503E008B115A500E0AA
:100D000015A521F010002060A069C01EA0610FB1E0
:100D1000401EA0612046FFF7C5FA4FB1D4E901217A
:100D200038469047206A401C2062C01C206206E0C2
:100D3000206AFAE7D4E9012115F8010B9047761EE5
:100D4000F8D22046FFF7C4FABDE8F0814E414E00CC
:100D50006E616E00494E4600696E66002DE9F047EF
:100D6000814616468AB0354878440DC88DE80D0096
:100D700032487844801C03AC0DC884E80D0041F66D
:100D80009B300844372190FBF1F290FBF1F5A5F17F
:100D9000800501FB12041B3C02D56442012000E0E7
:100DA0000020DFF898A080460027FA44AAF1BE0A86
:100DB0000EE0E0070AD03246684607EB4701012300
:100DC0000AEB810100F04AFB8DE8070064107F1CEC
:100DD000002CEED1194F7F44AE3F19E0E80715D043
:100DE00007EB04100DF1180A90E80E008AE80E00D7
:100DF000C068F04201D1981908903246012306A933
:100E000003A800F02BFB03AB83E807006D10641C04
:100E1000002DE3D14FF0010332466946B8F1000FCF
:100E200003A802D000F005FB01E000F017FBC9E9C0
:100E30000001C9F808200AB0BDE8F0871C5700007F
:100E4000007B00F08000704700487047881E00203B
:100E50007546FFF7F9FFAE4605006946534620F098
:100E60000700854618B020B5FFF7FEF9BDE8204021
:100E70004FF000064FF000074FF000084FF0000B56
:100E800021F00701AC46ACE8C009ACE8C009ACE809
:100E9000C009ACE8C0098D46704710B50446AFF3F1
:100EA00000802046BDE81040FFF77DB94FF0013CBF
:100EB00050F8042B51F8043B9A4221D1A2EB0C03C9
:100EC000934313EACC1317D150F8042B51F8043B89
:100ED0009A4215D1A2EB0C03934313EACC130BD126
:100EE00050F8042B51F8043B9A4209D1A2EB0C03B1
:100EF000934313EACC13DBD04FF00000704700BFE0
:100F0000D01A01BAB1FA81F101F0180122FA01F008
:100F1000CB40C1F12001DBB2C0B2C01A2CFA01F300
:100F2000D11A914311EAC311E6D170470149182043
:100F3000ABBEFEE72600020070475FEA400C08BF28
:100F400091F0000F4FEA8C234FEAC12243EA51513E
:100F50004FEA1C5018BF00F5F0404FEA300018BFB0
:100F600041F000415FEA6C5C00F02980BCF1FF3F7A
:100F700008BF40F080407047130C06BF12044FF0CA
:100F8000100C4FF0000C130E04BF12020CF1080CF1
:100F9000130F04BF12010CF1040C930F04BF920055
:100FA0000CF1020CD30F04BF52000CF1010C1146DE
:100FB0004FF00002A0F11F00A0EB0C00704711F0F1
:100FC000004F08BF704731F000413FF4D5AF0B0C24
:100FD00006BF09044FF0100C4FF0000C0B0E04BFBD
:100FE00009020CF1080C0B0F04BF09010CF1040CF1
:100FF0008B0F04BF89000CF1020CCB0F04BF49001A
:101000000CF1010CCCF12003A0EB0C0022FA03F34D
:1010100002FA0CF241EA030100F10100704720F0EE
:101020007F4C80EA030023F07F47ACEB070303F516
:101030007C5300F0004003F1FF032DE980494FEAA3
:10104000154B09B44FEA144325EA0B4E24EA034832
:101050000FF2042606EB132749083E785FEA3202B6
:1010600003FB0667C7F5000707FB06F64FEA543790
:101070004FEAD64606F1020607FB066CCCF1005C8F
:101080004FEA1C472CEA074C07FB06F40CFB06F55D
:1010900004EB15464FEA961634BF00204FF000408F
:1010A0004FEAD13706FB07FC4FEA1C4C0CFB0BF751
:1010B000D21B03FB0CF761EB07010CFB0EF7B0EB47
:1010C000074072EB17420CFB08F734BFA2EB074254
:1010D000B2EB074261EB17414FEA0C444FEA91072C
:1010E00006FB07FC4FEA1C4C0CFB0BF7B0EBC740B0
:1010F00072EB573203FB0CF734BFA2EBC742B2EBE3
:10110000C74261EB57310CFB0EF7B0EBC70072EB37
:1011100057720CFB08F734BFA2EBC702B2EBC70251
:1011200061EB5771039F4FEA816141EA921104EB31
:10113000CC044FEAD1374FEA826206FB07FC42EA51
:1011400090124FEA80604FEA1C4C0CFB0BF7D21B4D
:1011500003FB0CF761EB07010CFB0EF7B0EB07404C
:1011600072EB17420CFB08F734BFA2EB0742B2EB5D
:10117000074261EB17414FEA8C554FEA910704EBA8
:101180009C2406FB07FC4FEA1C4C0CFB0BF7B0EB56
:10119000C74072EB573203FB0CF734BFA2EBC742D8
:1011A000B2EBC74261EB57310CFB0EF7B0EBC70057
:1011B00072EB57720CFB08F734BFA2EBC702B2EB1D
:1011C000C70261EB577115EB4C254FEA816141EA8B
:1011D00092114FEA82624FEAD13742EA901206FB3F
:1011E00007FC44F100044FEA80604FEA1C4C0CFB02
:1011F0000BF7D21B03FB0CF761EB07010CFB0EF79F
:10120000B0EB074072EB17420CFB08F734BFA2EBC0
:101210000742B2EB074261EB174115EB1C154FEA91
:10122000813141EA92414FEA823242EA90424FEAEA
:1012300080304FEA0C7644F1000448EA03434EEA5A
:101240000B484FF0000EB2EB080C71EB030724BF04
:10125000624639464EEB0E0E4FF0000B001852411D
:1012600049414BEB0B0BB2EB080C71EB03077BF125
:10127000000B24BF624639464EEB0E0E4FF0000BBA
:101280000018524149414BEB0B0BB2EB080C71EBD0
:1012900003077BF1000B24BF624639464EEB0E0E6E
:1012A00051EA020718BF46F0010616EB0E7655F11B
:1012B000000254F1000103D5BDE88901BDE80088B2
:1012C000BDE88901BDE80048B619524141EB010172
:1012D000A3F10103704780807F7E7D7C7B7A7978E3
:1012E000777676757473727171706F6E6E6D6C6CEB
:1012F0006B6A6A696868676666656464636362618D
:101300006160605F5F5E5E5D5D5C5C5B5B5A5A590D
:101310005958585757565655555554545353525279
:101320005251515050504F4F4F4E4E4D4D4D4C4CD1
:101330004C4B4B4B4A4A4A4949494848484747471A
:101340004746464645454544444444434343434257
:10135000424242414141002B9C4630D477002BD081
:101360001CB54FEA370703B44FF010004FF01001DF
:10137000BAF1000F06D0BCF1000FDCBF40F008004E
:1013800040F008014FF000000FBCBDE810400BF129
:10139000010BBBF1010F08BF5FEA170722BF12F173
:1013A000010211F101014FF0004143F1000300F08F
:1013B000004043EA00007047F9D35708D0E746EAF7
:1013C000064613F1400F4FEA16461FDD13F1200FBA
:1013D000DFBF16430A46002120335B42BED0C3F173
:1013E000200746EA064602FA07F74FEA164646EA9B
:1013F0000706C3F1200722FA03F201FA07F721FAE0
:1014000003F14FF0000342EA0702A7E746EA0206AB
:1014100046EA06464FEA164646EA0106BCBF46EAD9
:101420000646360C4FF000034FF000024FF000016B
:1014300094E72DE9804C9A46934670B491E83800C1
:1014400007C831EA400C48BF34EA430C03D5FFF724
:10145000E6FDFFF780FFF0BCBDE8008C2DE9804C75
:101460009A46934670B491E8380007C810F0804F50
:1014700008BF13F0804F03D100F005F8FFF76BFFB2
:10148000F0BCBDE8008C20F07F4780EA030023F029
:101490007F4C07EB0C03A3F57C5300F00040A3F155
:1014A000FE0392F0000F00F0B38095F0000F00F003
:1014B00077802DE901494FEA11404FEA144621EAAD
:1014C000004800FB06FC24EA064708FB06F607FB7B
:1014D00008F800FB07F718EB06484CEB164C4FEAF0
:1014E000124B18EB07484FEA15464CEB174022EA1F
:1014F0000B4E0BFB06FC25EA06470EFB06F607FB28
:101500000EFE0BFB07F71EEB064E4CEB164C4FF096
:1015100000061EEB074E4CEB174B18EB0B0840F187
:10152000000018EB0E0B58EB000840F100008F1A7A
:101530004FF000013CBFC943661B14BFB5EB040C60
:1015400000213CBFC943F61B4FEA17444EEA8E0EFA
:1015500027EA04454FEA1C4704FB07622CEA074CC4
:1015600005FB07F70CFB05F604FB0CFC16EB074626
:1015700042EB174216EB0C4642EB1C421BEB0606F5
:1015800058EB0202414146EA9E0601D5BDE80189B9
:10159000B619524141EB0101A3F10103BDE80189F4
:1015A0004FEA14454FEA114724EA054621EA074C61
:1015B00005FB07F406FB07F70CFB06F105FB0CFC2B
:1015C00011EB074144EB17444FEA124711EB0C4172
:1015D00044EB1C4422EA074C05FB07F206FB07F725
:1015E0000CFB06F605FB0CFC16EB074642EB17421C
:1015F00016EB0C4642EB1C456A1854F1000148BF3B
:101600007047B619524141EB0101A3F10103704744
:1016100095F0000F37D04FEA11424FEA144721EA04
:10162000024624EA074C02FB07F106FB07F70CFB16
:1016300006F402FB0CFC14EB074441EB17414FEAA4
:10164000154714EB0C4441EB1C4125EA074C02FB07
:1016500007F506FB07F70CFB06F602FB0CFC16EB86
:10166000074645EB174516EB0C4645EB1C42121995
:1016700051F1000148BF7047B619524141EB0101D9
:10168000A3F1010370474FEA14454FEA114724EADA
:10169000054621EA074C05FB07F106FB07F70CFBA3
:1016A00006F24FF0000605FB0CFC12EB074241EB83
:1016B000174112EB0C4251EB1C4148BF7047921886
:1016C00041EB0101A3F101037047FEE7704701F010
:1016D00050BE2DE9F04180460F46084600F044F820
:1016E00000283FD0404601F072FE3946404601F0E6
:1016F000FBFEBE21404601F029FF404601F057FEA7
:10170000404601F054FE404601F051FE404601F0D3
:101710004EFE404601F04BFE04467D26C92540465C
:1017200001F055FE3946404601F0DEFE4E214046AE
:1017300001F00CFF3146404601F008FF29464046C3
:1017400001F004FF2146404601F000FF404601F051
:101750003EFE3946404601F0C7FE4821404601F0B2
:10176000F5FE0120BDE8F0810078282801D0002096
:1017700070470120704700002DE9FE438046002598
:1017800017460E462C460846FFF7EEFF002821D0EC
:10179000404601F0EEFD00281CD0404601F017FE47
:1017A0003146404601F0A0FEBE21404601F0CEFE8B
:1017B0006E46404601F0FBFD3055641CE4B2092C36
:1017C000F7D30821684601F07DFD9DF8081081429D
:1017D00002D00020BDE8FE83BDF80040404601F085
:1017E000F6FD200403D5E043401C84B201259DF89A
:1017F000040044F30711C0F34110C4F3022209307E
:1018000041EA0216092813D00A2818D00B2820D044
:101810000C2825D0164C0026304604F0CDFB21467E
:1018200004F062FB0DB180F0004038600120D1E788
:10183000C4F3C00004F0D8FB4FF0FF3105E0C4F35F
:10184000810004F0D1FB6FF0010104F0D4FC0446E8
:10185000E2E7C4F3420004F0C7FB6FF00201F4E7D3
:1018600004F00F0004F0C0FB6FF00301EDE700008F
:1018700000007F432DE9F047074615460E4608460F
:10188000FFF772FF002857D0384601F0A0FD31461F
:10189000384601F029FEBE21384601F057FE384691
:1018A00001F085FD384601F082FD384601F07FFDEC
:1018B0008146384601F07BFD8046384601F077FDD1
:1018C0000446092D06D00A2D07D00B2D08D00C2D6B
:1018D0000BD00EE020F0400004E020F0400006E0D5
:1018E00040F0400020F0200403E040F0400040F0D1
:1018F0002004384601F06BFD3146384601F0F4FD16
:101900004E21384601F022FE4946384601F01EFEBF
:101910004146384601F01AFE2146384601F016FECF
:10192000384601F054FD3146384601F0DDFD4821CE
:10193000384601F00BFE0120BDE8F08710B50446E3
:1019400001F045FDCC21204601F000FE2046BDE817
:101950001040442101F0FABD7047000030B5054643
:1019600089B00B4A1021012002F096FB094C08496E
:101970002422206018316846FEF737FE6A460021AF
:101980000548069502F05AFC606009B030BD0000C1
:10199000A8630008C4000020E53C000810B590F8DA
:1019A00021100024022903D00421816301243DE099
:1019B00001680A6822F00E020A6001680A6822F0D3
:1019C00001020A601A4A0168914201D1012121E015
:1019D000174A1432914201D110211BE0144A2832D7
:1019E000914201D1891515E0114A3C32914201D151
:1019F00089140FE00E4A5032914202D14FF48031E7
:101A000008E00B4A6432914202D14FF4801101E0A8
:101A10004FF08071064A083A5160012180F8211088
:101A2000002180F82010416B01B18847204610BD8D
:101A30000800024070B5044600F008F90546601C35
:101A400002D004480078044400F000F9401BA04292
:101A5000FAD370BD300000202DE9F84FDFF8B891BF
:101A60000024A9F1040B23460F2709F1040AABF166
:101A7000040EC9E00125A5402A40AA427DD1674E47
:101A8000D1F804C0ACEB0608B44532D014DCBCF18C
:101A9000030F3AD009DCBCF1000F2AD0BCF1010FD2
:101AA0001CD0BCF1020F31D11DE0BCF1110F17D0D9
:101AB000BCF1120F2AD119E0B8F5881F19D006DC45
:101AC000B8F5803F15D0B8F5801F1FD111E0B8F5EB
:101AD000001F0ED0B8F5041F18D10AE0CB6815E03E
:101AE000CB681B1D12E0CB6808330FE0CB680C33CA
:101AF0000CE08B682BB1012B4FF0080303D045613C
:101B000004E0042302E0056100E00023FF2A01D87D
:101B1000064601E000F104064FEA840501D9A5F16B
:101B20002005D6F8008007FA05FC28EA0C0803FA1D
:101B300005F548EA0508C6F800804D68ED0062D555
:101B4000374DAE6946F00106AE61AD6924F003067B
:101B500005F001050095334D06EB050CDCF8085047
:101B6000A607360F07FA06F825EA0805DFF8B88059
:101B7000404503D14FF0000817E044E0DFF8AC80A7
:101B8000404502D14FF001080FE0DFF8A480404546
:101B900002D14FF0020808E0DFF89880404502D1FA
:101BA0004FF0030801E04FF0040808FA06F848EA8D
:101BB0000508CCF808804D68D9F80060ED024D4664
:101BC00001D5164300E096432E604D68DAF80060B8
:101BD000AD02554601D5164300E096432E604D6890
:101BE000DBF80060AD035D4601D5164300E0964387
:101BF0002E604D68DEF80060ED03754601D5164392
:101C000000E096432E60641C0D682A46E5407FF490
:101C100031AFBDE8F88F000008040140000011104A
:101C2000001002400000014000080140000C01408B
:101C300000100140001401408068084000D00120DD
:101C400070470AB1016170470904FBE701488068E9
:101C5000704700003000002002488168027811447B
:101C60008160704730000020074810B5016841F0DE
:101C700010010160032000F0A7F80F2000F006F823
:101C800000F050F8002010BD0020024030B505469D
:101C90001F4887B0C16941F00401C161C06906A94C
:101CA00000F00400009001A800F036F90498B0B1EB
:101CB00000F052F940001749174AB0FBF1F11748FC
:101CC000491E0260416040F2E7320021C0E9032171
:101CD0008160816100F08EFD040003D015E000F00A
:101CE0003BF9E8E70D4800F0EFFD04000DD11E20A0
:101CF00000F03CF8102D07D2002229461E2000F0EB
:101D000043F80748056000E0012407B0204630BDD5
:101D10000010024040420F00000800406C0100200B
:101D2000340000200F4808B5816941F0010181614C
:101D3000816901F001010091C16941F08051C161E7
:101D4000C069002200F0805000900F21901E00F02A
:101D50001BF80548416821F0E06141F000714160E5
:101D600008BD00000010024000000140002809DB0F
:101D700000F01F02012191404009800000F1E020A5
:101D8000C0F8001170470000F0B40E4B1B680C4601
:101D9000C3F30223C3F10705042D00D90425191D3F
:101DA000072901D2002300E0DB1E012606FA05F117
:101DB000491E214099409E40761E16403143F0BC9A
:101DC00002F055B80CED00E0064900F00702086883
:101DD0004FF6FF03184040EA0220034A1043086010
:101DE000704700000CED00E00000FA052DE9F04717
:101DF0000F46050061D0434E306800F00700B8423E
:101E000009D2306820F0070038433060306800F0B5
:101E10000700B84251D128683B4C810712D54007D2
:101E200003D5606840F4E06060602878000703D55F
:101E3000606840F4605060606068A96820F0F0005D
:101E4000084360602878C00728D06868012810D04F
:101E50002168022810D0890700292EDA616821F054
:101E6000030101436160FFF7F1FE804641F28839CA
:101E70000DE021688903EFE78901EDE7FFF7E6FE52
:101E8000A0EB0801494502D90320BDE8F08760684E
:101E9000696800F00C00B0EB810FEFD1306800F002
:101EA0000700B8420BD9306820F007003843306093
:101EB000306800F00700B84201D00120E5E728783B
:101EC000400705D56068E96820F4E0600843606079
:101ED0002878000706D56068296920F4605040EA38
:101EE000C100606000F048F86168084AC1F303115E
:101EF000515CC8400649086006480068FFF7C6FE06
:101F00000020C2E700200240001002408E6300085B
:101F10003C000020340000200F2202600C4A53686D
:101F200003F003034360536803F0F00383605368D6
:101F300003F4E063C36052684FF4E06303EAD20243
:101F400002610448006800F0070008607047000064
:101F5000001002400020024004480549006849681A
:101F6000044AC1F30221515CC84070473C00002084
:101F7000001002409E6300080E4A51680E4801F0AE
:101F80000C03042B11D0082B0FD10C48C1F3834351
:101F9000C903C05C0AD55168084AC1F34041921E8A
:101FA000515C054A5043B0FBF1F070470449484387
:101FB000704700000010024000127A007E630008A3
:101FC00000093D002DE9F84F040070D02078C04D85
:101FD000C00749D06868C0F38100012807D068684D
:101FE000C0F38100022809D16868C00306D52868BB
:101FF000800339D560680028E7D035E06068B0F527
:10200000803F0BD010B1B0F5A02F11D0286820F47C
:1020100080302860286820F4802002E0286840F49E
:1020200080302860606890B1FFF710FE06460AE035
:10203000286840F480202860F0E700BFFFF706FE24
:10204000801B642873D828688003F7D50CE0FFF75D
:10205000FDFD064605E000BFFFF7F8FD801B642884
:10206000F0D828688003F7D420789A4E80074FF084
:1020700001094FF0000839D5686810F00C0F07D03F
:102080006868C0F38100022809D16868C00306D4DB
:102090002868800714D52069012808D110E020693C
:1020A000B0B1C6F80090FFF7D1FD074605E00AE1A0
:1020B000FFF7CCFDC01B0228C4D828688007F7D5DD
:1020C0002868616920F0F80040EAC10028600DE04E
:1020D000C6F80080FFF7BAFD074604E0FFF7B6FD3B
:1020E000C01B022823D828688007F7D4207800076F
:1020F0002CD57948A169D9B1C0F80090FFF7A6FDA9
:10210000074604E0FFF7A2FDC01B02280FD8686A4B
:102110008007F7D571484FF4FA510068B0FBF1F031
:10212000009000BF0098411E0091FAD20EE080E0BE
:10213000C0F80080FFF78AFD074604E0FFF786FD40
:10214000C01B022875D8686A8007F7D4207840073A
:1021500060D5E8690027C00008D4E86940F08050E5
:10216000E861E869012700F0805000905C48016850
:10217000C90513D40168834641F480710160FFF7FB
:1021800065FD824606E000BFFFF760FDA0EB0A0098
:1021900064284ED8DBF80000C005F5D5E0680128BA
:1021A0000AD008B1052813D0286A20F0010028625F
:1021B000286A20F0040002E0286A40F0010028624A
:1021C000E06841F2883B98B1FFF740FD82460BE0A2
:1021D000286A40F004002862EEE700BFFFF736FDF2
:1021E000A0EB0A0159455AD8286A8007F6D50CE0B9
:1021F000FFF72CFD824605E0FFF728FDA0EB0A0162
:1022000059454CD8286A8007F6D41FB1E86920F0F8
:102210008050E861E06988B36968C1F381010229EF
:1022200044D00228C6F8608004D0FFF70FFD0446B2
:1022300038E034E0FFF70AFD074604E0FFF706FD4B
:10224000C01B02282BD828688001F7D4206AB0F57B
:10225000803F05D16868A16820F4003008436860B9
:10226000D4E908010843696821F4741108436860DF
:10227000C6F86090FFF7EAFC044606E025E000BFE0
:10228000FFF7E4FC001B022809D828688001F7D575
:102290001BE000BFFFF7DAFC001B022802D9032075
:1022A000BDE8F88F28688001F4D40EE00128F7D04B
:1022B0006868226A00F48031914204D1616A00F4B6
:1022C0007010884201D00120EAE70020E8E7000012
:1022D0000010024000004242800442423C000020C4
:1022E00000700040AFF30080406D704738B5044681
:1022F000006842688168C9434B0606D5CB0704D104
:10230000D3435B0601D4216C05E08B0708D4D3438B
:102310001B0605D4616C01B02046BDE8304008477B
:102320008B0601D54B0646D4D3439B0643D44B06BC
:102330000AD494F85130032B3ED0636D43F004036C
:102340006365C36883680093890609D4616D41F0B1
:102350000101616581680091016821F0400101601F
:10236000606D002827D02068416821F0E0014160BD
:10237000012084F85100900722D02068416821F0A4
:1023800003014160104DE06C40B14563E06CFFF724
:1023900005FB18B1606D40F040006065A06C00283E
:1023A00009D04563A06CFFF7F9FA002803D0606DEF
:1023B00040F04000606538BDC1688068009038BD5D
:1023C0002046FFF78FFF38BD9537000870B5040031
:1023D00009D0606A002540B125616561A56294F865
:1023E000510040B10CE0012070BD6068B0F5827F03
:1023F000F4D0E561F2E784F85050204600F040F850
:10240000022084F851002068016821F04001016039
:10241000A088218900F4827001F404410843A18955
:1024200001F400610843217C01F002010843217D91
:1024300001F001010843218B01F400710843217F61
:1024400001F03801084394F8201001F0800108439E
:10245000218D01F40051084321680860A06904211E
:1024600001EA1040216848602068C16921F40061D8
:10247000C1616565012084F85100002070BD000035
:1024800030B585B000240094019402940394006850
:10249000194988422DD11948C16941F48041C1616F
:1024A000C16901F480410491816941F008018161B1
:1024B0008069134D00F0080004904FF42040009014
:1024C000022001900320039069462846FFF7C4FAD2
:1024D0004FF48040CDE90004694628460294FFF796
:1024E000BBFA002205212420FFF74EFC2420FFF731
:1024F0003DFC05B030BD0000003800400010024037
:10250000000C0140F0B490F85150134600242246CC
:10251000012D01D0022444E0856804261DB94768D6
:10252000B7F5827F16D090F85070012F18D0012790
:1025300080F85070B9B1B3B180F8516042658163E1
:102540008387C38702638286C2864264C16861B1A1
:1025500016490BE080F85160F0BC0A4600F02CB838
:102560000220F0BC704701241BE011490164B5F55D
:10257000004F09D101680B6823F040030B6001682C
:102580000B6823F480430B6001684B6843F06003E1
:102590004B6001680B685B0603D40B6843F0400393
:1025A0000B6080F850202046DBE70000213800084F
:1025B0004138000870470000F0B590F850500024F2
:1025C000012D0CD0012580F8505090F85150002674
:1025D0004768012D0BD0B7F5827F06D101E00220BC
:1025E000F0BD87680FB9042D01D0022429E0A9B1FC
:1025F000A2B19BB190F85150042D02D0052580F86E
:102600005150466501638386C38682638387C3878F
:10261000C16829B10D4901640D4904E0012410E0AD
:102620000C4901640C49416401684A6842F0E002C7
:102630004A6001680A68520603D40A6842F0400200
:102640000A6080F850602046F0BD00007D3500082B
:10265000DD350008AD3500080D36000830B590F8BE
:1026600050300024012B0BD0012380F85030002380
:1026700041B13AB190F85150012D05D002242FE01C
:10268000022030BD01242BE0032580F85150436522
:1026900001638286C28683638387C3870364C168BC
:1026A00009B1114900E0114941648168B1F5004F59
:1026B00009D101680A6822F040020A6001680A68CC
:1026C00042F480420A6001684A6842F0A0024A600F
:1026D00001680A68520603D40A6842F040020A60A0
:1026E00080F85030204630BD61380008813800083D
:1026F00038B50446012000902046FFF7F5FD00287C
:1027000014D10B48844211D1002000900948694639
:10271000406802F019FD0098002807D006494FF0E4
:1027200080500860BFF34F8FBFF36F8F38BD00003C
:10273000CC0000200000002004ED00E038B5044685
:10274000012000902046FFF7CFFD002814D10B4850
:10275000844211D10020009009486946406802F087
:10276000F3FC0098002807D006494FF0805008601D
:10277000BFF34F8FBFF36F8F38BD0000CC00002038
:102780000000002004ED00E07047704770B590F83D
:102790003C20012A26D0012480F83C40022280F807
:1027A0003D2003685A689D6822F070060A6832432B
:1027B0005A600D4B02689A4208D0B2F1804F05D0A2
:1027C0000A4B9A4202D00A4B9A4204D1496825F03A
:1027D00080031943916080F83D40002180F83C104F
:1027E000084670BD022070BD002C0140000400406E
:1027F0000008004010B5040003D094F83D0010B16B
:1028000007E0012010BD002084F83C00204600F0C5
:102810001FF8022084F83D00211D206801F0F6F920
:10282000012084F8460084F83E0084F83F0084F8D4
:10283000400084F8410084F8420084F8430084F8A2
:10284000440084F8450084F83D00002010BD0000DD
:1028500008B500680649884208D10648816941F4F4
:1028600000618161806900F40060009008BD000093
:10287000002C01400010024090F83D10012901D0C9
:1028800001207047022180F83D1000680B49884202
:1028900008D0B0F1804F05D00949884202D00949DB
:1028A000884204D1816801F00701062903D001683C
:1028B00041F001010160002070470000002C014040
:1028C000000400400008004090F83D10012901D0AC
:1028D00001207047022180F83D100168CA6842F06B
:1028E0000102CA6000680B49884208D0B0F1804FED
:1028F00005D00949884202D00849884204D181683C
:1029000001F00701062903D0016841F001010160CF
:1029100000207047002C01400004004000080040E7
:1029200070B5044690F83C000025012817D0012618
:1029300084F83C60022084F83D002068826822F020
:10294000770222F47F4282600868502838D00DDC7C
:1029500020284FD005DC90B3102811D14AE0022086
:1029600070BD302846D040280AD13BE060282FD0E7
:1029700070280DD0B0F5805F03D0B0F5005F12D0A5
:10298000012584F83D60002084F83C00284670BD95
:10299000CB68D1E90121206801F06EF920688168D7
:1029A00041F0770109E0CB68D1E90121206801F00D
:1029B00063F92068816841F480418160E1E719E0B2
:1029C000CA684968206801F069F95021206806E06A
:1029D000CA684968206801F072F96021206801F036
:1029E00055F9CEE7CA684968206801F057F94021D7
:1029F0002068F4E7226801461046F0E7704770B59A
:102A00000446006801694FF00005C943890715D4E1
:102A1000C168C943890711D4E91E016101202077EB
:102A2000206880698007204602D0FFF7E7FF04E0B6
:102A300000F098F8204600F096F8257720680169A4
:102A4000C943490717D4C168C943490713D46FF074
:102A500004010161022020772068806910F4407F22
:102A6000204602D0FFF7CAFF04E000F07BF82046C2
:102A700000F079F8257720680169C943090716D461
:102A8000C168C943090712D46FF00801016104202D
:102A900020772068C0698007204602D0FFF7AEFF8C
:102AA00004E000F05FF8204600F05DF8257720682C
:102AB0000169C943C90617D4C168C943C90613D4FB
:102AC0006FF010010161082020772068C06910F4C0
:102AD000407F204602D0FFF791FF04E000F042F86B
:102AE000204600F040F8257720680169C943C907EE
:102AF00008D1C168C943C90704D1891E01612046B4
:102B000000F032F820680169C943090609D4C16898
:102B1000C943090605D46FF0800101612046FFF723
:102B200033FE20680169C943490609D4C168C94315
:102B3000490605D46FF040010161204600F01EF8FF
:102B400020680169C94389060BD4C168C943890655
:102B500007D46FF0200101612046BDE87040FFF707
:102B600014BE70BD7047704700680349884201D1A8
:102B7000FFF772B870470000000800407047FEE79A
:102B800070B586B000241848009401940294039410
:102B9000816941F020018161816901F02001049186
:102BA000816941F008018161816901F008010491A6
:102BB000816941F00401816180690C4E00F00400DC
:102BC00041F210250490002229463046FFF739F8DB
:102BD00001200095CDE901040220039069463046AA
:102BE000FEF73AFF06B070BD00100240000C014035
:102BF0000E4810B50C4901604FF48271416000210C
:102C00008160C1604FF400720161C0E90512C161C9
:102C10000162416281620A21C162FFF7D7FB00288D
:102C200001D072B6FEE710BD00380040CC00002095
:102C300010B586B0002417480094019402940394C0
:102C400004941349059401604721C0E901144FF62B
:102C5000FF71C0E9031444618461FFF7CBFD08B143
:102C600072B6FEE74FF48050009069460948FFF7BE
:102C700057FE08B172B6FEE7049404A9054805940E
:102C8000FFF784FD002801D072B6FEE706B010BD44
:102C9000002C014024010020FEE7FEE731B582B0A0
:102CA00000200E4D8DF8000002464FF4805421465E
:102CB0002846FEF7C6FF01236A4602A90848FFF727
:102CC0007BFC4FF0FF31012001F0DEFF01222146A5
:102CD0002846FEF7B6FF9DF800003EBD000C0140FF
:102CE000CC00002010B504461D2000F0F3F840F0A1
:102CF00004011D2000F088FA1C2000F0EBF840F0E1
:102D000006011C2000F080FA0120A07010BDFF20F9
:102D1000FFF7C4BF70B5254C0546002210212046A0
:102D2000FEF78FFF012211032046FEF78AFF0520E0
:102D3000FEF780FE0C21002000F066FA5F210420DF
:102D400000F062FA032000F04BF9062000F0C2F810
:102D50000446002000F0F4F800F058F900211D208E
:102D600000F052FA00211C2000F04EFA0020A8705A
:102D70007021072000F048FA4C2000F019F9E220F9
:102D8000FFF78CFFE120FFF789FF00F035F8002006
:102D900000F0A0F820F00101002000F035FA1CB18D
:102DA000FF2C01D0012070BD002070BD000C01403F
:102DB00010B5172000F08EF840F30000401C10BD45
:102DC00010B5032000F086F8401E022801D801202B
:102DD00010BD002010BD1FB50446027A02A90A20CA
:102DE00000F08CF9227A02A9102000F087F96178AE
:102DF000112000F009FA1FBD10B5002000F06AF89C
:102E0000810709D440F00201002000F0FDF9BDE87F
:102E100010400520FEF70EBE10BD10B500F006F8FC
:102E20007021BDE81040072000F0EEB92DE9F74F02
:102E30008AB0074661208DF820007D7800249542F5
:102E400000D915460A264FF0FF394FF4805ADFF8B3
:102E50007CB034E0002251465846FEF7F2FE0122D3
:102E600008A91B48FFF7FAFB40EA0408494601207D
:102E700001F00AFF2A4616480B99FFF743FB40EA88
:102E800008044946012001F0FFFEB87880B12021F6
:102E90006846FDF7E4FB78786946401BC5B22A46D0
:102EA0000B48FFF72FFB04434946012001F0ECFEDD
:102EB000012251465846FEF7C4FE761EF6B2344251
:102EC000C8D00DB02046BDE8F08F0000000C0140D6
:102ED000CC00002071B581B0174D9DF804004FF46F
:102EE000805400F01F008DF8040000208DF80000D1
:102EF000024621462846FEF7A4FE01236A4601A9A0
:102F00000E48FFF759FB4FF0FF363146012001F024
:102F1000BBFE01236A46FF210848FFF74DFB3146FF
:102F2000012001F0B1FE012221462846FEF789FE6C
:102F30009DF800007CBD0000000C0140CC0000208A
:102F400070B506460620FFF7C5FF552520F028047A
:102F5000022E02D0012E04D006E044F020049B256E
:102F600002E044F0080441252146062000F04CF917
:102F70000620FFF7AFFFA04200D1284670BD70B514
:102F80000D46064602290CD9AC1EE01704EB9070E2
:102F900020F00300201AC1B2032000F035F9357289
:102FA00070BD0021032000F02FF90220307270BDA7
:102FB0000146052000F028B970B5064614460D46B6
:102FC0000020FFF787FF290141EA461141EA8411F9
:102FD000BDE8704020F070000143002000F014B9FB
:102FE00010B504460620FFF775FF00F0F801032C2A
:102FF00001D9072003E0012000EB4400C0B20143E7
:10300000BDE81040062000F0FFB80000F8B55020E1
:10301000114D8DF800004FF48054002221462846BF
:10302000FEF70FFE012269460C48FFF717FB4FF031
:10303000FF363146012001F027FE012273210748A7
:10304000FFF70CFB3146012001F01EFE0122214654
:103050002846FEF7F6FDF8BD000C0140CC0000202C
:1030600070B5104D0E460446002210212846FEF78A
:10307000E8FD3146052000F0C7F805222146102062
:1030800000F03CF80020FFF725FF00F0F2010020DF
:1030900000F0BAF82846BDE8704001221021FEF782
:1030A000D0BD0000000C014010B51346B0240A4604
:1030B000214600F05FF8104C012210212046FEF757
:1030C000C0FD02E00520FEF7B5FCFFF720FE10F082
:1030D000300FF7D0002210212046FEF7B2FD7021FC
:1030E000072000F091F8C00604D5E120FFF7D6FDD7
:1030F000002010BD012010BD000C01402DE9F7415A
:1031000081B000208DF800009DF80400174D00F0FC
:103110001F0040F02000174688468DF804004FF449
:103120008054002221462846FEF78BFD01236A4683
:1031300001A90F48FFF740FA4FF0FF363146012052
:1031400001F0A2FD3A4641460948FFF787FA3146A9
:10315000012001F099FD012221462846FEF771FD6C
:103160009DF8000004B0BDE8F0810000000C0140B3
:10317000CC0000202DE9FF430446407889B0164674
:10318000984200D803460020DFF874908DF82000A4
:1031900002464FF480581D4641464846FEF751FD11
:1031A000012308AA0AA91748FFF706FA4FF0FF37CC
:1031B0003946012001F068FD2A4631461148FFF7E3
:1031C0004DFA3946012001F05FFDA07870B1202151
:1031D0006846FDF744FA60786946401BC2B2094868
:1031E000FFF73CFA3946012001F04EFD012241462D
:1031F0004846FEF726FD9DF820000DB0BDE8F0839F
:10320000000C0140CC00002073B582B000208DF886
:1032100000009DF80800012200F01F0040F020008F
:10322000124D8DF80800140321462846FEF709FDCB
:1032300001236A4602A90E48FFF7BEF94FF0FF3698
:103240003146012001F020FD012203A90848FFF7C3
:1032500005FA3146012001F017FD002221462846DB
:10326000FEF7EFFC9DF8000004B070BD000C0140BB
:10327000CC000020044900220B685A6209684A6A9F
:103280008242FCD970470000240100201FB50021B4
:1032900001910291032103918188009100686946A0
:1032A000FEF7DAFB1FBD1FB511210191002102912C
:1032B000032103918188009100686946FEF7CCFBE9
:1032C0001FBD000030B50446002011E014F8013B9A
:1032D0005FF0080280EA030515F0010F4FEA500085
:1032E00001D080F08C005B08521E12F0FF02F1D179
:1032F000491EC9B2EAD230BD10B5024600F088F8C6
:10330000BDE81040F021104600F087B80022831875
:103310005B7A8B54521CD2B2082AF8D37047000053
:1033200070B5044615460E460F48FFF7A5FA26600D
:10333000A5802046FFF7B7FF2168A08808614FF4F9
:103340007A752846FEF776FBA0882168000408619C
:103350002846FEF76FFB2168A08808616800BDE879
:103360007040FEF767BB000024010020F02100F050
:1033700054B870B5044680882168002500040861AF
:103380002046FFF790FF0220FFF774FF2046FFF76B
:103390007DFF0A20FFF76EFFA1882068FEF74CFC36
:1033A00000B101253220FFF765FF284670BD70B5DA
:1033B00005460824002006E046082846FFF7D9FF06
:1033C00046EAC010C0B2641EE4B2F5D270BD10B5BA
:1033D000044680882168000408612046FFF763FFE7
:1033E0004FF4F070FFF746FF1420FFF743FF20462D
:1033F000FFF74CFF4620FFF73DFFA1882068FEF74E
:103400001BFC04464FF4CD70FFF734FF204610BD7F
:10341000002181710172C17170472DE9F0470446A6
:103420004FF000090125007A88464F462E46CA46CD
:10343000E0BB2046FFF7CBFFC0BB4146204600F073
:1034400085F82046FFF795FF80462046FFF791FF5D
:103450004146B8F1010F01D1012830D0804502D09A
:1034600001290AD017E0A079A8420CD904EB070083
:10347000407A304208D04FF0010104EB0700427A55
:1034800042EA06020AE0F6D04FF00001A946092DF3
:1034900001D284F80790E019427AB2434272204682
:1034A00000F032F86D1CEDB2700000E013E010F097
:1034B000FF0602D17F1CFFB20126082FC1D3412D88
:1034C00009D35FEA0900A07101D101202072617A5D
:1034D0000120002906D184F806A084F808A084F809
:1034E00007A00020BDE8F08770B50D4606465521BF
:1034F00000F02CF800243046295D00F027F8641C09
:10350000E4B2082CF7D370BD10B5044680880204DD
:1035100020680261204649B1FFF7C5FE0A20FFF787
:10352000A9FE2046FFF7B2FE372008E0FFF7BBFEFA
:103530004120FFF79FFE2046FFF7A8FE0520FFF77A
:1035400099FE2046BDE81040FFF7A0BE70B50C46BE
:103550000646082506E000BF04F001013046FFF7EB
:10356000D3FF64086D1EEDB2F6D270BD7047704790
:103570000148FEF7BBBE0000CC0000200168C9680E
:10358000826B1180816B891C8163C18F491EC18749
:10359000C18F002909D101684A6822F040024A60BF
:1035A000C18E002901D100F049B870470168097B3C
:1035B000826B1170816B491C8163C18F491EC18769
:1035C000C18F002909D101684A6822F060024A606F
:1035D000C18E002901D100F031B87047016B02683B
:1035E0000988D160016B891C0163C18E491EC186A7
:1035F000C18E002909D101684A6822F080024A6020
:10360000C18F002901D100F019B87047016B026821
:1036100009781173016B491C0163C18E491EC18673
:10362000C18E002909D101684A6822F080024A60EF
:10363000C18F002901D100F001B8704738B50446A8
:10364000214845F6C0510068B0FBF1F064214843C1
:103650000090FEF7FBFA02462068416821F0200145
:103660004160009888B1401E009020688068800703
:10367000F7D56421204600F0C3F818B1606D40F022
:1036800020006065A06828B108E0606D40F020006F
:103690006065EEE72068C16880680090616D012078
:1036A00029B184F851002046FEF71CFE38BD94F87D
:1036B000511084F851000429204602D0FFF73EF84B
:1036C00038BDFEF777FF38BD3C00002038B5044612
:1036D0000068416821F060014160FEF7B7FA0246D8
:1036E0006421204600F05EF818B1606D40F02000C3
:1036F0006065A06818B92068C168806800900120E2
:1037000084F85100606D0028204602D0FEF7EAFDE3
:1037100038BDFEF74FFF38BD38B504461C4845F6A6
:10372000C0510068B0FBF1F0642148430090FEF7FF
:103730008DFA024620680099A1B1491E0091816866
:103740008907F8D5416821F0A00141606421204635
:1037500000F056F818B1606D40F020006065A06878
:1037600028B108E0616D41F020016165EAE7206859
:10377000C16880680090012084F85100606D0028C5
:10378000204602D0FEF7AEFD38BDFEF7B1FF38BDD2
:103790003C00002010B5406A0021C187C186FEF7B9
:1037A000A1FD10BDF8B5044640684FF482739842FD
:1037B00017D1A0684FF48065B0F5004F01D0A84242
:1037C0000FD12068066826F04006066060689842BF
:1037D00007D1A068A84204D100920B460022012123
:1037E00003E000920B4600228021204600F058F8AA
:1037F000002804D0606D40F0200060650320F8BD13
:1038000038B50B46009204460022802100F048F8AB
:10381000002804D0606D40F020006065032038BDB2
:103820000168C968826B1180816B891C8163C18FBB
:10383000491EC187C18F002901D1FFF747BF7047DB
:103840000168097B826B1170816B491C8163C18F98
:10385000491EC187C18F002901D1FFF737BF7047CB
:10386000016B02680988D160016B891C0163C18EFC
:10387000491EC186C18E002901D1FFF74DBF704797
:10388000016B026809781173016B491C0163C18ED9
:10389000491EC186C18E002901D1FFF73DBF704787
:1038A0002DE9F8431E46914688460446089DFEF7DA
:1038B000CDF9401B351AFEF7C9F9074625480068BF
:1038C000C0F3CB30684338E0701C37D0FEF7BEF948
:1038D000C01BA84203D215B1009860B32CE0206849
:1038E000416821F0E00141606068B0F5827F0BD152
:1038F000A068B0F5004F02D0B0F5806F04D1206809
:10390000016821F040010160A06AB0F5005F09D1B3
:103910002068016821F4005101602068016841F4C9
:1039200000510160012084F85100002084F850000B
:103930000320BDE8F8830025401E009020688168C0
:1039400038EA010004D000214945BDD10020F0E74C
:103950000121F9E73C0000204FF6FF71002000BF75
:10396000401C8842FBD3F9E71FB5124C4FF0FF35DE
:10397000206801F0D0F910F0FF0F17D02A466946F1
:10398000206801F051FF9DF80C0060B169460AA063
:10399000FCF77CFC029802F07BFA02460B460BA077
:1039A000FCF774FC02E00FA0FCF770FC642000F050
:1039B00005FBDDE7C400002044533138423230209B
:1039C00049443A20257820200000000054656D709D
:1039D000657261747572653A2025352E3266204312
:1039E0000A000000445331384232302073656E7350
:1039F0006F72206C6F737400A2B046480023444D70
:103A0000E8261A461946406A01F000FE00F0F0FA76
:103A100041A0FCF73BFC4FF47A7802E0404600F00E
:103A2000CDFAFFF7CDF90028F8D03CA0FCF72EFC2A
:103A300040210FA8FCF713FE01208DF80000202084
:103A40008DF8010000248DF8024020466B461918BD
:103A500000F10A02CC7088728A75D21D401CC0B277
:103A60000A740628F3D305211846FFF788FA8DF863
:103A700009406846FFF74EF9401EFE2801D22DA1ED
:103A800000E02DA12EA0FCF701FC6846FFF72AF903
:103A90001320FFF78DFA2A4633466846FFF79BF955
:103AA000012211461046FFF787FA2AA1D1E9000149
:103AB000CDE91F010A211FA8FFF7D2FA4D2556268E
:103AC0006127202107A8FCF7CAFD8DF81C508DF84E
:103AD0001D608DF81E708DF8844007A8FCF721FD4D
:103AE000C2B207A96846FFF7DFFA60B1FFF760F9D5
:103AF00048B1012221A96846FFF78FF99DF884108B
:103B000016A0FCF7C3FB404600F058FAD9E70000C6
:103B1000E2F0F0E8000000200A0000004E524620CB
:103B2000436F6E6E656374206973202D204F4B0ABE
:103B3000000000004F4B00004E4F54204F4B000040
:103B40004E524620496E6974206973202D202573DA
:103B50000A000000EEDDCCBBAA00000041636B3A16
:103B60002025640A000000004FF47A74204600F01B
:103B700025FAFBE710B5502080F31188BFF34F8F73
:103B8000BFF36F8F01F092FF18B104494FF08050DE
:103B90000860002080F3118810BD000004ED00E0F3
:103BA00030B58FB028216846FCF759FD14210AA8CA
:103BB000FCF755FD01210804CDE900100024029412
:103BC00002250491CDE907504FF4E01009906846B2
:103BD000FEF7F8F908B172B6FEE70F20CDE90A0545
:103BE0004FF48060CDE90C4002210AA80E94FEF744
:103BF000FDF8002801D072B6FEE70FB030BD704767
:103C00000148FEF7FCBE00006C010020F0B5026820
:103C1000164B174C174D4FF08047984205D0B842CD
:103C200003D0A04201D0A84203D122F070064A6816
:103C30003243984205D0B84203D0A04201D0A842F6
:103C400003D122F44074CA6822434C6922F08002F6
:103C5000224302608A68C2620A688262984201D185
:103C60000969016301214161F0BD0000002C0140A0
:103C7000000400400008004010B5846842EA0322B6
:103C800024F47F440A432243826010BD826822F0FC
:103C900070020A4342F007018160704710B5036A61
:103CA000046A24F001040462846924F0F00444EA04
:103CB000021423F00A020A438461026210BD10B5A7
:103CC000036A046A24F010040462846923F0A003E8
:103CD00024F4704444EA023243EA01118261016231
:103CE00010BD000090B000258DF81850284603A99B
:103CF00005950D54401C0828FBDBDFF828910526AC
:103D000040F6B8384FF0FF3B4FEA010A4FF400721B
:103D1000454907A8FFF704FB0024474602E064205A
:103D200000F04CF9FDF792FFB842F8D307A8FFF76F
:103D3000E3FA57460DE0642000F040F9641CE4B259
:103D400007EB041107A81039FFF7E0FA07A8FFF7FF
:103D50000DFB0028EFD10CB126B10AE0761E16F05B
:103D6000FF06D3D100235A4603A9D9F8000001F079
:103D70004DFC0026B84612E0322000F01FF908EB97
:103D800006170C22394607A8FDF774FD322000F013
:103D900015F9394607A8FDF79CFC761CF6B2A64239
:103DA000EAD34FF47A7A642607A8FDF7C7FD6420AA
:103DB00000F004F906E00A2000F000F9761E36044F
:103DC000360C20D007A8FDF782FC0028F3D0D6B12E
:103DD000002615E0504600F0F1F808EB061707F151
:103DE0000802394607A8FDF7C7FC387330B13946D9
:103DF00000235A46D9F8000001F008FC761CF6B200
:103E0000A642E7D309E00020414604E001EB00129E
:103E1000401C1573C0B2A042F8D3504600F0CEF853
:103E2000C1E70000C4000020000C014010B500F004
:103E300007FF002805D0D0E90021BDE81040084662
:103E4000104710BDFEE7490050EAC12018BF04200A
:103E50004A0D18BF40F0010040F2FF72B2EB515F13
:103E600008BF40F00200012808BF0520704709077D
:103E7000090E002804DB00F1E02080F800147047F0
:103E800000F00F0000F1E02080F8141D704730387A
:103E90000A2801D2012070470020704709490120FB
:103EA000096809B10020704707494A6A002AF9D118
:103EB000044A283212680969491E8A42F3D1022055
:103EC000704700007C06002040000020054909687A
:103ED000C90105D54FF060410A68002AFCD008707E
:103EE00070470000FCED00E01020FDF737FDFDF706
:103EF000BBFEFFF755FEFEF743FEFEF779FEFEF729
:103F000097FE00F08DF8264800F000F9254CA061DE
:103F10002348103000F0FAF8214AE06120320021F5
:103F2000012000F033F91E4A2062303200210120C6
:103F300000F02CF91A4A022160624032084600F073
:103F400025F9174BA062103B00220121164800F012
:103F5000C7F9134A6061283A0221102000F09CF84A
:103F60000F4A2061B83A0021104800F067F90C4A66
:103F70002060943A00210E4800F060F9084A606021
:103F8000703A00210B4800F059F9054AA0604C3AFC
:103F90000021094800F052F9E06000F05DF8FEE70A
:103FA0002C63000800000020CD16000859390008D5
:103FB000F9390008693B00086939000810B5EFF3CA
:103FC000058149B9EFF3108131B90849096802291F
:103FD00005D1EFF3118111B16FF0050403E0002466
:103FE00008B101F07DF8204610BD000090000020CF
:103FF00010B5502080F31188BFF34F8FBFF36F8F40
:1040000001F04EFD014605484FF47A720068B0FB9E
:10401000F2F04843002181F3118810BD3C000020DC
:10402000EFF3058058B9EFF3108040B909490868EB
:10403000022801D030B109E0EFF3118030B16FF008
:104040000500704701200860002070474FF0FF30E6
:10405000704700009000002010B5EFF3058060B9B4
:10406000EFF3108048B90B490868022802D00128F4
:1040700006D00BE0EFF3118040B16FF0050010BDEA
:104080000220086001F0ECF8002010BD4FF0FF3076
:1040900010BD000090000020F8B514464FF0000558
:1040A000EFF305826ABBEFF3108252BB164A126827
:1040B000022A02D1EFF311821ABB10B309B3ACB1DB
:1040C000D4E902326BB1502A1BD32269CAB16769A5
:1040D00000FB01F6B74214D30025009501F01FFA4A
:1040E00007E072B9226962B9626952B9002201F02F
:1040F000F2F9050005D00CB1216800E0002100F0C4
:104100008DFF2846F8BD00009000002070B50546E0
:104110004FF00004EFF30580A0BBEFF3108088BBE5
:1041200019480068022802D1EFF3118050BB0DB18D
:10413000686800E00020C10701D0012600E00026E9
:1041400000071FD46DB1D5E9021021B1502819D351
:104150001EB1042002E020B114E0012001F0AEF90C
:1041600005E00EB1042000E0012001F09CF90400FC
:1041700008D00DB1296800E0002100F04FFF0EB11A
:1041800044F00104204670BD90000020F8B51446AC
:1041900003460E464FF00005EFF30580E8BBEFF352
:1041A0001080D0BB24480068022802D1EFF31180B0
:1041B00098BB93B39E423DD84CB1A0680028E068FC
:1041C00003D0502836D3012002E008B132E00020AD
:1041D000012B05D010B31846A26801F044F920E085
:1041E00040B103200090002211460120A36801F095
:1041F00096F904E003220021012001F06CF905008A
:1042000018D086B100231A46194601F0FFF901289B
:1042100009D0284600F016FF00250BE0184601F0F3
:1042200005F9050006D00CB1216800E00021284600
:1042300000F0F4FE2846F8BD90000020F0B585B0EF
:104240004FEA01034FF00004EFF305810394A1BB93
:10425000EFF3108189BB21490968022902D1EFF3EC
:10426000118151BB48B3802618218DF8104004AD50
:1042700042B3176807B13D4697691FB139467F1EA3
:10428000382F02D21779FF0702D0002005B0F0BD09
:10429000576907B1BE08D2F808C0BCF1000F0DD0B5
:1042A000D4685C2C18D312693AB137B18DE8061086
:1042B0003246294601F0BBFB03900DE0D7685FB999
:1042C00012694AB903AACDE90012B2B2294601F037
:1042D00081FB012800D003940398D7E790000020C9
:1042E0002DE9FC411C461746884606464FF000055E
:1042F000EFF3058078BBEFF3108060BB17480068D0
:10430000022802D1EFF3118028BB26B3082000F069
:104310002BFC03001FD0B8F1000FC3E9006711D0D8
:1043200001220F4E00208CB1216801B10846A1681E
:1043300051B1E468302C0ED3CDE90061012101F0C8
:104340000FFD07E00022ECE7E16821B901210096AA
:1043500001F0ECFC05462846BDE8FC8190000020F9
:104360002D3E00082DE9F041134C0F4605466669C5
:104370002068001D00F0BCFC681C07D137B1216823
:10438000BDE8F0410D48091D00F015BD2068354419
:10439000B5424560216805D2A068BDE8F041091D1D
:1043A00000F0F1BC6068091D00F0EDFC206B854257
:1043B00000D22563BDE8F08140000020A406002063
:1043C0002DE9F041054600F003FD2D4C2069401C0D
:1043D000206120682B4F10B1E06930B32BE02560DD
:1043E0002069012827D1002606EB860007EB800014
:1043F00000F0BBFC761C382EF6D3234800F0B5FC49
:104400002148143000F0B1FC1F48283000F0ADFC0A
:104410001D483C3000F0A9FC1B48503000F0A5FCC2
:10442000194860601430A06005E02068E96AC06A3D
:10443000884200D82560E06A401CE0626864E86A4F
:10444000A169884200D9A06100EB800007EB8000E1
:10445000291D00F0B0FC00F0DBFCE06900280CD066
:104460002068E96AC06A884207D208494FF0805044
:104470000860BFF34F8FBFF36F8FBDE8F08100007E
:1044800040000020F40100205406002004ED00E06C
:1044900038B500F09DFC104CA068C8B90F4800F07A
:1044A00064FC0E48143000F060FC0C4820601430AE
:1044B00060600A4B00202833009003F15002102165
:1044C0000A2001F02CF8A06010B105A100F0A6FDB3
:1044D000BDE8384000F09CBC7C000020B8060020FD
:1044E000546D72510000000030B4026C0B46002A7B
:1044F0000BD0C1681144C1604468A14201D3016876
:10450000C16030BC1846FCF72BB830BC70472DE9B1
:10451000F041856B174604460026026C82B1C7B194
:10452000E068FCF71DF8E168206C091AE160226878
:10453000914202D26168081AE060022F16D017E09B
:104540002068A8B9606801F015FB0646002060608D
:104550000EE0A068FCF704F8216CA0680844A06095
:104560006168884204D32068A06001E005B16D1E37
:104570006D1CA5633046BDE8F08110B5044690F887
:10458000590058B101280CD002280FD0502080F3D8
:104590001188BFF34F8FBFF36F8FFEE7206B00F0E2
:1045A0004BFC2046BDE8104000F046BC10BD0000AA
:1045B00009480021826902B101210268D26A0AB168
:1045C00000207047054A1268012AF9D80029F7D15E
:1045D000016B4069081A704740000020F401002078
:1045E00010484FF48051420706D0C01D0D4920F0FD
:1045F0000700411AC1F580510B4A00230144C2E96A
:1046000000030839103A21F0070111604B600B607C
:104610000B1AC0E9001393604FF000405360D06064
:1046200070470000880E0020A4000020204C214E7E
:1046300012E000BF00F0CCFBF068C568281D00F058
:1046400057FB2069401E2061E068401EE06000F0DA
:10465000DFFB2846FFF791FFE0680028EAD1164803
:104660000068012807D915494FF080500860BFF352
:104670004F8FBFF36F8F00F077FBFFF799FF022892
:10468000D5D300F045FE206B6169884207D25020E7
:1046900080F31188BFF34F8FBFF36F8FFEE7FFF7F3
:1046A00087FF022801D300F019FC01F0DDFABEE714
:1046B0004000002090060020F401002004ED00E0FE
:1046C000002807D00021416001600B460A46C16006
:1046D00000F09CBF7047000070B51D46049C51B1AE
:1046E000C4F80020C4E90F010121204600F04AFF70
:1046F00084F84C5070BD2460F4E72DE9F0470E4675
:10470000DDE909841746824691009946089DA52255
:10471000206BFBF79CFF6FF00301206B01EB87011F
:10472000084420F00707780707D0502080F311884D
:10473000BFF34F8FBFF36F8FFEE72218315C82F813
:104740003410315C11B1401C1028F6D3002684F8D7
:104750004360382D00D33725E562C4E91356201D88
:1047600000F00EFB04F1180000F00AFB2461C5F113
:1047700038006462A061666584F858604A46514614
:10478000384600F06FFA2060B8F1000F01D0C8F889
:104790000040BDE8F0872DE9F0471E46DDE90894AA
:1047A00017460D0080460ED0002C14D0FFF770FE87
:1047B000C4F80080C4E90657C4E90869201DBDE8B3
:1047C000F04700F0DDBA502080F31188BFF34F8F1F
:1047D000BFF36F8FFEE7BDE8F087000030B51149E9
:1047E00000E011460A688242FBD34B685C188442A1
:1047F00003D1406818444860084643681C18944236
:1048000009D1084C103C2468A24209D052681A44CD
:1048100042600A6812680260814200D0086030BDC0
:104820000460F9E7A400002070B5002441600B4D3E
:104830000061914206D8D11A8269914206D2011DC7
:10484000686807E09A4203D2994201D3012403E049
:10485000011D286800F097FA204670BD7C000020FA
:1048600010B5044600F0B4FAA06B28B15FF0000464
:1048700000F0CEFA204610BD0124F9E730B589B02A
:10488000304D55E00498002806DADDE90601059A66
:104890009047049800284BDB069C606910B1201DEE
:1048A00000F026FA02A800F0B9F8024604980A2897
:1048B0003ED2DFE800F00505053D263705053D261B
:1048C0000598A169034601442046FFF7ADFF00B3F8
:1048D000616A20468847E069012829D100200090BC
:1048E0000598A169002342181946204601F080FA74
:1048F00078B9502080F31188BFF34F8FBFF36F8FCB
:10490000FEE70598A06128B1811813462046FFF7FD
:104910008BFF0DE0502080F31188BFF34F8FBFF362
:104920006F8FFEE794F82C0010B9204600F084FA4F
:10493000002204A9A86800F077FF0028A2D109B0DE
:1049400030BD00007C0000202DE9FC410F460546EB
:1049500000F0DEFC01A800F061F80446019818B1EF
:1049600001F082F9BDE8FC81224EAFB170680068A9
:10497000A8B30027291B3A46B06800F08FFB01F06E
:1049800073F90028EED11C494FF080500860BFF346
:104990004F8FBFF36F8FE5E7A542EBD801F064F9C5
:1049A00030682746C068C468201D00F0A1F9E0699E
:1049B000012810D1A0692B4641193A462046FFF73D
:1049C00033FF40B100200346014600902A462046AE
:1049D00001F00EFA20B1616A20468847C2E707E07D
:1049E000502080F31188BFF34F8FBFF36F8FFEE726
:1049F0000127BFE77C00002004ED00E00648416885
:104A0000096829B14168C968C96849680163704784
:104A10004FF0FF31FAE700004000002070B5054676
:104A200001F03EF8064E04463069844203D200F09D
:104A300009F8012000E0002028602046346170BDA4
:104A40007C000020F8B5194D1FE0C068C4680668F6
:104A5000201D00F04DF9616A20468847E069012871
:104A600013D1A0693044B04206D924616060211D91
:104A7000286800F088F908E000200346014600900D
:104A80003246204601F0B4F938B12868016800299F
:104A9000DBD16968C5E90010F8BD502080F31188AA
:104AA000BFF34F8FBFF36F8FFEE700007C00002045
:104AB00008484068401C4FF0500080F3118804D033
:104AC000BFF34F8FBFF36F8FFEE7BFF34F8FBFF37F
:104AD0006F8FFEE7AC000020074C2068016841B1F1
:104AE000C0680021D0F80000FFF72EFFFFF7C6FED8
:104AF000F3E701210020F7E77C0000202DE9F041D9
:104B0000044600F065F994F9455004F1240609E0E3
:104B1000606A48B1304601F06DF808B100F00EFB54
:104B20006D1E6DB2002DF3DC4FF0FF3684F845604A
:104B300000F06EF900F04CF994F9445004F11007BC
:104B400009E0206948B1384601F054F808B100F096
:104B5000F5FA6D1E6DB2002DF3DC84F84460BDE8FB
:104B6000F04100F055B900002DE9F041054600275D
:104B700000F0CEFB314E306808B9FFF731FDF06828
:104B800005424BD1C5B3083568070ED005F00700C4
:104B9000C0F108000544680707D0502080F3118851
:104BA000BFF34F8FBFF36F8FFEE72DB37068854261
:104BB00034D82248103001460C6801E020460C46EB
:104BC0006168A94202D221680029F7D131688C427C
:104BD00024D007682168016060680837411B1029EC
:104BE0000FD96019420708D0502080F31188BFF315
:104BF0004F8FBFF36F8FFEE710E041606560FFF7F6
:104C0000EDFD61687068401A7060B268904200D231
:104C1000B060F06801430020C4E9000101F024F80D
:104C2000780707D0502080F31188BFF34F8FBFF370
:104C30006F8FFEE73846BDE8F08100009400002049
:104C400010B5040006D000F0C3F8246A00F0E0F8C4
:104C5000204610BD502080F31188BFF34F8FBFF363
:104C60006F8FFEE710B5031F4FF080741C601B1F91
:104C700021F001011960191F024B0B6014394038F3
:104C80000A6010BDB14A000870B50C46064600F037
:104C90009FF8154D2868406D80B92968012081F87A
:104CA00058005CB101212046FFF75CFB0F494FF033
:104CB00080500860BFF34F8FBFF36F8F00F0A8F8EC
:104CC00000F086F82868446D002034B116B12968D8
:104CD000486502E02A68611E5165296881F858001C
:104CE00000F096F8204670BD4000002004ED00E082
:104CF000D0E9013201699A60D0E901235A604A681B
:104D0000824201D182684A60002202610868401E26
:104D100008600868704710B5040006D000F058F825
:104D2000A46B00F075F8204610BD502080F3118868
:104D3000BFF34F8FBFF36F8FFEE70000034B03609D
:104D400003F15C000860802010607047D0070020ED
:104D5000044B036003F15C0008604FF48070106046
:104D6000704700002C0A0020704700F108014FF046
:104D7000FF32C0E90112C16001610021016070478A
:104D800000210161704730B50B685A1C02D000F158
:104D9000080202E0026904E02246546825689D4248
:104DA000FAD953684B6099608A6051600861016864
:104DB000491C016030BD42684A6093688B6093680B
:104DC0005960916008610168491C016070470000EA
:104DD000502080F31188BFF34F8FBFF36F8F0A49C4
:104DE0004868401C486001280CD10848006810F051
:104DF000FF0F07D0502080F31188BFF34F8FBFF310
:104E00006F8FFEE770470000AC00002004ED00E06B
:104E10000849486828B1401E486001D180F31188D4
:104E20007047502080F31188BFF34F8FBFF36F8F0F
:104E3000FEE70000AC00002070B5002827D0144D1C
:104E4000A0F108046168E868014207D1502080F3AE
:104E50001188BFF34F8FBFF36F8FFEE722683AB11F
:104E6000502080F31188BFF34F8FBFF36F8FFEE7A1
:104E70008143616000F04CFA6068696808446860CA
:104E80002046FFF7ABFCBDE8704000F0EDBE70BD02
:104E9000940000200F4810B501684FF47A72B1FBFE
:104EA000F2F30D486FF07F448360B4FBF3F3C3600B
:104EB000B1FBF1F32D24B4FBF3F303614FF0E020D9
:104EC000002303618361B1FBF2F1491E41610721B7
:104ED000016110BD3C000020AC000020F1B5394D4F
:104EE00082B00299E868814200D902904FF0E02434
:104EF000206920F001002061A1690298AA68401E83
:104F000002FB00162869864200D9361A72B6BFF332
:104F10004F8FBFF36F8FFEF7C1FF98B36661002715
:104F2000A761206940F00100206102980090684666
:104F3000FEF71DFB009820B1BFF34F8F30BFBFF3CA
:104F40006F8F02A8FEF712FB62B6BFF34F8FBFF35D
:104F50006F8F72B6BFF34F8FBFF36F8F0620206144
:104F60002069C00316D5A0692A69311AA868411AB8
:104F7000491E914201D3814200D9411E61610298CC
:104F8000401E12E0FFE7A0696061206940F0010067
:104F9000206111E00298AA68A1695043411AB1FB4F
:104FA000F2F0431C5343591A6161A761216941F032
:104FB0000101216100F098F9A868401E606162B6A5
:104FC000FEBD0000AC00002010B5FBF73BF9114915
:104FD00010280ED300F1E02090F8F0030A789042F8
:104FE00007D2502080F31188BFF34F8FBFF36F8F2C
:104FF000FEE709480068496900F4E060884207D983
:10500000502080F31188BFF34F8FBFF36F8FFEE7FF
:1050100010BD0000AC0000200CED00E010B5084B06
:10502000002200BF53F832401CB1521C082AF9D3A9
:1050300010BD43F8321003EBC201486010BD000000
:10504000B401002010B504000AD000F013F894F861
:10505000460000280CD12046BDE81040FFF7ECBE0A
:10506000502080F31188BFF34F8FBFF36F8FFEE79F
:1050700010BD0000084A002102EBC1035B688342B7
:1050800006D1002042F8310002EBC10148607047B0
:10509000491C0829F0D37047B401002070B51546AB
:1050A0000E460446FFF794FE94F944100020491C74
:1050B00001D184F8440094F94510491C01D184F8C9
:1050C0004500FFF7A5FEA06B28B92A46314604F13A
:1050D000240000F0A9F82046BDE87040FFF70EBD9F
:1050E00010B5020014D00F48806B38B1502080F307
:1050F0001188BFF34F8FBFF36F8FFEE700F008F901
:1051000000211046FFF72EF900F0AEFD002807D170
:1051100005494FF080500860BFF34F8FBFF36F8F8A
:1051200010BD00004000002004ED00E002498A6A42
:105130000260496941607047400000200149012038
:1051400048627047400000202DE9F0410E460400FF
:1051500015D0FFF739FF5020EFF3118580F3118848
:10516000BFF34F8FBFF36F8F94F85800022184F87C
:105170005810616D491C6165012808D032E050204B
:1051800080F31188BFF34F8FBFF36F8FFEE7A06AE4
:1051900038B1502080F31188BFF34F8FBFF36F8F6A
:1051A000FEE7124FB86B18B104F1180110480DE07A
:1051B000201DFFF79DFDE06AB969884200D9B861FA
:1051C0000C4900EB800001EB8000211DFFF7F3FD8F
:1051D000E06A3968C96A884204D901200EB130609A
:1051E00000E0786285F31188BDE8F081400000207E
:1051F0007C060020F401002010B50C4650B109498E
:1052000009681831FFF7BFFD2046BDE810400121B5
:10521000FFF7A8B8502080F31188BFF34F8FBFF37A
:105220006F8FFEE74000002070B514460D4668B150
:105230000A4909681831FFF7BEFD0CB14FF0FF3580
:1052400021462846BDE87040FFF78CB8502080F317
:105250001188BFF34F8FBFF36F8FFEE74000002030
:1052600030B587B00024039405AA04A903A80494C8
:10527000FFF764FDDDE903010094CDE9011000238F
:1052800015A11748059A00F0D2FB164D0028686357
:105290001FD000F07DFD012809D0401C19D15020FD
:1052A00080F31188BFF34F8FBFF36F8FFEE750205D
:1052B00080F31188BFF34F8FBFF36F8F4FF0FF3034
:1052C00028630120E8616C6107B0BDE8304000F060
:1052D00059B807B030BD000049444C4500000000FB
:1052E0002D4600084000002008494A690B6B024423
:1052F0009A4207D9502080F31188BFF34F8FBFF334
:105300006F8FFEE74A6910444861704740000020F3
:105310000248816B491C81637047000040000020F7
:10532000164810B5816B11B10121416210BD0021F9
:1053300041628169124A01E0B9B1491E01EB810362
:1053400052F82330002BF7D001EB810302EB8302EC
:1053500002F1080453685B685360A34201D15B68A3
:105360005360DA680260816110BD502080F31188BB
:10537000BFF34F8FBFF36F8FFEE7000040000020A8
:10538000F40100201CB5264908780190FF20087020
:1053900008788DF800009DF800009DF8002000F0CE
:1053A000F000904207D0502080F31188BFF34F8F58
:1053B000BFF36F8FFEE79DF800001A4C00F050001D
:1053C00020700720606105E09DF8002052008DF8F4
:1053D0000020401E9DF800201206F5D460610328CD
:1053E00007D0502080F31188BFF34F8FBFF36F8F2A
:1053F000FEE74FF440706061019808700A48016848
:1054000041F470010160016841F070410160FFF7F3
:1054100041FD00206060FAF7DFFE00201CBD0000A7
:1054200000E400E0AC00002020ED00E010B50C46E8
:1054300048B184420FD9502080F31188BFF34F8FB9
:10544000BFF36F8FFEE7502080F31188BFF34F8FBB
:10545000BFF36F8FFEE70222002100F03CF8002826
:1054600000D0846310BD38B50C4648B184420FD9D2
:10547000502080F31188BFF34F8FBFF36F8FFEE78B
:10548000502080F31188BFF34F8FBFF36F8FFEE77B
:105490000221134600220091114600F040F8002836
:1054A00000D0846338BD10B502460021012000F011
:1054B00012F80446FFF704F9204610BD38B50B4634
:1054C000002200901146012000F029F80446FFF761
:1054D000F7F8204638BDF8B517460E46050014D03B
:1054E000DEB105FB06F05030FFF73EFB04000AD0AA
:1054F000002084F8460004F150023B46314628461D
:105500000094FFF7E9F82046F8BD502080F3118899
:10551000BFF34F8FBFF36F8FFEE70020E3E738B58F
:10552000049D18B153B1CAB181B120E0502080F37D
:105530001188BFF34F8FBFF36F8FFEE7502080F3CA
:105540001188BFF34F8FBFF36F8FFEE7502080F3BA
:105550001188BFF34F8FBFF36F8FFEE739B1502033
:1055600080F31188BFF34F8FBFF36F8FFEE7502496
:105570001C46012384F846302B460094FFF7ACF814
:10558000204638BD70B50D46040025D0FFF720FC3D
:10559000D4E90F20216802FB001161600021A163A2
:1055A0002168A1600A46D4E90F01401E00FB0121D9
:1055B000E16021464FF0FF3001F8440F487004F1DC
:1055C00010008DB1FFF7D1FB04F12400FFF7CDFBF4
:1055D000FFF71EFC012070BD502080F31188BFF33F
:1055E0004F8FBFF36F8FFEE721690029F0D000F0E5
:1055F00001FB0028ECD004494FF080500860BFF355
:105600004F8FBFF36F8FE3E704ED00E02DE9FF4715
:1056100082B01D468A464FF00008040003D0BAF15C
:10562000000F08D011E0502080F31188BFF34F8F96
:10563000BFF36F8FFEE7206C38B1502080F31188E4
:10564000BFF34F8FBFF36F8FFEE7022D0AD1E06BE0
:10565000012807D0502080F31188BFF34F8FBFF38C
:105660006F8FFEE700F00EFA3F4F4FF000094FF04A
:10567000805648B9049838B1502080F31188BFF3A0
:105680004F8FBFF36F8FFEE7FFF7A2FBA06BE16BBD
:10569000884207D3022D05D00498D0B1B8F1000F8D
:1056A0001AD01EE02A4651462046FEF730FF616AB6
:1056B00019B104F1240000F09DFA20B13E60BFF35F
:1056C0004F8FBFF36F8FFFF7A3FB012006B0BDE83C
:1056D000F087FFF79DFB22E06846FFF727FD4FF0BC
:1056E0000108FFF795FBFFF713FEFFF771FB94F935
:1056F0004400401C01D184F8449094F94500401CBA
:1057000001D184F84590FFF783FB04A9684600F0B7
:1057100027F930B12046FFF7F1F900F0A5FA002093
:10572000D4E7FFF755FBA06BE16B884213D1FFF77D
:105730006FFB04F110000499FFF75EFD2046FFF7B0
:10574000DDF900F091FA00289ED13E60BFF34F8F43
:10575000BFF36F8F98E7FFF75BFB2046FFF7CEF9AB
:1057600000F082FA90E7000004ED00E02DE9F04738
:105770001F4690468946040003D0B9F1000F08D0B7
:1057800011E0502080F31188BFF34F8FBFF36F8F6C
:10579000FEE7206C38B1502080F31188BFF34F8FA3
:1057A000BFF36F8FFEE7022F0AD1E06B012807D00D
:1057B000502080F31188BFF34F8FBFF36F8FFEE748
:1057C000FFF702FC5020EFF3118680F31188BFF33E
:1057D0004F8FBFF36F8FA06BE16B884206D3022F10
:1057E00004D0002086F31188BDE8F08794F9455075
:1057F0003A4649462046FEF78AFE681C04D06D1CD6
:1058000084F845500120EDE7606A0028FAD004F1E1
:10581000240000F0EFF90028F4D0B8F1000FF1D027
:105820000121C8F80010EDE72DE9F747002683B005
:105830008A46040003D0BAF1000F08D011E05020CE
:1058400080F31188BFF34F8FBFF36F8FFEE7206C9B
:1058500038B1502080F31188BFF34F8FBFF36F8FA3
:10586000FEE700F00FF9DFF8F4804FF000094FF089
:10587000805748B9059838B1502080F31188BFF39C
:105880004F8FBFF36F8FFEE7FFF7A2FAA56BC5B18D
:1058900051462046FEF728FE6D1EA563206950B1D3
:1058A00004F1100000F0A6F928B1C8F80070BFF3A9
:1058B0004F8FBFF36F8FFFF7ABFA012006B0BDE843
:1058C000F087059808B11EB106E0FFF7A1FA27E0BE
:1058D0006846FFF72BFC0126FFF79AFAFFF718FD41
:1058E000FFF776FA94F94400401C01D184F8449003
:1058F00094F94500401C01D184F84590FFF788FADF
:1059000005A9684600F02CF8002820460AD0FFF7C9
:10591000F5F800F0A9F92046FEF7A2FF0028B3D061
:105920000020CBE7FEF79CFF90B104F1240005991D
:10593000FFF762FC2046FFF7E1F800F095F9002838
:10594000A2D1C8F80070BFF34F8FBFF36F8F9BE7F2
:105950002046FFF7D3F800F087F995E704ED00E063
:105960002DE9F0410C46050011D0C4B1FFF730FA23
:10597000174B5A696E682068911B471C17D02F6817
:105980009B6A9F4219D0964217D8012410E05020FC
:1059900080F31188BFF34F8FBFF36F8FFEE7502066
:1059A00080F31188BFF34F8FBFF36F8FFEE70024A2
:1059B000FFF72EFA2046BDE8F081884205D9401A4B
:1059C00020602846FFF7B2FBF1E700202060DCE70B
:1059D000400000202DE9FF5F8346DDE90E879946F0
:1059E00016468A469000FFF7BFF805001CD05C20E1
:1059F000FFF7BAF8040014D00020256384F859009A
:105A0000CDE90240CDE900874B4632465146584623
:105A1000FEF773FE2046FEF7D3FC012004B0BDE87C
:105A2000F09F2846FFF708FA4FF0FF30F6E7F0B591
:105A300085B0DDE90B640A9DA6B1DCB15C27009757
:105A40002663022684F85960002604AFCDE9024699
:105A5000CDE90057FEF751FE2046FEF7B1FC049851
:105A600005B0F0BD502080F31188BFF34F8FBFF316
:105A70006F8FFEE7502080F31188BFF34F8FBFF385
:105A80006F8FFEE70548C16919B1806B18B100201E
:105A9000704701207047022070470000400000203E
:105AA0000148406970470000400000202DE9F041A6
:105AB0002E4C0027A06B40B1206A401C2062606A17
:105AC00000B101273846BDE8F0816669761C666141
:105AD00013D16068006838B1502080F31188BFF39B
